:20000000020400120EA3FFFFFFFF22023EB91258EEC2867F041258F4C2872202440D7F0A38
:200020000258F40250758E838F828C858D84EB1BAE0270011A4E6012A2AFC2AF759201E0BC
:20004000A3759200F0A392AF80E42202572301200000250258A2EF12005CFF2275F0108467
:20006000AAF075F00AA42A226F6802023BC7120DA4EFF4FFEEF4FEEDF4FDECF4FC020DF468
:20008000AEEF1F0251150DF00201020000000AF00503040506070AF10508090A0B0C0AF2F4
:2000A000050D0E0F10110AF303F1F2F300000AF40327282900000BF00312131400000BF16E
:2000C0000315161700000BF20318191A00000BF3031B1C1D00000FF00225260000000D01E1
:2000E000286F00000300170D02286C00000300160A022001280C044F010A032007000003A7
:2001000041010A04201300000343010A05200D00000342010A06201900000344010A0720D1
:20012000812814044F020A08208700000341020A09209300000343020A0A208D000003429A
:20014000020A0B209900000344020A0C20A12816044F020A0D20A700000341020A0E20B30D
:2001600000000343020A0F20AD00000342020A1020B900000344020B0106EE0000230005A6
:200180000B0206F100002300050B0306F400002300050B0606FA000063000A0B0706FD0070
:2001A0000063000A0B080700000063000A0B2D0BB700002200050B2E0BBB00002200050BF9
:2001C0002F0BBF00002200050B26073300006200190B27073500006200190B2807370000BF
:2001E000620019112C00000000430000112E000000004300000C00079900000160600911FB
:2002000007EC000001000005065422000003201E050A035C0000066000050B036C000005D0
:2002200060000F01000000004300000F02000000004300000A512021280E044F010A562011
:20024000C12818044F020A5B20E1281A044F020A822001280C654F010A8720812814654F93
:20026000020A8C20A12816654F020B10070C00006300060B11071000006300060B120714C6
:2002800000006300060B13073A00006300060B14071800006300070B15071C0000630007D8
:2002A0000B16072000006300070B17073E00006300070AD12021280E654F010AD620C128CB
:2002C00018654F020ADB20E1281A654F020B25073100006200190F0308BD00000200009026
:2002E00010891241FFEAF0A3EBF000901089E0FEA3E0AA06F97B0090108FE0FD124E5D90B4
:200300001090EEF0A3EFF0901090E0B4FF08A3E0B4FF037FFF2200901090E0FEA3E0FF9019
:20032000257875F005124225F52F740193F53090257675F005EF124225F52D740193F52EA2
:200340002530F52CE52D352FF52B90108FE0F925E024FEF582E43458F583E493F5297401F9
:2003600093F52A124234901089E0FEA3E0FFE4A312418EA3E9F0123DC400AE2DAF2EE4FC2B
:20038000FD901096E52FF0A3E530F090108FE0901098F01244CA901090EEF0A3EFF0AE2BBE
:2003A000AF2C1203DE00E52A4529602F90108AE0252AFF901089E03529FEE490108B124144
:2003C0008E90108FE090109FF0123DC400E52C252AFFE52B3529FE1203DE007F0022E4FCFF
:2003E000FD90109B7410F0A37490F0A3E4F0A37402F090108FE090109FF0123DC422072B95
:20040000E4F580F590F5A0F5B0C2AF8501B6902457E4F078FFE4F6D8FD75BF0275090075E9
:20042000816EA8810876CDB8FFFA122D1B02046B0221AEE493A3F8E493A34003F68001F234
:2004400008DFF48029E493A3F85407240CC8C333C4540F4420C8834004F456800146F6DFBD
:20046000E4800B010204081020408090004EE47E019360BCA3FF543F30E509541FFEE493E3
:20048000A360010ECF54C025E060A840B8E493A3FAE493A3F8E493A3C8C582C8CAC583CA6F
:2004A000F0A3C8C582C8CAC583CADFE9DEE780BEC0081258DA89828A83BB80005003E08019
:2004C00002E493D082C582C0821258E2D0E022C008C0E01258DAD0E089828A83BB800050AB
:2004E00001F080DFC0081258DA89828A83BB80005007E0F5F0A3E080CAE493F5F074019300
:2005000080C1C008C0E01258DAD0E089828A83BB80005005F0A3E5F0F08023C0081258DA8F
:2005200089828A83BB8000500AE0FBA3E0FAA3E0F9800BE493FB740193FA740293F9D0E089
:20054000902D0073C008C0E01258DAD0E089828A83BB8000500AC5F0F0A3C5F0F0A3E8F0FA
:2005600080DCC0081258DA89828A83BB8000500DE0FCA3E0FDA3E0FEA3E0FF80C1E493FC50
:20058000740193FD740293FE740393FF80B0C0081258DA89828A83BB8000500BECF0A3EDF0
:2005A000F0A3EEF0A3EFF0809502097BE86480F8E933E83360110460F0ED33EC337009E84D
:2005C000FCE9FDEAFEEBFF220460DED3EB9FEA9EE99DE8C2E78CF0C2F795F0400CE8CCF855
:2005E000E9CDF9EACEFAEBCFFB12094685D0F05804700320D5B3E80470075002B2D5020981
:200600008592D5EC0460F7E4CCC0E0C398F8603B94186008400DD0E0FB02095DE4FBFAC953
:20062000FC8028E830E406E4C9FBE4CAFCE830E305E4C9CACBFCE854076010F8C3E913F921
:20064000EA13FAEB13FBEC13FCD8F130F52FC3E49CFCEF9BFFEE9AFEED99FDD0E0FBEF4ED9
:200660004D4C701222DB03020982EC2CFCEF33FFEE33FEED33FDED30E7EB02095DEF2BFFF1
:20068000EE3AFEED39FDD0E0FB50130BBB0003020985ED13FDEE13FEEF13FFEC13FC0209A7
:2006A0005DEC4D6011E8497017ED33EC3304600DE4FCFFFEFD22E933E8330470F802097BA6
:2006C00012094658046009E4CC24815006285009020985284003020982C0E0EB4A7044B9FE
:2006E0008006D0E0FB020971EF4E701CBD8008EBFFEAFEE9FD80EBE98DF0A4FEE5F0020736
:200700008AE9CDF9EAFEEBFFEF89F0A4FCE5F0CE89F0A42EFFE435F0CD89F0A42DFEE435A2
:20072000F08067EF4E7005BD80D780C3EF8BF0A4ACF0EE8BF0A42CFCE435F0F8EF8AF0A4EC
:200740002CE5F038FCE433CB8DF0A42CFCE5F03BF8EE8AF0A42CFCE5F038F8E433CF89F099
:20076000A42CFCE5F038CF3400CE89F0A42FFFE5F03EFEE433C98DF0A42EFEE5F039CD8AE1
:20078000F0A42FFFE5F03EFEE43DFD33D0E0FB50070BBB000F020985EC2CFCEF33FFEE3378
:2007A000FEED33FD02095D020985EC5D046005E85904700302097B120946580460F6EC48EF
:2007C00060F2EC7004FDFEFF22C860DB2481C85009C398600250060209829850CAF582E9D0
:2007E000294B4A7005AB8202097175F0007C1A7880C3EF9BEE9AED99400DC3EF9BFFEE9AAE
:20080000FEED99FDE842F0DC23ACF0D0E0FFD0E0FED0E0FDAB8220E7101BEB60BAEC2CFC20
:20082000EF33FFEE33FEED33FD02095DE803F830E705C0F075F000EF2FFFEE33FEED33FD86
:2008400040B830E7C280AA74F8CC6480CCC86480C8F58204604FC3EB9FF5F0EA9E42F0E942
:200860009D42F0E89C45F0603C501DE5825FFFE582D313CB5BCBF42B5582FB50280ABA00B7
:200880002409B9002008801DE5825BFBE582D313CF5FCFF4C3132F5582FF50090EBE0005AD
:2008A0000DBD00010CC3EB9FF5F0EA9E42F0E99D42F0E89C45F06007CC4820E701B3EC22C0
:2008C000ED33EC33600A047003BD8004ECB2E7FC2275F020800E75F010800575F0087D001D
:2008E0007E007F003392D530D503120D35EC334010EF33FFEE33FEED33FDEC33FCD5F0ED6C
:2009000022E5F0247EA2D513CC92E7CDCEFF22EDD2E7CD33EC3392D524814006E4FFFEFDBE
:20092000FC22FCE4CFCECDCC24E0501174FF80EDC3CC13CCCD13CDCE13CECF13CF0470F05F
:2009400030D5DE020D35E9D2E7C933E833F892D5EDD2E7CD33EC33FC5002B2D522EC30E799
:20096000100FBF000C0EBE00080DBD00040BEB6014A2D5EB13FCED92E7FD2274FFFCFDFE21
:20098000FF22E480F8A2D574FF13FC7D80E480EFC0E0EFFBEEFAEDF9ECF81206A1D0E0F5F7
:2009A000F0EFFBEEFAEDF9ECF8120E1AA3A3A3A3E8C0E0E9C0E0EAC0E0EBC0E0C0F01206F7
:2009C000A1120E36A3A3A3A31205B0D0F0D0E0FBD0E0FAD0E0F9D0E0F8D5F0D422E709F6C6
:2009E00008DFFA8046E709F208DFFA803E88828C83E709F0A3DFFA8032E309F608DFFA8065
:200A000078E309F208DFFA807088828C83E309F0A3DFFA806489828A83E0A3F608DFFA8068
:200A20005889828A83E0A3F208DFFA804C80D280FA80C680D4806980F28033801080A6807A
:200A4000EA809A80A880DA80E280CA803389828A83ECFAE493A3C8C582C8CCC583CCF0A34F
:200A6000C8C582C8CCC583CCDFE9DEE7800D89828A83E493A3F608DFF9ECFAA9F0EDFB2214
:200A800089828A83ECFAE0A3C8C582C8CCC583CCF0A3C8C582C8CCC583CCDFEADEE880DBEA
:200AA00089828A83E493A3F208DFF980CC88F0EF60010E4E60C388F0ED2402B4040050B953
:200AC000F582EB2402B4040050AF2323458223900A2D73BB010689828A83E0225002E72236
:200AE000BBFE02E32289828A83E49322BB010CE58229F582E5833AF583E0225006E92582B4
:200B0000F8E622BBFE06E92582F8E222E58229F582E5833AF583E49322BB010689828A83F6
:200B2000F0225002F722BBFE01F322F8BB010DE58229F582E5833AF583E8F0225006E92529
:200B400082C8F622BBFE05E92582C8F222EF8DF0A4A8F0CF8CF0A428CE8DF0A42EFE22BC51
:200B6000000BBE0029EF8DF084FFADF022E4CCF875F008EF2FFFEE33FEEC33FCEE9DEC985A
:200B80004005FCEE9DFE0FD5F0E9E4CEFD22EDF8F5F0EE8420D21CFEADF075F008EF2FFF8E
:200BA000ED33FD4007985006D5F0F222C398FD0FD5F0EA22C5F0F8A3E028F0C5F0F8E58276
:200BC000158270021583E038F022A3F8E0C5F025F0F0E582158270021583E0C838F0E82233
:200BE000BB0110E58229F582E5833AF583E0F5F0A3E0225009E92582F886F008E622BBFE7E
:200C00000AE92582F8E2F5F008E222E5832AF583E993F5F0A3E99322E88FF0A4CC8BF0A4CD
:200C20002CFCE98EF0A42CFC8AF0EDA42CFCEA8EF0A4CDA8F08BF0A42DCC3825F0FDE98FDB
:200C4000F0A42CCD35F0FCEB8EF0A4FEA9F0EB8FF0A4CFC5F02ECD39FEE43CFCEAA42DCED9
:200C600035F0FDE43CFC2275F008758200EF2FFFEE33FECD33CDCC33CCC58233C5829BED93
:200C80009AEC99E58298400CF582EE9BFEED9AFDEC99FC0FD5F0D6E4CEFBE4CDFAE4CCF93C
:200CA000A88222B800C1B90059BA002DEC8BF084CFCECDFCE5F0CBF97818EF2FFFEE33FEC0
:200CC000ED33FDEC33FCEB33FB10D703994004EB99FB0FD8E5E4F9FA227818EF2FFFEE33EA
:200CE000FEED33FDEC33FCC933C910D7059BE99A4007EC9BFCE99AF90FD8E0E4C9FAE4CC8B
:200D0000FB2275F010EF2FFFEE33FEED33FDCC33CCC833C810D7079BEC9AE899400AED9BF8
:200D2000FDEC9AFCE899F80FD5F0DAE4CDFBE4CCFAE4C8F922C3E49FFFE49EFEE49DFDE4C9
:200D40009CFC22EB9FF5F0EA9E42F0E99D42F0EC6480C864809845F022EB9FF5F0EA9E4254
:200D6000F0E99D42F0E89C45F022E8600FECC313FCED13FDEE13FEEF13FFD8F122E860109B
:200D8000ECA2E713FCED13FDEE13FEEF13FFD8F022E8600FEFC333FFEE33FEED33FDEC3352
:200DA000FCD8F122BB010789828A83020E0E5005E9F8021150BBFE05E9F802115C89828A17
:200DC00083020E1ABB010DE58229F582E5833AF583020E0E5007E92582F8021150BBFE075C
:200DE000E92582F802115CE58229F582E5833AF583020E1ABB010789828A83020E6650050B
:200E0000E9F8021182BBFE05E9F802118E22E0FCA3E0FDA3E0FEA3E0FF22E493FC740193FE
:200E2000FD740293FE740393FF22E0F8A3E0F9A3E0FAA3E0FB22E493F8740193F974029399
:200E4000FA740393FB22BB010789828A83020E2A5005E9F8021168BBFE05E9F802117589FB
:200E6000828A83020E36ECF0A3EDF0A3EEF0A3EFF022A8828583F0D083D082120E89120E8C
:200E800089120E89120E89E473E493A3C583C5F0C583C8C582C8F0A3C583C5F0C583C8C585
:200EA00082C822BB010789828A83020E725005E9F802119ABBFE05E9F80211B322BB010D36
:200EC000E58229F582E5833AF583020E725007E92582F802119ABBFE07E92582F80211B3D5
:200EE00022A42582F582E5F03583F58322D083D082F8E4937012740193700DA3A393F87487
:200F00000193F5828883E4737402936860EFA3A3A380DFD083D082E4937012740193700D39
:200F2000A3A393F8740193F5828883E4737402936C70127403936D700C7404936E700674B2
:200F400005936F60DDA3A3A3A3A3A380CAEC8EF0A4CCC5F0CCCDF8EFA4CEC5F02DFDE43CB1
:200F6000FCE8A42EC8C5F03DFDE43CFCEFA4FFE5F028FEE43DFDE43CFC22E3F5F009E20844
:200F8000B5F06BDFF58067E3F5F009E608B5F05EDFF5805A87F009E608B5F052DFF6804E0E
:200FA00087F009E208B5F046DFF6804288828C8387F009E0A3B5F036DFF6803288828C83AE
:200FC00087F009E493A3B5F025DFF5802188828C83E3F5F009E0A3B5F014DFF580108882A4
:200FE0008C83E3F5F009E493A3B5F002DFF40210A9808780E9809080D4803E8015806E802D
:201000007E809D80B7808D80A380518074803C0210B589828A83ECFAE493F5F0A3C8C5827A
:20102000C8CCC583CCE493A3C8C582C8CCC583CCB5F076DFE3DEE1807089828A83E493F527
:20104000F0A3E208B5F062DFF4805E89828A83E0F5F0A3E608B5F051DFF5804D89828A833E
:20106000E0F5F0A3E208B5F040DFF5803C89828A83E493F5F0A3E608B5F02EDFF4802A80D4
:2010800002805789828A83ECFAE493F5F0A3C8C582C8CCC583CCE0A3C8C582C8CCC583CC89
:2010A000B5F006DFE4DEE280007FFFB5F0020F2240027F012289828A83ECFAE0F5F0A3C81A
:2010C000C582C8CCC583CCE0A3C8C582C8CCC583CCB5F0D5DFE5DEE380CF89828A83ECFA9B
:2010E000E0F5F0A3C8C582C8CCC583CCE493A3C8C582C8CCC583CCB5F0AFDFE4DEE280A900
:2011000088F0EF60010E4E60ABED2402B404005098F582EB2402B40400508E23234582239F
:20112000900FF173EF4E6012EF60010EEDBB010B89828A83F0A3DFFCDEFA2289F05007F7A4
:2011400009DFFCA9F022BBFEFCF309DFFCA9F022E6FC08E6FD08E6FE08E6FF22E2FC08E219
:20116000FD08E2FE08E2FF22E6FB08E6F908E6FA08E6CBF822E2FB08E2F908E2FA08E2CBA3
:20118000F822ECF608EDF608EEF608EFF622ECF208EDF208EEF208EFF222D083D082E49399
:2011A000F608740193F608740293F608740393F6740473D083D082E493F208740193F20821
:2011C000740293F208740393F2740473EF700302186D14700302137114600302190C7C28ED
:2011E0007D7590108F7403F07F051219677A0C792C7F04122EE37E0C7F2C7D047C001256E6
:20120000CB900C76122EBD7406F0A37402F07F8D12190D7406F0A37402F07F2012197190FF
:201220002875E020E04712197B90283DEEF0A3EFF090109B7428F07400122ECA122FA07F4A
:20124000127E2312198F90109B7428F0A37400F0A3E4F0A3122FA07FA57E2612198F7E0652
:201260007F007C287D007B3F7A001200267C0E7DF0122F1D7F157E081202DF7C0E7DF412F3
:201280002F1D7F237E081202DF7C0E7DF8122F1D7F1F7E081202DF7C0E7DFC122F1D7F1B78
:2012A0007E081202DF121946E4F5247E007B01746C2524F9EE3428FA120AD3FF122F3EEF8B
:2012C000F00524E524B406E3900769E0FFA3E0900C78CFF0A3EFF0A37455F07C0C7D727B4A
:2012E000097A007F2B7E27122C717A1079367F02122EE37E0C7F727D027C001256CB900C4B
:2013000074122EBD122F757F8912190D122F757F1C121971900A69E054DFF0902874E02047
:20132000E207902437E030E009902874E04420F08007902874E054DFF0122FDF90283FF0C3
:20134000122DB5902843E07007902874E030E507902874E020E115E4F524122F3EE4F005A8
:2013600024E524B40CF4122FCE122DBAE4122F84229007EC7401F07E287F75C006C007901A
:20138000109D120E7200000805122EB6122F7DD007D00612433D7E0E7F5EC006C007901078
:2013A0009D120E7200000804122EB6122F7DD007D00612433D901067120E720000000090D6
:2013C000106B120E720001FFFC90106F120E72F754ECB7901073120E72DEAF56BF787A7CC0
:2013E0000C7A10796F122FA8787E7C0C7A107973122FA878727C0C7D017B017A0C797A7E46
:20140000007F08121100EF603B7E0C7F72C006C00790109D120E720000237D122EB604F037
:20142000A304F0D007D00612198764AA6016900C7274ABF07402122F0D7B017A007F7D7EE1
:20144000231202DF7E077FC27B1B7A007DC07C031248DD7E0D7FF7C006C00790109D120EC2
:2014600072000003B7122EB67402F0A304F0D007D00612433D7E0D7FF712584F900DF7EED2
:20148000F0A3EFF09007CAE07002A3E0700A9007CA7402F0A374D0F09007C6E07002A3E05A
:2014A000700A9007C67407F0A374D0F0C39007D9E094059007D8E094005006E4F0A374053E
:2014C000F0122DBF902875E0FF30E1064401F00215C312197B90283DE06E7003A3E06F603E
:2014E000437E067F007D3D7C001256CB90063DE06E7003A3E06F7E287F00601DC006C00788
:2015000090109D120E7200002312122EB6122FA0D007D00612433D800B7C067D007B3F7AF3
:201520000012002690283CE0F523E523D39400400CE523D394045005AF23122DC49006E8B1
:20154000E054FEF09007ECE090283CF0F523E4F524E52475F002A4240CF9742835F0FEAF62
:2015600001C006C007E52475F020A42404FFE5F0122EAA7402F0A3F0D007D00612433DE5A8
:201580002475F002A42424F9742835F0FEAF01C006C007E52375F006A4FDACF0E52475F0C1
:2015A00020A42DFFE5F03CCF2404CF122EAA7402F0A3F0D007D00612433D0524E524C394B9
:2015C00008408EE4900EDEF0A3F090287DF090287CF0902868F0122DC9902865E004F012EE
:2015E0002DCE902866740CF0122DBF7E0C7F72C006C00790109D120E7200000807122EB688
:20160000122F7DD007D006121987FFE4FCFDFE900EE8120E667E0C7F72C006C00790109D82
:20162000120E720000272B122EB67409F0A37402F0D007D00612433D7E0C7F74122DD390FC
:201640001077120E667E287F6E122DD390107B120E66901077122E9EA3122E8EC3901077F7
:20166000122F6700900EE8122E8EFF901077122E9EC3120D59402300900EE8120E720000C4
:201680000018E4900E5EF01219257C0E7D5E90108F7403F07F0412196700900EE8122E8EAE
:2016A000FF901077122E9EC3120D59501900900EE8122E8EFF901077E0F8C3EF900EE81206
:2016C0002F67121925007E0D7F53C006C00790109D120E7200002734122EB6122F75D0078D
:2016E000D00612433D900C7AE064556068900D57E070629028B0E030E45B900D577401F055
:201700007E0C7F72C006C00790109D120E720000079A122EB6122F7DD007D00612433D90CE
:201720000C72E0C394095005E004F08006900C727409F07403122F0D7B017A007F9A7E0768
:201740001202DF7F08122DD8900D53120E7200000000121946122DDD7E0C7F72C006C007E1
:2017600090109D120E720000070C122EB6122F7DD007D00612433D900C72E0B4AA07900BA6
:2017800033E04440F0E4900C72122EC104F0A304F07F337E277D007C00123DC4902874E0D5
:2017A00054F7F0E020E207902437E030E009902874E04420F08007902874E054DFF07F018B
:2017C000122DE2900B33E054FEF0122FDF122F847E107F36C006C00790109D120E72000074
:2017E0002389122EB67402F0A3F0D007D00612433D7E0E7FF0C006C00790109D120E7200B8
:20180000000815122EB6122F16D007D00612433D7E0E7FF4C006C00790109D120E720000C4
:201820000823122EB6122F16D007D00612433D7E0E7FF8C006C00790109D120E720000088A
:201840001F122EB6122F16D007D00612433D7E0E7FFCC006C00790109D120E720000081B57
:20186000122EB6122F16D007D00612433DE4902868F090076BF0A3F09028B0E054CC601685
:201880007E007F067A28793F122F4EE4902867F0122DB5122FB3122DCE122DE77E287F47E2
:2018A0007D05125792EF602D7E287F47C006C00790109D120E72000003ED122EB6122F162A
:2018C000D007D00612433D7E287F477D0412579290284BEFF07DFF7FFF122DECE4900B3229
:2018E000F0A3F0900A69E054DFF0122DF17E0C7F2CC006C00790109D120E720000238D12DC
:201900002EB6122F75D007D00612433D227E237D007C00123DC490109B740CF0A37472F0FB
:20192000A3E4F0A322900EE8A3A3A3E0900C86F07C0C7D8690108F7403F07B017A007F076D
:201940007E081202DF2290109B740DF0A37453F0A3E4F0A37404F0A37402F07F347E277D86
:20196000007C00123DC4227B017A007E081202DF227E277D007C00123DC4227E287F007DB0
:201980003D7C001256CB2212433D900C72E0227D007C00123DC422901079EFF0A3EDF0E40D
:2019A0009006DEF0901088F0ED700A901084F0A3744CF0802190107AE0FFB4010BE49010FF
:2019C00084F0A37409F0800EEFB4020A901084741AF0A3742FF0901084E0901081F09010B9
:2019E00085E0FF901081E0C39F4003021D79E5645407FFBF07047F0180027F00EF60030203
:201A00001D79901079E06012E562600E900B31E0600214F0122D88122D8DE5645407FFBF09
:201A200007047F0180027F00EF6003021D79901081E0FF123A18FC740193FD90107FECF0D0
:201A4000A3EDF0123A06FF740193901086CFF0A3EFF0901081E01239DD901083F05407F0BF
:201A600025E024FEF582E43458F583E493FF74019390107BCFF0A3EFF0ED4C700D9010862A
:201A8000E07002A3E07003021D79E4901082F0900B35E054FBF0901083E0FB604D24FD6055
:201AA0000E14600B24FE604214603F240570727E107F7DC006C0071239AD901087E02FFFD3
:201AC000901086E03EFE123A4E7402F0A3EBF0D007D00612433D1239AD121D7A7003A3E070
:201AE0006F6007901082E04402F07E107F7DC006C0079010861239B0123A4E7402F0901000
:201B000083E09010A3F0D007D00612433D123A78121D7A7003A3E06F6007901082E0440170
:201B2000F0123ABC900D3AE0FF901081E0FEB5070100900B35E030E203021D70901082E0E5
:201B40007003021D7075F005EE1239E054E064E07003021D70901083E0FF6008640760044D
:201B6000EFB406069010827403F07E0C7F72C006C00790109D120E720000008B9010A11278
:201B80003A34D007D00612433D901082E06403703E900C72E064BA7036A3E064BA703090FE
:201BA000107AE0FD700B902875E04401F0E04408F0EDB40109902875E04402F0805D90107A
:201BC0007AE064027055902875E04408F0804C90107AE0FD7011902875E054FEF0E054F779
:201BE000F0E054FDF0801FEDB4010D902875E054FDF0E054FEF0800E90107AE0B402079041
:201C00002875E054F7F07C287D7590108F7403F07B017A007F057E081202DF9006DEE0FF9A
:201C2000901083E0FE7401A806088002C333D8FC4F9006DEF090109B7410F074811239FF8B
:201C400004F0A37403F07FEA7E137D007C00123DC4901082E06403704B90107FE07004A346
:201C6000E06405703F7E0C7F72C006C00790109D120E7200000065123A577404F0A314F07E
:201C8000D007D00612433D7FED7ECA7DED7CCA900C72123A8EC3120D597003021D70124F1B
:201CA0001B021D70901082E024FE601D14606024026003021D70123A78E4FCFDC004C005C3
:201CC000C006C0071239AD80131239ADE4FCFDC004C005C006C007E0FEA3E0FFE490108D90
:201CE000120E66901087E02402FE901086E03400901091F0A3CEF0901083E0901093F0A3AE
:201D0000F0D007D006D005D00412478F021D70901083E060069010887401F0901081E012FD
:201D200039DD54E0FF90107DE4F0A3EFF090107DE0FEA3E0FFEE7021EF2460601724E0609D
:201D40002F24E0602B24A070101239C2123A9A1202DF801C122D928017123A78121D9D9077
:201D6000107BE0FEA3E0FF4E60061239B5121D9D901081E004F00219DE22E4FCFD901086E5
:201D8000E0FBA3E0901096CBF0A3EBF0901083E0901098F01244CA90107DE06E2290108678
:201DA000E0FCA3E0FD901083E0FB1251B0220000000077073096EE0E612C990951BA076DA6
:201DC000C419706AF48FE963A5359E6495A30EDB883279DCB8A4E0D5E91E97D2D98809B6D0
:201DE0004C2B7EB17CBDE7B82D0790BF1D911DB710646AB020F2F3B9714884BE41DE1ADA06
:201E0000D47D6DDDE4EBF4D4B55183D385C7136C9856646BA8C0FD62F97A8A65C9EC1401B9
:201E20005C4F63066CD9FA0F3D638D080DF53B6E20C84C69105ED56041E4A26771723C03D0
:201E4000E4D14B04D447D20D85FDA50AB56B35B5A8FA42B2986CDBBBC9D6ACBCF94032D8CF
:201E60006CE345DF5C75DCD60DCFABD13D5926D930AC51DE003AC8D75180BFD0611621B4EF
:201E8000F4B556B3C423CFBA9599B8BDA50F2802B89E5F058808C60CD9B2B10BE9242F6F91
:201EA0007C8758684C11C1611DABB6662D3D76DC419001DB710698D220BCEFD5102A71B1B6
:201EC000858906B6B51F9FBFE4A5E8B8D4337807C9A20F00F9349609A88EE10E98187F6A53
:201EE0000DBB086D3D2D91646C97E6635C016B6B51F41C6C6162856530D8F262004E6C0631
:201F000095ED1B01A57B8208F4C1F50FC45765B0D9C612B7E9508BBEB8EAFCB9887C62DD0C
:201F20001DDF15DA2D498CD37CF3FBD44C654DB261583AB551CEA3BC0074D4BB30E24ADF8F
:201F4000A5413DD895D7A4D1C46DD3D6F4FB4369E96A346ED9FCAD678846DA60B8D044047A
:201F60002D7333031DE5AA0A4C5FDD0D7CC95005713C270241AABE0B1010C90C20865768C2
:201F8000B525206F85B3B966D409CE61E49F5EDEF90E29D9C998B0D09822C7D7A8B459B30C
:201FA0003D172EB40D81B7BD5C3BC0BA6CADEDB883209ABFB3B603B6E20C74B1D29AEAD5BE
:201FC00047399DD277AF04DB261573DC1683E3630B1294643B840D6D6A3E7A6A5AA8E40ED6
:201FE000CF0B9309FF9D0A00AE277D079EB1F00F93448708A3D21E01F2686906C2FEF76242
:20200000575D806567CB196C36716E6B06E7FED41B7689D32BE010DA7A5A67DD4ACCF9B96F
:20202000DF6F8EBEEFF917B7BE4360B08ED5D6D6A3E8A1D1937E38D8C2C44FDFF252D1BB8E
:2020400067F1A6BC57673FB506DD48B2364BD80D2BDAAF0A1B4C36034AF641047A60DF60D5
:20206000EFC3A867DF55316E8EEF4669BE79CB61B38CBC66831A256FD2A05268E236CC0C8F
:202080007795BB0B4703220216B95505262FC5BA3BBEB2BD0B282BB45A925CB36A04C2D787
:2020A000FFA7B5D0CF312CD99E8B5BDEAE1D9B64C2B0EC63F226756AA39C026D930A9C091C
:2020C00006A9EB0E363F720767850500571395BF4A82E2B87A147BB12BAE0CB61B3892D249
:2020E0008E9BE5D5BE0D7CDCEFB70BDBDF2186D3D2D4F1D4E24268DDB3F81FDA836E81BE4D
:2021000016CDF6B9265B6FB077E118B7477788085AE6FF0F6A7066063BCA11010B5C8F6512
:202120009EFFF862AE69616BFFD3166CCF45A00AE278D70DD2EE4E0483543903B3C2A767CD
:202140002661D06016F74969474D3E6E77DBAED16A4AD9D65ADC40DF0B6637D83BF0A9BC30
:20216000AE53DEBB9EC547B2CF7F30B5FFE9BDBDF21CCABAC28A53B3933024B4A3A6BAD082
:202180003605CDD7069354DE572923D967BFB3667A2EC4614AB85D681B022A6F2B94B40B12
:2021A000BE37C30C8EA15A05DF1B2D02EF8D900C437403F0A374ACF07408900C47F0A3F04D
:2021C0007E007F647D007B017A0C7972121124E4901064F0125163901064E02472122F4252
:2021E000EFF0901064E004F0E0C3941E40E6122F997F021257D3E5F95407601DC374009495
:20220000CFFF740F9406CF2464CF3401FE122F4A902874E054FEF0800E7E0D7F31122F4A4D
:20222000902874E04401F09028B1E0542860530563E030E317902840E090283F7003F080C1
:2022400003741EF090284274ACF080339028B1E030E52F902866E07026902841E0FF6401DE
:20226000601DEF64026018902867E07012902873E0FEA3E020E50830E105E490283FF01207
:202280002FB3E4FF123895E4FF1211CC9028B1E030E309902843E07003122DB5122F99E562
:2022A000F95407701E902106E020E003022431E5645407FFBF07047F0180027F00EF7003FB
:2022C000022431E4901065F09006CFE0FF30E4359010657401F0EF54E79006CFF07F0212C5
:2022E00040997F021211CC12256D9006D0E0FF30E10354FDF0E4F56590076BF0A3F09007FD
:2023000064F0122DF69006CFE030E31B9010657401F07F0212409912256D9006CFE054F7B7
:20232000F0E4F565122DF6901065E06019122F997F587E021258317480F07F587E0212586B
:2023400031E4901065F0E5F9540770030224FFE5F95407D39402402A122F99E4901066F0E2
:20236000901066E0FFC3940C501074722F122F42E4F0901066E004F080E6122FCE122DBA01
:2023800080CD9006CFE0540760030224FF902866E0600214F0E4902867F0902866E07022E1
:2023A00090283FE0FF601B902841E0FE64016012EE6402600D902867E07007902874E030AB
:2023C000E503E48002EF14902880F09028B27420F0902846E06007E49028B3F08003122F4E
:2023E00088902843E07007902874E030E509902874E030E102800F902873E0FEA3E0FFEEB2
:2024000020E10330E0099028B2E04440F080079028B2E04480F0E5F9540770FA902874E0AD
:2024200030E0030224FF902200E04408F0000224FFE5F9540760030224FF902874E020E0A4
:2024400008902200E04408F0009006CFE0FF20E3030224D630E4030224FFE5645407FFBFC2
:2024600007047F0180027F00EF60030224FFE56564FC60030224FF902402F0122FB39007F6
:20248000687403F0122DB5122DA19007687402F0E490283FF0FDFF121997123FAE124A71DF
:2024A000122DFB122E007E0D7F64C006C00790109D120E720000072C122EB6122F16D00781
:2024C000D00612433D122DE77F011211CC9006CFE04410F080297F01124099900B31740220
:2024E000F0E4F5657F011257D31238959006CFE04408F0E56564DA6006E5F9540760F4E532
:2025000062600E900B31E0600214F0122D88122D8D122E05122E0A9006CFE020E403022247
:202520009C900A43E020E303122E0F9006D0E0FF20E131C390076CE0945890076BE094026C
:202540004022E4902876F0A3F0E5645407FEBE07047E0180027E00EE600302229CEF440254
:202560009006D0F0122E14122E1902229C7F021257D3123895222000001E922020001E921A
:202580002040001E922060001E922080001E9220A0001E9220C0001E9220E0001E922312C6
:2025A000003D92225000BD8A235100064A235900189223730005922100002892212A00282E
:2025C000922154002892217E00289221A800289221D200289221FC002892222600289223B5
:2025E0007A00078A238300048A238900028A238D00048A27260003860005006483008000E4
:202600000983008D007C83010B0019830126000583012D0005830134000E830200000F833B
:2026200002110003830216007883029000408302D200408303140040830356003683038E85
:2026400000108303A000048303A600148303BC00228303E000098303ED00068B03F500042D
:202660008B03FB000183070000068307080005B3070F0024830735000B930742000283078A
:2026800046000593074D000193075000029307540011830767000A83077300128307870001
:2026A0000683078F00029307930004930799000293079D00048307A300048307B100069452
:2026C00007A900069407B900069407C100069407C900318307FC0002830800000883080A43
:2026E00000048308100003830815000483081B000C830808080808050000400000004000B2
:202700000000400000004000000040000000400000004000000040000000400000004000B9
:20272000000000000000000000000000000000000000000000000000000000000000000099
:20274000000000000000000000000000000000000000000000000000000000000000000178
:202760000300000300000B4000500F00000210100000500500901078EFF0F4603DE0FF6467
:20278000FE6037EF64FD6032EFC3944C400302293AEF123A18F527740193F528123A06F5AD
:2027A0002D740193F52EEF1239DDF52C12293B700302293A123A5E0251B0E4F52B75F00520
:2027C000E52B123A1BF527740193F52875F005E52B123A0AF52D740193F52E75F005E52BAA
:2027E0001239E0F52C901078E0FFB4FF17E52C5418FE64087003022923EE64107003022924
:202800002302292EEFB4FE0EE52C54186410700302292302292E901078E064FD600302299B
:2028200023E52864054527700302292EE52864A07004E5276403700302292EE528645670CC
:2028400004E5276403700302292EE52864547004E5276407700302292EE52864877004E568
:20286000276407700302292EE52864804527700302292EE5287004E5276402700302292E12
:20288000E52864147004E5276403700302292EE52864A67004E5276403700302292EE52829
:2028A00064BC7004E5276403700302292EE5287004E52764076077E528640F7004E5276412
:2028C00007606BE528649D7004E5276407605FE52864A37004E52764076053E52864C97012
:2028E00004E52764076047E52864FC7004E5276407603BE52864347004E5276401602FE5C5
:202900002864117004E52764026023E52864167004E52764026017E52864427004E5276436
:2029200007600B12293B6006123A5E1251B0052BE52BC3944C50030227BD22532C07E52CB7
:2029400025E024FEF582E43458F583E493F529740193F52A9028B47480F0AB2CAD2EAC2D5A
:20296000AF28AE271251B0E52A4529223A70FA83BCAAE9E43E81E0F8BF9DE9E63F8000001E
:2029800039283C1ABB9969663DA335E3BF255DE73FC90FDB418DDBCCC44936EE45C9913FC7
:2029A000C5B0F83D3F800000C317F534452FFA73C60AFDDD122A7504A2E192101420E0151D
:2029C00090296C74041209908030122A7530E102B21020E0EBA883A982901083120E668906
:2029E00082888390298074041209908582F0901083120E2A85F0821206A1ED4C60073010FA
:202A000004EC6480FC22122A75C0E0A883A982901083120E66898288839029A4740312096F
:202A2000908582F0901083120E2A85F0821206A1901083E0CCF0A3E0CDF0A3E0CEF0A3E02F
:202A4000CFF09029947403120990D0828582F0901083120E2A85F082E58230E0071207AA5A
:202A6000B2108096EFCBFFEECAFEEDC9FDECC8FC1207AA8085ED33EC547FCC3392102460E0
:202A80005007D0E0D0E002097B7B837AF97922783E1206A1EDF933ECF83324815011EFFB5E
:202AA000EEFA12090F1208D1ECB2E7FC1205B0ED33EC33602F2403F8C313FCED92E7FDE8C7
:202AC0002481E4501FECF8EDF9EEFAEFFB12090FEF04C2E0FCF5821208DBECB2E7FC1205A3
:202AE000B0E58203FAED33EC3360071413FCED92E7FDEA227E057F007D007B017A0079009C
:202B0000121124900034120E72FFFFFFFF900038120E72FFFFFFFF90003C120E72FFFFFF6B
:202B2000FF7A2679F87BFFC002C00178407C007D01D001D0027E007F28120AAD900068123B
:202B40000E7200005B6E900080120E720070DB01900084120E7200001BAE900088120E7225
:202B60000000192C90008C120E72000009D8900090120E72016D24909000E0120E72434523
:202B800034339000E4120E72623032369000E8120E72313033639000FC120E72FFFFFFFFB3
:202BA000900110120E720000400090010C120E7200004000900108120E7200004000900137
:202BC00004120E7200004000900100120E7200004000900120120E720C000000900130129A
:202BE0000E720C00000090013C120E7200008000900140120E7240000000900144120E7260
:202C000000001800900148120E72000009D890014C120E7200000001900150120E72FFFF6F
:202C2000FFFF900154120E7200000001900158120E720000000190015C120E720000000122
:202C4000900160120E72000000017F141257687A0379FC1211247F301257687A04791412B6
:202C600011247E007FAC7DFF7B017A0479540211248E348F358C368D378A388B39E4F53C55
:202C8000D3E5399400E5389400406A7E00E535541FFF600B74209FF53BE49EF53A800675D0
:202CA0003A00753B20C3E539953BE538953A500685383A85393BAB3BAA3AAD37AC36AF35B3
:202CC000AE34124971EF423CE53C6002FF22E53B2535F535E53A3534F534E53B2537F53738
:202CE000E53A3536F536C3E539953BF539E538953AF538808BAF3C22EC30E703120D352293
:202D0000C008742DC0E0C082C08375080A75B60022C008742DC0E0C082C08375081B75B600
:202D20000122C008742DC0E0C082C08375082C75B60222C008742DC0E0C082C08375083DA2
:202D400075B60322C008742DC0E0C082C08375084E75B60422C008742DC0E0C082C0837576
:202D6000085F75B60522C008742DC0E0C082C08375087075B60622C008742DC0E0C082C0C1
:202D80008375088175B60722908000A11190AE38A11190BACFA13390B2B9A11190B2D1A126
:202DA0001190B82DA12290B775A12290B9D5A13390BA3EA13390B6B0A12290AC9EA1229017
:202DC000B5E4A13390AD58A11190B77BA13390A6F1A13390B73AA12290B6F5A12290AF86A7
:202DE000A1229097ECA13390BA77A133909E4FA12290B2A6A12290B269A11190A4C7A1228E
:202E000090AAE6A122908B9EA122908000A12290B9F9A13390B984A13390A4D4A13390B2AB
:202E200096A11190B235A11190A685A11190B18AA11190AEE8A11190B046A11190B1FAA14B
:202E40001190B734A13390AC76A11190ABC5A12290B7EBA12290B2C5A11190B2DDA11190DC
:202E6000B0F2A11190AA1EA11190A2DAA1119093A8A11190B84EA12200E4FBFAF9783F12C5
:202E800005B012090F901072120E66901072E0FCA3E0FDA3E0FEA3E022E4FFFEFDFCE0F875
:202EA000A3E0F9A3E0FAA3E0FB223420FEE4FCFD90109D120E669010A1E4F0A322EEF0A32C
:202EC000EFF090109B740CF07472A3F0A3E4F0A3227B017A0C797275F004E527A4F58285B1
:202EE000F0832278727C0C7D017B017E00020AADE4902405F0A3F0A3F0A374FFF0A374FCCE
:202F0000F0E4A3F0A3F090240074EAF0227C0C7D7290108FF0227404F0A314F02290108F7B
:202F20007403F07B047A00221206A1A804A905AA06AB077F697E507DA67C4A0207AA747262
:202F40002524F582E4340CF583227A0679CF7D007B01021124C2CDC2CED2BAD2BD9027000A
:202F60007403F0E4A3F0229BFFEE9AFEED99FDEC98FC020E667404F0A37402F02204F0A38E
:202F80007403F022902846F09028B37408F022901067120E66901067229028B47480F02299
:202FA000743FF0A37402F0227D017B017E007F04020AAD9006CFE04401F022F0A3F0A3F0DD
:202FC000A3F022E4A3F090240DF0902402227B017A0C79727D0C7C00221207AA02090FE467
:202FE000902842F0900B3DF02290108912338F74FFF52CF52BF52AF5291233178F31901053
:203000008C12330F8F32853133E533D395324003023146123398E533653160030230A9E50A
:2030200031700C9010891232B912332402307EE531B401189010891232B91233242530F5E8
:2030400030E52F3480F52FE4352E802BE531901089B4020F1232B91233242530F530E43565
:203060002F800E1232B91233242530F530E52F3480F52FE52E3401F52EE4352DF52DE533DC
:20308000901089B532141232B9FFAEF090108C1232B9C39FFFE5F09E803E1232B91233F481
:2030A000F52474809EF5238057E53365327037E532B401051233DE8016E532B4020512337F
:2030C000E9800C753000752F80752E01752D0090108C1232B9FFE5F0547FFEEF2401F52471
:2030E000E43EF523801AE533B401081233DE752380F524E533B402081233E9752380F5249E
:203100001233D38E258F261233D38C278D28AF30AE2FAD2EAC2D901093120E66901097E56A
:2031200025F0A3E526F0A3E527F0A3E528F0AF2CAE2BAD2AAC291235348F2C8E2B8D2A8C0B
:20314000290533023009123398AF2CAE2BAD2AAC29227E0C7F73C006C00790109D120E729C
:20316000000003AF122EB67403F0A3F0D007D00612433DE4900C72F0A3E0900C76F0900C6B
:2031800073540FF0900C76E0FFC4540FF05403F014600F147018901076120E7242C0000051
:2031A0008016901076120E723DC00000800A901076120E7240C000007A007983900083E039
:2031C00054FCF0C083C082E0FF900C76E0FEEF4ED082D083F07E0C7F727D041253AB9010DD
:2031E00072120E66901072122E99C3120D596016E47F307E75FDFC901072E0F8A3A3A3E009
:20320000D3120D59400A901072120E72000003E8901072122E9E7F807EEE7D367C00120CE2
:20322000A3900B39120E667E0D7F60C006C00790109D120E7200000728122EB6122F16D07F
:2032400007D00612433D122E8BFFE41208D1A804A905AA06AB07E4FFFE7D7A7C441207AA4F
:203260007B007A80791D78451206A1901076122E9E122F28122E79FF900084120E66E47FBB
:20328000D87E09FDFC901072122E9E120C18E41208D1901076122E9E122F287B7F7A507947
:2032A000A67833122FD9E41208D1122E79F56A8E698D688C672290108CE0FBA3E0FAA3E0B4
:2032C000F9900002020BE0F582E4340CF583E0FF90108FE0F8A3E0F9A3E0FAA3E06FFFEAA9
:2032E000FEE9FDE8FC90108F120E6690108FE0FCA3E0FDA3E0FEA3E0FF901DAE75F004EF10
:20330000120EE1E425E025E02583F583020E36E0FBA3E0FAA3E0F9120DA4780F120D6AEFC2
:203320005403FF22FFE5F0547FFEE48F308E2FF52EF52D22EB6FFFEA6EFEE96DFDE86CFC57
:20334000020E66E0FEA3E0FFE4FCFDAB37AA36A935A83422901098E0FBA3E0FAA3E0F922EE
:20336000E0FCA3E0FDA3E0FEA3E022E5372401F537E43536F536E43535F535E43534F534F6
:2033800022901093E0F8A3E0F9A3E0FAA3E022EBF0A3EAF0A3E9F0229028B47480F022906A
:2033A000108FA3A3A3E07808020D6A2FFFEA3EFEE93DFDE83CFC020E66EB6FFFEA6EFEE907
:2033C0006DFDE86CFC22547FFEEF2401F52AE43EF52922AE23AF247C007DC8020B5FE4F501
:2033E00030752F80F52EF52D22E4F530F52F752E01F52D22FFE5F0547FFEC3E49F22E4F517
:2034000037F536F535F53422E47FC8FEFDFC22001F1C1F1E1F1E1F1F1E1F1E1F0000000024
:20342000001F003B005A0078009700B500D400F301110130014E00000000001F003C005B05
:203440000079009800B600D500F401120131014F00000000001F003E005D007C009B00BABC
:2034600000D800F601140132015000000000016E02DB044805B50723089009FD0B6A0CD872
:203480000E450FB2111F128D13FA156716D4184219AF1B1C1C891DF71F6420D1223E23AC21
:2034A0002519268627F329602ACE2C3B2DA82F15308331F0335D34CA363837A539123A7F57
:2034C0003BED3D5A3EC7403441A2430F447C45E9475748C44A314B9E4D0C4E794FE651538A
:2034E00052C1542E559B5708587559E35B505CBD5E2A5F986105627263DF654D66BA6827BF
:2035000069946B026C6F6DDC6F4970B77224739174FE766C77D979467AB37C217D8E7EFBF3
:20352000806881D6834384B0861D878A88F88A658BD28D3F90108F120E661233FE901097D7
:20354000123343C3120D5940030235CFE537FFEF70031233987E0C7F72C006C007123408AF
:2035600012334B120C1812338190109D1233AB9010A1E4F0A374C8F0A37405F0D007D006F5
:2035800012433DE4F53BF53AF539F538123408AB3BAA3AA939A838C3120D59502C7472255F
:2035A0003B1232C7C00012339FD00090108F123334E53B2401F53BE4353AF53AE43539F56B
:2035C00039E43538F53802358C12336B02353D123381FBC000C001C002C0031234081233F3
:2035E0004B120C18D003D002D001D000EB9010931233AB7E0C7F72C006C007901093123376
:2036000060FF90109D120E66901099E0FFA3E09010A1CFF0A3EFF0A37405F0D007D00612A0
:20362000433D1233FE901099123343C3120D59501D747225371232C7C00012339FD000128B
:2036400033B990108F120E6612336B02362590108F123360FF22BE1249253E4CCCCDBEAAFE
:20366000AAAB3F8000003E7ADBB03EED63383F24BC7D3F490FDBED33ECC2E7CC339210B415
:20368000FF13ED547F600302097B7FDB7E0F7DC97C3F02376BC211C3947F401E7007EDD2A6
:2036A000E794904015EFFBEEFAEDF9ECF87F007E007D807C3F1207AAD211ED33EC332484CC
:2036C00030E705E4C0E0806B04FAEDD2E754F0C333DAFD540734002323C0E0CCC0E0F8EDE4
:2036E000C0E0F9EEC0E0FAEFC0E0FBE41208DBEC24FEFC9010B4120E661206A17B007A00B4
:203700007980783F1205B09010B4E0B2E7CCF0A3E0CDF0A3E0CEF0A3E0CFF0D0E0FBD0E08B
:20372000FAD0E0F9D0E0F81205B09010B4120E2A1207AA9010B4120E66903656740312098E
:20374000909010B4120E2A1206A1D0E0600F2462F582E43436F583120E361205B030110B37
:203760007BDB7A0F79C978BF1205B0ED33EC336006ECA21092E7FC229007FEE0FF90102F0D
:20378000600812558DE599F0800612558DE59CF0900F00E07002A3E070031255A7EF64012B
:2037A000706990105D7405F0900F02E0FD6406702D1255A7900A4DE07002A3E0600B900A76
:2037C000457401F0742012557E900DFFE07002A3E060057401125578E490105CF022ED6459
:2037E0001570281255A7900A44E0600CA37402F090102E7420125581900DFFE07002A3E020
:2038000070030238947402125578229007FEE0700D12559B7008900F02E0649970359007CA
:20382000FEE0FB701012559B600B900F02E0FFF46021EF601EEBB4010B900F02E0FFF460E1
:2038400012EF600FD3901030E0942790102FE094014006E41255A78017900F00E4F0A3741D
:2038600028F0901030E004F0700690102FE004F090102FE07002A3E0601A9007FEE0901040
:2038800038700BE054EFF04420F05398EF22125585539BEF22AC07EC147003023932146020
:2038A00062240260030239A29028B0E054CC70187E287F4C7D1A125792EF700C7E287F4776
:2038C0007D05125792EF6017122EF000122FC37480F0E490240CF0902456F0A3F0A3F0E455
:2038E000F580F590F5A0F5B01239A3E4902446F0A3F01254D0E4902437F075B92C75A906D2
:20390000122F55902456E054F9F09024027480F0C28CC28EE4F588F587F5D8F598AF0412B6
:203920002DA6902502740EF0A3F0E4902434F0C2AF22C2AF122EF0122FC3F090240CF090D4
:2039400024567404F0A3E054C0F0E4A3F043B0111239A3AF04122DA6E4902437F01254D008
:2039600075B92C75A90E122F55758911758CF8F58AD2A9D28CC2ABC28E43878043D88075B4
:203980009B90759A01C2AAC2A8539BFC759A01759850D2AC75E80875F81F122DAB122DB077
:2039A000D2AF2290270C7420F01258BD2290107BE0FEA3E0FF901080E02FFF90107FE03EEE
:2039C000FE227A2679F27F0678727C0C7D017BFF7E00120AAD7C0C7D7290108F2275F00554
:2039E000A4247AF582E5F03425F583E49322FFE4933400FEE4FCFD90109B740CF07472A316
:203A0000F0A3E4F0A322EF75F005A42478F582E5F03425F583E4932275F005A42476F5820C
:203A2000E5F03425F583E4932290109B740CF0A3747DF0A3E4F0A37402F0A304F022746407
:203A4000F0A37403F07F057E007D007C0022E4FCFD90109D120E669010A1E4F0A322E528C8
:203A6000252AFFE5273529FEAB2CAD2EAC2D227F027DBA7B0102112490107FE0FEA3E0FFF9
:203A80002274722536F582E4340CAF82FE22E0F8A3E0F9A3E0FAA3E0FB227402F07B067A05
:203AA000007F517E232278727C0C7D017BFF7E00227C0C7D727B027A007F8B229028B474EF
:203AC00080F02290108912338F85B63290108FE06018900EDEE070028010900EDA123360E8
:203AE000F52E8E2D8D2C8C2B800A74FFF52EF52DF52CF52B90108912330F8F2F90108C127C
:203B0000330F8F30852F31E531D395304003023BB2123398E531652F70459010891232B97D
:203B2000FFE5F0547FF5278F28E531B530141232C1FFAEF01232B6C39FFFE5F09E1233C681
:203B400080109010891232B91233F4F52A74809EF529E42528F52874803527F5278022E566
:203B600031B530117527807528001232B6FFE5F01233C6800C752780752800752980752A8A
:203B800000AF31123BBBAA27A9287BFF901097E529F0A3E52AF0124B678F2E8E2D8D2C8CC9
:203BA0002B90108FE06006900EDA120E660531023B07123398AF32123BBB221258D7AF2EE7
:203BC000AE2DAD2CAC2B22C0E0C0F0C083C082C0D075D01820E903023C719006CFE020E472
:203BE00003023C6CE56BB45305C280756C28900D5EE07002A3E0600E900D5FE024FFF090B4
:203C00000D5EE034FFF01255D96061EF6403605CEF64046057900D5EE07002A3E0704D90F8
:203C20000B35E030E546900D72E0FFA3E0900D5ECFF0A3EFF0E5645407FFBF07047F0180EF
:203C4000027F00EF70261255C86021902873E0A330E5191255AE7006C281D285800B78307A
:203C60001255B07004D281D285756C2875E8FD056330E83475E8FEE56670117C067D3F7A19
:203C8000027B007F24125322056280021566300017C2007A007983900083E0543FF0E0FF45
:203CA000E52054C0FEEF4EF030EA0375E8FB30EC0375E8EFE5E854176003023BD4D0D0D0C4
:203CC00082D083D0F0D0E032AD07902109E07F0025E025E0FEED2FFFE43EFE85B62875B6CF
:203CE00001ED120EED3DA4803D19833D778A3D62903DA4923DA4943D62983D409A3D409DD2
:203D00003DA49E3DA4A03DA4A23DA4A43DA4A63D62A83D62AA00003D3512581212581FA36A
:203D2000E030E60444C08025E4901097F0A3E0543FF0023DB8125812FF901097E4023DAF54
:203D400012581212581FA3E030E70A4480FF90109774FF803DE4901097F0A3E0547FF0023D
:203D60003DB8125812FF740193901097CFF0EF125826E0541F8027125812FD740193CD12FC
:203D80005821E0FCA3E0FDEC30E40D44F0AF05901097F0A3EFF08020901097E0540FF0A303
:203DA000E0F08014125812FF740193901097CFF0A3EFF0E490270BF08528B6901097E0FE96
:203DC000A3E0FF22901097120E6690109DE07002A3E07002FF2290109FE0FF64036009EF00
:203DE00064046004EFB4070B902873E0A330E0037FFF22758CF8E4F58AFE7FC8FD7B017A4D
:203E00001079A0121124E4F53190109FE064056074E531600812417F123E9070F8E4F53328
:203E20007E107FA0C006C00712417F90116E120E6690109D1241D890109FE0901174F0D085
:203E400007D006124EBCEF70D790109DE0FEA3E0FF90109B7A1079A012423B8F32E53260F1
:203E600004053180090533E533C3940240B2124234E5326006E53164DA7096E53164DA70C1
:203E80000C1242542212417F123E9070F87F0022A3E0FBA3E090116CCBF0A3EBF090109D0D
:203EA000E0FBA3E090116ECBF0A3EBF090109FE0901170F0124DF8EF22C0E0C0F0C083C081
:203EC00082C0D075D010758CF8758A001255D9605FEF6403605AEF64046055900D6AE07011
:203EE00010900B36E0600214F0900B36E07002D2A29006CFE030E438E56C6401702CE56BD1
:203F0000B45302D280902873E030E51E1255AE7006D281D28580131255C8E4FBFAF9783097
:203F2000C3120D597004C281D285E56C6002156C90076BE0F47003A3E0F4601FE564540721
:203F4000FFBF07047F0180027F00EF700E90076CE004F0700690076BE004F0900F00E07098
:203F600002A3E0600E900F01E024FFF0900F00E034FFF0901031E07002A3E0600E90103233
:203F8000E024FFF0901031E034FFF0900C21E07002A3E0600E900C22E024FFF0900C21E00C
:203FA00034FFF0D0D0D082D083D0F0D0E032E4F524F523900B35E054FBF07C00124087FF9F
:203FC000B4BA09A3E064BA7003024086EF64AB7020900C73E064AB7018FE7A0C7972123ABF
:203FE0006F123AB17E00122C71123AB17E09022C717C09124087B4BA09A3E064BA7003021A
:2040000040860523E523C3940340A8900B35E020E2747E0C7F72C006C00790109D120E726B
:2040200000000080123A57740DF0A37403F0D007D00612433D900C7DE0B4BA06A3E064BA95
:2040400060447A277965123AA67F101239D27403F07B0D7A007FA6FE1202DF7E007F107D96
:20406000307B017A0C79721211241239D57403F07B107A007F8EFE1202DF1239C2123A9A5F
:204080001202DF12545E227E0C7F727B027A007D8B1248DD900C72E022EF24FE70030241BF
:2040A0004104600302416C12416D122D97122D9C007E4F7F79124D2B124FCF902873E0A30B
:2040C00030E003122DA17E0D7F60C006C00790109D120E7200000728122EB6122F16D007D4
:2040E000D00612433D900D60A3A3A3E05410FFE4FEFDFCEF600790210CE04401F0122AF4FC
:2041000074E01313543F902109F09027047430F0902709743DF0900080120E720040DA215B
:204120007F5B7E001254977F537E001249F3756601E4F562F564902106E04401F075E8FEF5
:2041400022122D97122D9C12416DE4F564F0902100F0902502740EF0A3F0902709E054C787
:20416000F0902704E054CFF0E04440F022902106E054FEF07FFF1258F47FFF1258F42290E8
:204180001097E0FCA3E0FDA3E0FEA3E0FF22FCFDE0FBA3E090109BCBF0A3EBF090108DE01F
:2041A000FBA3E090109DCBF0A3EBF022E0F8A3E0F9A3E0FAA3E0FB901095E0FEA3E0FFE421
:2041C000FCFDEB2FFFEA3EFEED39FDEC38FC2290116E120E669010A1E0FFA3E0901172CF28
:2041E000F0A3EFF02290116EA3A3E0FEA3E0FDAC06A3E0FAA3E0FB90116CE0FEA3E022EE4D
:20420000F0A3EFF0A3ECF0A3EDF0A322E4FCFD90109B740CF0A37472F0227E007FC87D0003
:204220007B01021124120EE1EE75F005A42583F583E493229028B47480F022E0FCA3E0F84C
:204240007D017B01021100A3E0FCA3E0FDA3E0FAA3E0FB22900B35E04404F07FFF222D433D
:204260004C4541522D2D0018100103243103555A5B248131890003032000044F0101005503
:20428000552020044F010200935A2020044F010201035B2020044F01020024242080044F80
:2042A000020500313120A0044F020601248120C0044F020701318920E0044F02080033331A
:2042C000036D046000888888000004001F00AFAF079901606000FCFC426703200000C0C04C
:2042E00006FA43000A00C1C106FD43000A00C2C2070043000A00C3C306EE43000500C4C47D
:2043000006F143000500C5C506F443000500C6C6070C63000600C7C7071063000600C8C8EC
:20432000071463000600C9C9071863000700CACA071C63000700CBCB072063000790109B5B
:20434000EEF0A3EFF09010A1E07002A3E07002FF22900B35E020E3047F0180027F00E5F93E
:20436000540770047E0180027E00EE5F6003124FCF9010A3E0FF64036009EF64046004EF73
:20438000B4070B902873E0A330E0037FFF227A1079A412421AE4F53C12423490109D1241B4
:2043A000821241CF9010A3E0901174F090109BE0FEA3E0FF124EBCEF70E17E107FA4C006C3
:2043C000C00790109D1241821241CF9010A3E0901174F0D007D006124EBCEF70DD9010A174
:2043E000E0FEA3E0FF90109B7A1079A412423B8F3DE53D6002053CE53D6006E53C64DA7004
:2044000097E53CB4DA04124254227F0022C0E0C083C082C0D075D010758DFF758B5612551F
:20442000D970030244C1EF640370030244C1EF640470030244C1900B34E0FF20E30302448E
:20444000C1900C24E0FE14F0EE6021E0C394014017900C23E0FE30E004D2A28002C2A2EE02
:20446000C313900C23F08059D2A28055900C27E0FE900C26E004F0C39E502AE0C3943850C4
:2044800024900C247409F0900C26E024E5F582E4340BF583E0900C23F0C28F758DFF758B2D
:2044A00056C2A2801CD2A2C2ABC28EC28FEF54F7900B34F0900C1FE0FFA3E0A3CFF0A3EF1A
:2044C000F0D0D0D082D083D0E032901092120E667531A575325A7535007536A8901096E0AE
:2044E000FEA3E0FF4E700302457EC3EF9420EE9400400875330075342080048E338F3412FB
:204500003A81C006C007901092E0FCA3E0FDA3E0FEA3E0FF90109D120E669010A1E533F0B6
:20452000A3E534F0901098E09010A3F0D007D00612433D123A81AD34AC331256CBEF24A6CC
:20454000FFEE345AFEEF2532F532EE3531F531901092123A8EE4FCFDEB2534FFEA3533FE7F
:20456000ED39FDEC38FC901092120E66C3901097E09534F0901096E09533F00244DCAE31DE
:20458000AF3222901076120E72000000007E0C7F72C006C00790109D120E7200000209127C
:2045A0002EB67402F0A304F0D007D00612433D7E0C7F7212584FE4FCFD901076120E66E44A
:2045C000FFFEFDFC901076122E9EC3120D59700A901076120E720000001E90210BE0FF7E5D
:2045E000007C0F7DA0120F4DE41208D1E4FBFA7996784A1207AA901072120E6690107612A9
:204600002E8EFFE41208D1901072122E9E1207AAE4FBFA798078BF1205B0E4FBFAF9784003
:20462000122FD9EF4E7003FE7F42EE60027F4290210AEFF022150915099007FEE0FDB401C1
:204640000D900B34E030E10654FDF00246DE90102EE0C394025004000246DEEDB4010FA846
:2046600009760108760290105D7405F0800A12559BA8097601087602A809E6FE08E6FF908E
:20468000102FE0FCA3E0FDC39FEC9E402990102E7401F0E4A3F0A3F090105C7428F09010C5
:2046A00038E054CFF043981090105BE07003439B1043B01180289007FEE0600B74022D1267
:2046C0005593E0F599800974022D125593E0F59C901030E004F0700690102FE004F0050922
:2046E00005092202097B22EDA2E7D2E7F9EC3340F260F3B4FF08ED547F70E8020985F82497
:2047000081C2E0C0E0F40428FAC313FCED92E7FD9010B4120E66EEA2E7E9BA7F02C3133408
:20472000009400FA75F091A4E5F013F494FE8AF0A433E5F033248CD313FDE492E7FE7F001D
:204740007C3F758302ECC0E0F8EDC0E0F9EEC0E0FAEFC0E0FB8583F09010B4120E0E85F099
:20476000831207AAD0E0FBD0E0FAD0E0F9D0E0F81205B0ED6480FD30E7011CD583C7ED3345
:20478000CC33F8D0E0A2E71328C313CC13FD22901089120E66901091E0FEA3E0FF4E7003D9
:2047A000024838D3EF94C8EE94009010954008E4F0A374C8F08005EEF0A3EFF07E0C7F7257
:2047C000C006C00790108D12418290109D120E66901095E0FFA3E09010A1CFF0A3EFF090DE
:2047E0001094E09010A3F0D007D00612433D90108912418212420F90109512419F90109308
:20480000E090109FF0123DC49010891241AC901089120E6690108D1241AC90108D120E66C0
:20482000901095E0FEA3E0FFC3901092E09FF0901091E09EF00247952290106F12567CA34A
:20484000ECF0A3EDF0A3E0C39DE49C40030248DCE4901075F0A3F0901074E0FFC312568511
:204860009400FE901075E0FCA3E0FDC39FEC9E5032901074E0FF7E00ED2FFFEE3CFE901073
:204880006F125674F98F828E83120AEC8D828C83120B2B901076E004F070BC901075E00435
:2048A000F080B4901074E0FFA3E4F0A3EFF0901075E0FEA3E0FFD39400EE9400401E1256C4
:2048C000859EFE90106F125674125696901076E024FFF0901075E034FFF080D2228E3E8FDE
:2048E0003F8C408D41902873E030E0037F0022E540C413540644A0FDE4FC12588DAF05124C
:204900005643500CECC394DA50061258870C80EDECC394DA40028024E540543FFCFF1256A7
:204920004350028017AC41AF041256435002800C12588DED4401FF125643500612000E7F5A
:20494000FF22EB1BAE0270011A4E601FEB4A6003C38001D39212125541853F82853E83EFB2
:20496000F0053FE53F70DB053E80D712000E7F00228E3D8F3E8C3F8D40E4FD902873E030ED
:20498000E0037F0022E53DC413540644A0FCE4F912588DAF04125643500CE9C394DA500662
:2049A0001258870980EDE9C394DA40028016E53D543FF9FF12564350028009A93EAF0112C2
:2049C0005643500612000E7FFF22EB1BAE0270011A4E6019854082853F83E0FF125643E424
:2049E0003342050540E54070E1053F80DD12000EAF0522AD07AC06E41208D67BD97A8979E1
:204A00001D78451206A1E4FBFA797A78441207AAE4FBFAF9783F1205B012090F122F8F125C
:204A20002E8EFF7808120D91122F8F122E99C3120D59700A901067120E720000DA0090101A
:204A400067122E9E900080E0FCA3E0FDA3A3E0FFED54F0FDEB4FFFEAFEE94DFDE84CFC12BC
:204A60002F8F122E8EFF900080122F92122E8EFF227E0C7F72C006C00790109D120E720002
:204A8000000005122EB67466F0A37403F0D007D00612433DE4F527122ED1120DC4E41B7A9B
:204AA0002FF9F8D3120D5950130B122ED3120DC4E41B7A5FF9F8C3120D59500A122ED112A6
:204AC0000EBD000040000527E527B40ACA7C007D407A0C7B727F0A1254257C007D947A0C38
:204AE0007B9A7F0D1254251245830231528C838D828A858984BB0132A2AFC2AF759201E059
:204B0000A3759200F0A3759201E0A3759200F0A3759201E0A3759200F0A3759201E0A3750E
:204B20009200F0A392AFDFD0803CBBFE0280C9BBFF34A2AFC2AF759201E493A3759200F0D7
:204B4000A3759201E493A3759200F0A3759201E493A3759200F0A3759201E493A375920011
:204B6000F0A392AFDFCC22901090120E6690109412338FE4F533F534D3901098E09534905D
:204B80001097E095334050E533540F45347003123398901094123357853482853383120A90
:204BA000ECFF9010901233846FFFEAFEE9FDE8FC901090120E669010901232EEC000901079
:204BC000901233A2D0009010901233340534E53470A60533024B78901090123360FF2290FA
:204BE000109712567C90109BE0FFED8FF084C313F53EE4F53AE53AC3953E5055E4F53B9006
:204C0000109BE0FFE53BC39F5043E53A8FF0A4253BF53C901097125674F9853C82125690DB
:204C2000F539E53A048FF0A4FFC3ED9F253BF53DF582125690853C82758300120B2B853D6C
:204C400082758300E539120B2B053B80B2053A80A42290108E1241FFEBF07A0C797212425D
:204C60001A901090E0FEA3E0FF4E6055D3EF94C8EE94004008752F007530C880048E2F8FBE
:204C80003012423490108EE0FEA3E0FF12420CA3E52FF0A3E530F0901092E090109FF012CC
:204CA0003DC490108FE02530F090108EE0352FF0C3901091E09530F0901090E0952FF08070
:204CC000A02290106F12567C901074E0C39DE49C5058ED24FFFFEC34FFFE901074E0FD7C0A
:204CE00000C3EF9DEE9C4022EF9DFDEE9CFC90106F125674F98D828C83120AEC8F828E833E
:204D0000120B2BEF1F70D31E80D0E4FEFF901074E0FDC3EF9DEE9400501090106F1256749E
:204D20001256960FBF00010E80E322AD07AC060DEDAE0470010C12574B12575E70010C127A
:204D4000574B125753604A8523258524260DEDAE0470010C12574B12575E70010C12574BDA
:204D6000125753602CE524452360C40DEDAE0470010C12574BFF0526E526AA2570020525D9
:204D800014F5828A83EFF0E524152470D8152380D42290109812338F90109E74FFF5F012B0
:204DA0000BCA45F0605190109BE0FBA3E475F001120BCAA9F0FA120AD3FFE4FCFDFE1233AD
:204DC00054120E46EF6BFFEAFEE9FDE8FC1232F9C000C001C002C003123354120DA47808EF
:204DE000120D6AD003D002D001D0001233B9123354120DF4024D9822901168120E66901101
:204E000070E024FB6054240324FA50142408704A901168A31241871242471200267F0022E6
:204E2000902437E030E003D38001C34020900A76E0FEA3E0FFEE94F04009D3EF9402EE9418
:204E4000F0400A902875E030E3037F0022901168A3124187124247022C717FFF22901092C2
:204E6000EDF0E4F531E5311239DD5407FF901092E06F703BE531123A18F534740193F535B2
:204E8000E531123A07F532740193F533AE02AF01C3EF9535EE95344016E5352533FDE534E1
:204EA0003532FCC3EF9DEE9C5005AF317E00220531E531644C70AE7EFF7FFF2290116CEEAF
:204EC000F0A3EFF0901174E014601824FC6049240324FA503C2408703F1241E5FF120026FB
:204EE0007F0022901172E0FEA3E0FFC00690116EA3A3E0FEA3E0AA06F97BFFC0021241F7F3
:204F0000AA06F8AC027D01D002D006120AAD7F00221241E5FF0248DD7FFF22123ABC7A2605
:204F200079F8123AA67F64120AAD1239F7123A3E124F6F24051239EE7464F0A37403F01280
:204F40003DC4901096E4F0A3123A3E1244CA900C72EEF0A3EFF01239F7123A377F69123A92
:204F600047124F6F24691239EE123A37023DC4123DC4905904740193222100001201000070
:204F8000A981A0A409D803425D1A000001020322000001102450000900004000000004000C
:204FA000002500000500000E0E402700000503000000302709000485550020288000010134
:204FC00028B200022008210000016100000000902873E054FEF0E4F9123ABCE5645407FF75
:204FE000BF07047F0180027F00EF70357E0C7F727B017A007DFF7C3F1248DDEF600509E9AD
:20500000B40AD5E9C3940A400A902873E04401F0A3E0F0902873E054FDF0900B35E044086E
:20502000F02290107912567CAE05E4FFEFC39E502AEF2401FDE433FC125671F98D828C83ED
:20504000120AECC4540FFD8F82125690C454F02D8F82758300120B2B0F80D1AF06EF24FF6E
:20506000FFE434FFFE1256712FF9EA3EFA120AD354F0020B19C0E0C083C082C0D075D000A6
:20508000C000C003C004C005C006C007E59830E00E5398FE9007FE7401F01237788011E5C2
:2050A0009830E10C5398FD9007FE7401F0124635D007D006D005D004D003D000D0D0D082E1
:2050C000D083D0E0320728000403081000020302010001030787000603020300010302118E
:2050E0000001030216004003074200010303510001030314003D030134000203080A000405
:2051000003079D000403079D00140300860002030755000E03C0E0C083C082C0D075D00034
:20512000C000C003C004C005C006C007E59B30E00D539BFE9007FEE4F01237788010E59B13
:2051400030E10B539BFD9007FEE4F0124635D007D006D005D004D003D000D0D0D082D08314
:20516000D0E032900A51120E0E7810EC4D4E4F70047CA57DA5C3EC13FCED13FDEE13FEEF76
:2051800013FF5010EC64CCFCED644CFDEE644EFEEF64CEFFD8DF900A51120E66EE547FFE46
:2051A00022900A51EEF0EFA3F0A374A5F0A3F0229010891241FFEBF0901089E0FEA3E0FF42
:2051C000A3E0FCA3E0FD124C52900C7274A5F0A3745AF090108BE0FEA3E0FF90108AE02FE4
:2051E000FF901089E03EFE12420CA3E4F0A37402F090108DE090109FF0023DC4901079ED46
:20520000F0901079E0FFD3940040357E0074FE2FF582EE34FFF583120AECC454F0FDEF247B
:20522000FFFFEE34FFFE8F82F583120AECC4540F2D8F828E83120B2B901079E014F080C1C4
:20524000120AD3540F020B198E238F248C258D267D01EDD39B503AED2526FFE43525CF2443
:20526000FFF528EF34FFF527852882F583E0C412591D7002052314F582EFF0852882852722
:2052800083E012591D7002052314F582EFF00D80C122ECC0E0F8EDC0E0F9EEC0E0FAEFC06E
:2052A000E0FB1206A1EC6480FC7B007A007980783F1205B01246E7D0E0FBD0E0FAD0E0F9E5
:2052C000D0E0F8C0E01207AA123676D0E030E70B784079497A0F7BD91205B0228E838F82D1
:2052E000E4FCFDFEFF7A20E55D33F55DE55C33F55CE55B33F55BE55A33F55AEF3FD4FFEE3B
:205300003ED4FEED3DD4FDEC3CD4FCDADAE55EB403047C008003ECF0A3EDF0A3EEF0A3EF6A
:20532000F022C085C084C0928C838D828A858B84A2AFC2AF759201E0A3759200F0A3759256
:2053400001E0A3759200F0A3759201E0A3759200F0A3759201E0A3759200F0A392AFDFD0F5
:20536000D092D084D08522C2D5E830E70FB2D5E4C39BFBE49AFAE499F9E498F8EC30E7171B
:20538000B2D512539D120CA3E4C39BFBE49AFAE499F9E498F88003120CA330D50DE4C39F88
:2053A000FFE49EFEE49DFDE49CFC228F018E008E838F82A3A3AE83AF82BD040912584F7C6B
:2053C000277D10800BE012005CFF7E007C007D64EEC8FEEFC9FF12584F12569FE92FFFE83C
:2053E0003EFEE43DFDE43CFC2246503630323038563032523030314D303031283138313014
:205400003230313129504D33344544414C535444433030314D33344544414C53544443309E
:2054200030311810018C838D828A858B84A2AFC2AF759201E0A3759200F0A3759201E0A334
:20544000759200F0A3759201E0A3759200F0A3759201E0A3759200F0A392AFDFD0227A27B5
:20546000795C7F091239C87403F07B097A007F807E001202DF7E007A0C797D123A6F123AE6
:20548000297F8B123A47123DC4123A297F8B7E097D007C00023DC4AD07AC06E41208D67B7C
:2054A000F47AFD79B4783F1206A17BB57A0179907836122FD9901067120E66901067122E94
:2054C0008EFF900090120E66901067122E8EFF22D294D295D296D297D2A4D2A7D2B5D2B607
:2054E000D2B79024207402F0A3F0902430F0A3F0A3F0902435F0A3F0902438122FBBA31253
:205500002FBB902444F0A3F0225310530013EB0CCA5410540013F50CCA68C18D0000860C9C
:20552000C267C00400036C0CC514004C0000110CC4C8CA080003AC0CC2C900000110630C9D
:20554000017F08E4FEC287C286EE25E0FE0030830543060180035306FED286C28200DFE721
:20556000201206D287C2838002C287C28600D286C28200C287AF0622900E03F074309010B1
:205580002EF0901038E054DFF04410F022E0FCA3E02402F582740F3CF58322900D60A3E0D7
:2055A000FDED5402FDED2290102FF0A3F0227838900D60E0FCA3A3A3E4FFFEFDEC5438FC67
:2055C000E4FBFAF9C3020D59900D60E0FCA3A3A3E4FFFEFDEC5438FC22901063E0FF640250
:2055E000228F828E83ED2582F582E43583F5831256017A01C3E03AD4F01256017A00DDF50E
:2056000022E58215827002158322E584158470021585228E838F828C858D84C0A8C2AF8B66
:2056200002759201A3759200A3DAF6C375920112560AE0FA759200125601E03AD4F0DBEC17
:20564000D0A8227E08EF30E704C2878004D287C28300C286EF25E0FF00D286C282DEE6C258
:2056600087C28600A2839210D286C282C287A21022901079E0FBA3E0FAA3E022EBF0A3EA5D
:20568000F0A3E9F022901073E09FFF901072E022758300020AECF98F828E83E4020B2B8E22
:2056A000028F03ED8BF0A4AEF0FFED8AF0A42EFEE435F0FDEC8BF0A42EFEED35F0FDE43313
:2056C000CC8AF0A42DFDEC35F0FC227558A575595AED4C601D0FEFAA0670010E14F5828AF5
:2056E00083E02559F559E43558F558ED1D70E21C80DFAE58AF5922010204081020408010A7
:2057000020408000010002000400080010002000400080010002000400080010002000402B
:20572000008000C0E0C083C08230FE18C2FE900B363008057404F080037407F0C2A2758CF5
:20574000F8758A00D082D083D0E03214F5828E83E49322FBE524F523EBF524452322752354
:2057600000F5240DEDAE04227E007DFF7B0122F560B6F263D3D770F7F377C795E69717D50A
:20578000C637060687E50002851546E4E36768BEFA6BE4F528F529E529C39D50130FEFAA61
:2057A0000670010E14F5828A83E06228052980E7AF28228F828E83ED2582F582E43583F516
:2057C000831256017A99C3E03AD4F01256017A99DDF522E4F58EEF600E24FE600A047012E3
:2057E000E5F930E4FB8005E5F930E4FB9022007410F0228E838F82E4FEFF7A10ED33FDEC6C
:2058000033FCEF3FD4FFEE3ED4FEDAF0EEF0A3EFF02290270B7401F08F828E83E49322FD2F
:20582000E4901097F0EDA3F0E490270BF090109722EF1FAA0670011E4A60137DFFAC051D9A
:20584000EC60EEE5F95407C3940240F180E3228E838F82E0FEA3E0FFEF12005CFFEE1200E8
:205860005C75F064A42FFFE435F0FE22E4FEEFC3940A5006EF2430FE800AEFC3940A400421
:20588000EF2437FEAF062212000E12001EC287C2867F041258F41258EED286C2827F0402AE
:2058A00058F4C0E0C083C082900203E0F564E56564FC60020565D082D083D0E03290240BED
:2058C000E0549FF0902458E0547FF090270CE04420F0C287C28622EF8004EB14543F9058BF
:2058E000E693902D00730A1B2C3D4E5F7081D287C2837F04AE071FEE60030080F7220000F4
:205900000000039309000740000000000000EF75F06484740AC5F084C445F0FF22540FFF32
:2059200012586C0524E52485238322ED33EC3360065004EC6480FC22DDB45AD35967108B12
:20594000E8D99A876745DF6213C028929F07D549847B4F9A996A3DDDE390FB54AEDE470F7E
:20596000DC7A3E0C7E0688A3A125CF216A3B75B4667586871B0AEB2DE3C0E143FAB1AA51C2
:20598000D54F82F2B5A6D5357DE1AF42C01074411F28D177D24BF2B2844AF6E86469A01BB2
:2059A00079624F7F35AC30DF4EFCB23DC90D3AB9589D19B4E5B8BB346F38208A158D903348
:2059C00070BA8BFD26A0006ABC7FBF59ACBA2FE3B8DA44847DD6AC7B4B92497334A5E4628E
:2059E000635F20B2B00BAC9F7171BDE0929FBC89E8E93B30C22F2E4EC15E58E9EA39037079
:205A0000FA5AF4E7F9739E4312DA9618A24547718FD2E7FFDB4AAA7779A635355FD2552510
:205A2000DCB2F1E32C633D214AC3314A05333A64569B2F3BF1AF86BC1A71C89FBAF742494E
:205A4000B26FFEF06F60F100BE3376BDE2F1FB2AE54EFA2A2BE72CE64DC8F96E243132A33A
:205A6000239A0254EAF422A719324DBB6208F48BE3F23216B27902BDB9B2B0ECC4078DFCCE
:205A8000D839E758C7A638DF01C89E8AADFF8B4FF890BE45ADED72080737D55FC301BB1C0F
:205AA000785794442BFE9B701EFE5173EA5E2A3DCD2F860045CCE291DE5F501048A724CBFB
:205AC000ACF9F1604085B4221ADB4EBE42AE381F0AD7728EA29CBC1EE73309477C8231D18A
:205AE0001C29E6F32EC2E9BD9A677DB3DC751DBB57906A39EBE86778C9BAE84C861948F5C9
:205B00006FEE5B471D3EA30849ABC79AE13E40D95A63564749354B672DFCD6668FF4D300AE
:205B20004E5138A2347F4BCCCCAE12BA788E0B43BE571E01E30DD0B2BB02B9DEBF9C38BB40
:205B40006058654D9B0F47D1CE79485CCAEFE5C02975AAAFE2F75E231AD37BFC3D98E1EB7A
:205B60004E0DCA907B7601DFF5124FC8FEE8361744C4E2996D7C5D80F37702083270345B60
:205B8000BF7850B2FC3ADFBEE98311463D026711B64CAF06AD223592EDF7384AC5AD9BD2ED
:205BA0005CA0DDFD45E54B3553D4741EAFC3DE762715F740C9744E21B15A030A1FD67D1726
:205BC000CD8D5AB77FFFAC0EDB0B62977BB5040E4128A48DEAF711F5E6A84D8F677341F308
:205BE000B947B029D10E6A0F2832C2FACA6041A0A98C9C363835E4D535EAFD22C60D512E96
:205C0000C8D7C59B649CED01E3507B8FC34BFEF60A49C982DAB5308A4627FB0B642B1490CB
:205C2000A34483555F309CABB36E779E8FFEA1D60A6811BBF9FF5EDDC0672F926855F2E1AC
:205C4000F296D19EEB53E1D741939D6F5501940951F05E27BC9CD4934CB281FFFB1353E838
:205C60005CD596C0308B234B35C7D54A3EDD3D5788E997104C13FC779111D99944EE9F6E6D
:205C80008A0ABC015563CBD03612077672190687575BA4BCD0EC3D50388B1FA96C6D3E3B4B
:205CA000243D2AAA83603F2EEC7D1B3C183D5663654F6D7471B0FEE5E8293B779A199917D2
:205CC000D174C802E10CE82D000FFAE458D194B15BCCD97F57E6A9FF4AF2154BF77816CA09
:205CE00039B97E5398EE2E951AD18AB65B5E2A3AE0DBD227A916A56605EE956DAB141E1BE5
:205D0000051334E3CF8E7A2DE1C9B4F9496C7FC69D8340B290C85AE2C225A424DD751AD36B
:205D2000DD8BD2FCAF7532BEFE0161F74A81FB1D3ACC09693385303B29A028BAB52170BA99
:205D4000682740E4602AC010188177F6842706065EBE1694BBD48F38E1660A755CA28A9877
:205D60004FF166E309358AEBD84FE03F22E5084AB1624F7B4F3EDFA3937F339EFA80CE35FC
:205D800039F12D43D21FFA17E675821A4A4369B1DDBF9C65184A8842E6F48A7CB641A6592A
:205DA000CF2E7B4AE46F765BE9FB47CE25CA910387DDE69C3D80F2DE83CCF659B96F79CB04
:205DC000B9B03A4267AD68818AE715A5DA01E90859C51366E768853E110F617B2B91AE5487
:205DE0009E7F50718262374F7043D6E59171D788FB7E0D0C3E8BAA2C39C5B22B3330AFBCB2
:205E000027A4A7205E154B8E431771D774A0C44A1510BAD56970C76EA3F7D1B1F9D3E3CB88
:205E2000FB262596234E0C05AD69CEC3A81819174E84040B919F46CDF6ADA555A602B2480A
:205E4000C30DB41DF895E27E5443D5F158613CB74EE1D2F4DDA18D11DBED185F624684FD32
:205E600026613BFB057335BFE0AC6EA8AA0197F2BE2F0BDA76FD0602F9C111165425C1B00B
:205E8000CD2BA179736F6D92FAAD8132C682909046779903833B1767F93079C4A529D12A89
:205EA0005F73D0DF6A12F2BD4A4CF6D5D56C91588DC063B82DE42A0A824236AF7CDA1D33AF
:205EC000853FAF7511E22C087793B5DAFF4501133C1251409C7FA6B13D00311F02BF0B9385
:205EE000E79926829169843D2A8AA6896B974889FA754BE5F794F325D171525E5F60041101
:205F00002C881D50122F60220A38B22942E9CE8270F239ED67AB792EE79E82B3BA45717624
:205F2000FC157C25BBBB2981C0A5BF04ABC4FAC6469003A1134D9F93278DA7653BF7B88AF8
:205F400001462B4AB4954820F3D9B660CFAF361C235892492401CF1E3848AABD0CFD431572
:205F6000E0251307264523C74CDD8086D632EA4EAF50CC2DC1507195C3D7740352DF78DF96
:205F800044BA1AA33953244072B803BEE7D57C2293829A9413C1EBC16F40EC7F3826C1AF66
:205FA000D30C29681448B2520F72294F2A21556177F6E5C841DCA66AE58DF978E359854FDD
:205FC0003523299CE0AC34C4C814D983C89DDDD302B3930F74290A58CDC685387E002B85FF
:205FE00013070088C405145F47A4FBA0E9D27C3FDDC18DB2D4318052CEF177052FA31D1ACF
:2060000015C19874E9DDB9EB342D76EFB4469B6EB028BCF8887B6E229018B7281ECBC2D644
:20602000E257D7A876BB8B3036B434B85283A02922F0072BB98F3D8EBC422CE975FF828068
:2060400023D4A76B9428F2F5F6431C43EB11F536DB2255918EF6565FFA78C08F59C8C5E230
:206060007F3DEF076BAB56041CE116D7A676005D84C6907430371F5CF1C15A64F4ADF3C2A5
:206080009F9C97C222CC1F234F970ABDAB3C2B68C5E29F1AC6DA024F4A25E2AE6E3674E9C4
:2060A0002AF886E5E213B51B376CE03E23EADD1D45806ACC796866FEACAC41B6EFEBB11F8D
:2060C000C95AA6B7D20981B37D6880A036097D46ADA7D9D17168B333C05F5DC49E55102BFF
:2060E00024C9DE821B35E9B5C993D32B0B2075A9A460D473D56250B42E451F1FA3FBFAD71C
:20610000E24D168CE41F56E7C2F6BF29CBB72C0FD3B243F8CDDEA7499D666F112765D8E9E6
:20612000ACEE361F5650311311982DE09D570A3FE1A50EA983651FBCB5CB36E0521C102A55
:2061400029B52781994FE0FF5E810699AA86770377411DCE1C7E20D41F7B5AD54BA70C6270
:2061600002A9CFFAD4A4CD7450BA309C19CFDB213D8F58AFC3B21258837EC5383B8E325934
:20618000DED317D42FD85E398F4A953113B79E62DA96A8939E885E1188DD5D51495AECD6A4
:2061A0006639E755D372FD18C4391CA0C0C8288EF75EF3C4D5886AC7D79F0C679E92A1A3BC
:2061C00042E528C7E8FA11D79790AC304789E26D3BF02388913A9F4118CCB9C461BEB8867E
:2061E00019DFC07095F9023FAF562F2BD18232C64F531E28FA276549F26D4CAEBB679B48E9
:20620000932D999903F63718B5938CD7853C8163DA8FCEEB37D625A50D89AC6ED414B1B101
:2062200059D99A895A791A2A504FAB7D8C3E380A85AD191B71CF451E1228C34CD34D6288C3
:2062400013EBAA8AC10A123C299374640D10BD84F8B4E9FECF9B2F7CA952788FE09A169730
:206260006969B3E260328718E766CFD6313B7A99DAAC25DE7AC149877910B381258435A442
:20628000015D9CDA6078E18433D1A4192046D510D49EB50199C9FD072B695C68C792277803
:2062A00086CE4DBAE9658949B5DBDB7601B938B38D9181B0553CB2C366665C8DF14D55DB65
:2062C0009EC5ADCA2280E52F148C5C35FC1D0A48AE8D7032D6A1CF84D30E9938C93B25947C
:2062E000F149A65234515EFDF9EC0F9E3BF9B398DE9A6CD14380BE121A69FCB177E6006D39
:2063000028621F9947605D7D0B04DCF9E3D59B6BC6C15DD3C462E635E27F6D3F24D64F2C9E
:20632000EB1801E881364875F3DBAC8D1F392A890D09298183CDAFB5D359D52BF891789AB0
:20634000E17432870D5A88AE587965A315AEC8B95C7BB923A54C815996FE1ABE1AA1E57F6C
:20636000B37D9BBE115486F0E3E7F183EDBBDDC45B1DF5015564C4EAD376263DB38EFCA3D1
:20638000093C24D5B6ADA9023C2C3675D0E9D173B1F9C562B99FE03131CADFF3EADE27CDDE
:2063A00089B7B61323EC58AE0A501EC1E6BF0C8C07171290F9843EF359012F27E81BCDC794
:2063C000DEF837C18199FDBAF55C90AE56C5F6D7047DC2D13E9B44FBF323FD20D4CC5557FC
:2063E000AE079127F73CFFEFA75773854983F71E5135BF6EB06D5B10A6393027D77A294607
:20640000A2EAAA8DAE5EC615C549B18FE68278279547EFAF7681EBF91A49B28419ACB05BBF
:2064200061AB6C3BCD86BAF4FA3B31115649DFBB79B93CDBB95F5D7FF85E6A7FC1EA52601F
:206440009452BD787D3D4353EB33DB56C06096A2A5958D3CA090176AE87D4060F8BD771B2A
:20646000E2E5878EE60AC9FC433C97A54D5003A4C0E3C918549B838291B01C6EE5AB8756DC
:20648000F46EB1C32F75B4B5A85B4D4524A0908972A9DAB8FC08088E9CFEE6F2B13EEAD73E
:2064A00071F4236081066C47C39AE57F6FD8A41865F1A764C1600D58B070863483FE096744
:2064C0000280C5AC0346597A3B00479B5381A61A3EC21863CB2AFCA6760CE57C84724ACDFA
:2064E0004F197FF1DEBCE315B8955CE1FA220058A82515FF41EE3C4196DCE912DB2216D354
:20650000FFC7397539F173E2E4620A988C4319974920867E4B3535F1B7E87B3DB296D63F5A
:20652000BA92DB823D6B6FA7646E3A0A306C59A2C9BE532913854F7D813684472E57F0DA0F
:206540002A834D5E11B4412DE3C2D57D0F262840D1046548BE69F2AF9ED1EA7679ECCE6C64
:20656000F5A17751DF544F3C0764C13A51F8EE3809FCA2237766864DB3BE9713BBDDD6BD6A
:20658000C3F541A5CCD1039C785EE8891D6B135318ADF301640673206B0671651BB372941B
:2065A0003D8594A002B5C414DFB830B19B06FF59A71F402CADD021F06BB262B6C2F509BA76
:2065C0000A5B568CA987F96DE47883FCF5511B125D5B72EA7B4CF9855ECA514CD82B02F875
:2065E000D37F71AFE8D00C6F2EA8C8B050D4CD45E3686F84F60361A6EA54257184DDC71424
:2066000040F7CB52E81764E2664FE716D7187EBCE04E2142457CC21DB75AC86AEE94BFD67B
:20662000F8CD4EBCD1E4698E3376C776AFA4973DFD166F6B913F85B06EE321823FD752087C
:20664000A409E137CAC0833B3E24521803007E91E2C7404901D51028B7F818009F2FE87022
:20666000EBB16B09FB311AB02F616F43F9B59D8036697E22BEC5CD4C39A0952B3523E9D87A
:2066800076CFD67B8DC196B6AD350641B94A5BD1A105103FEF9722E69DE3804D2A3BBD067A
:2066A000ED6A09D5A8F85F1560A900586C471F4ECDA1DEE8BDD479BC8AC9C1ACA5FFCDC223
:2066C000F68BEC5F735DDD95F1C443D13A3553BD5F48D06450033998A95B4190CFF87FD674
:2066E0003C396761177879FD088FB8F44A9A5EE702FFCEFDCFACCA40A2A0E643D0AD3C086F
:20670000657C6222BCD199174C104708C501A8945CD0C0F96258947C1CA0990CCFA66D2216
:206720001A5CC5EB88F1A7A96651D957D2EF998B15C28EA1338DFF16C0644332F46C78EA68
:2067400002E27804A65F097CFD5A54279AEE9996D6DD203D67D673D435F3CAFE6986C72963
:20676000C61563B53CA32958BA31A2C14585107B472A5E1529B85880235618B8537CC0A608
:206780000DFE6F4673466D0545E0A96DFA3D66030FB031709FBD16E0349313A8DDD7CD2B53
:2067A00080A382FE72CF3F4A456F5372E19C03F6D6787F98F16C15BD0EB4A5152C1E557E50
:2067C000C70E852662C606F063E4861A232C4F1C468832D3484DBDDE59C0B5496BD9C068F4
:2067E000894761066AB329C046492CABE875B33D05EA306ACCE9770DBEC02A8AC09175B13E
:206800006E54FCE6B31F127F96A52C6E57FE9520BBA663A5A4C7A910E4BBEE2153CCDE2139
:20682000203F400E649228F8FD016EAB994F5E8E11C2B1CBF970BDB075B9E8564D156280D5
:20684000441014C5A692D3F22164DAAAD5F0774FAE480426F26A19B516C30070D6F1699522
:2068600085CD5F55A1A97B34AAD658B2346A462B3C3F43FCB83F27E771DF1EB915EA5B2917
:2068800088800B047C5E88874160D00CDE4335EA60B0569672764D0E2E182A773387A104B6
:2068A000F830FF1B603962B38E082A01FA06AB53C4A2243C4998F5F1F5730CF35850A1EEFE
:2068C0007BE623E174C3728038D84ED7B138102F101D9735652C86596CFAAD75AACEC4AFF1
:2068E000B9A95FA0E1831EB6E8D824D62A63CB46EC2A96CBEDBA680E3EB4F3445488720E8E
:206900005C819B9ECE02CF1C450F95488E0E4660FECF0A4409CB02D811A9C7AA7C0714D5D3
:206920000976BF2564C6EE7BF885877304C2E845F116D9E9E3E6BE7F8EE212ED4BD110CAC3
:206940006A91B37BCA59E19BA842E3A1B50619BC6B07EC02A09303CA5C66BA56E870D0B661
:2069600027D95FE829431244FE4F9218C862418F14A92BD76B5A3A82233DA92D7B6CBA60A6
:20698000E857ACB6A90AE73EA1B37B20665EC88496047EAF6AC4C96F8D70C5BA2E4B389293
:2069A0005411802B7138CA503B768503B78317649620CED4C55819594006F8442797B1122C
:2069C0001311C591AA54224471A19A07E25894F6BF06018CA59E9208E40728158ED78DA970
:2069E000CE5F612E7BE757E0ED3AA1761066A804B6BD0120321F9C44227C3F738C94331F5B
:206A00002D013E4B0D78D1ED574C81966833BB54264DB4D89362A0D4A26C24A749550D3CF0
:206A2000D701422F888FF73256DC24B0134936B0B5BF04FBF1F004810BDFBFF9ECA282C832
:206A40007566572413B5337993F4710B38307FDE0B1AD8D3734F321305DDF8B09D03FA8A1F
:206A6000AE396470D670EC88B69B50F1006E00A6D16617A6420990523A6FB7168601DD4BB5
:206A80002B81505CFA4B8B2866DAA9A8938D20D2AFABABBD85A688054F9CE471CC2394D3F3
:206AA00093460530A7CB76214BB86479181546284CF27B6065AC81F6EF6D670A9AF285EADB
:206AC0008F916A34047A163B0E3D6AACB78CDC7251426FD60AA5E3EBC0E8282916F519586D
:206AE000C76967B03ADFD33E5771A1899A7C497665A46F699B1815AD6A17101668B4B8E4A9
:206B0000E2D6E4EB708216F1CD5DF258E66CF5FD311F635F408E810496020518B9B7CB5890
:206B200089E0C92ECFEC451D19084560C6E548CE5DBB3301238E8EB7ECB0F0783187B87A21
:206B40006390FEC17FA4CA8AE37A83EA606EAAB39080C89769A0A4901329BA7FF7ABE91358
:206B600019ED6CECA7320B00D2BC923EDC8F8372727708693D4C2B55B475497234ABC4EA41
:206B800052FFF9F7701F72478ED55CA463D03BD4ACA7DCBEC51B8BCF769D879C0F10B3C9CF
:206BA000B7CF8E2901F26526C0CDC8641DBA3AA1E6192CE029942DC602A85B44B1601D7607
:206BC000EF6414CB83334E6710ADBDC531D4E8A1C7D3E11592407702FF9EACB141266ABAEB
:206BE000A3C771251D6B94D0257C2510C7A6AE9BF8DFE1A628A5D24A1687642CE8E7015D7C
:206C00007BFE8F7FF8219F2AA842E78E09B9F259214516DB124DA767EF6C6AFDCE2D4C27AB
:206C20001E1354213BDDD73C4007EB841D941DA1E90B67FB79C05C223154A66C1A7FB2E08F
:206C4000350DAA520F27A4D096D4193D2BC0983CF83BBB5084845B41844800C1F5669B4F19
:206C600067F5785C9C886EAC51B059005CC3CAF2F7DCFC205C230A8C924F604386696F3D4E
:206C80005DD2A68509879D991AA49314D7271A8A8EF711B42825D3CD0071AE3BF61097722D
:206CA000BFAC1B167FAD995F99B7AFC2C573F2CE6493E25411101DCA79B6D2F16CE379B6B6
:206CC000348CC1562580CAC675F195524E30B98422B857473F6E4F4CA327B4AD116B7ED1EA
:206CE00064797F8F248A9996575A2D0C99E5D6756F6E58D7D9C6D31B26CB3DB70C2F0E8AC8
:206D0000F87B3D07A3536C96E6FB6037CF1AB369F4BECD4A07A110FFABAB535686B792AA4F
:206D2000989AE308CB61AC8FCBDB141D1758B72859AF9EE9F3866EC0DACDDFD4A78C70FA7D
:206D4000EBDF5AD8C33EC24AAD0232049A254A79454AB3FCC2FD55255A3BCA779635123F5A
:206D60009A5188BFB472148C3579A335800CD4256096F4CB9F8E2DF8D4FDFA887C3ADE44DE
:206D80004CF85607C6830C200B474DF8F092BDF5539B4A9DB0C25EFFEF19594E80243ED00D
:206DA000AADDACF620FB11CDD6741A9512416EAEC6619BBC1D2050035499CE13CB7A99AAE5
:206DC0005C0773D6EB628A5A3E09F1530FA04D1B60F1D16E0F316CCBAA84401D84C4579B68
:206DE000097E91ED4E3EE190ED0DB97B0F37C303CA52D2FCAE7B18219AE399B6D48BDF6B96
:206E0000594BF08472197D3788885C55398F392DAC8C88AE2188BDCBCCBDC024E3559BE26B
:206E2000F67576E27F7AC617BA83C129B62F1562ACA8D9CB91E0C492E71A9DAFD8ADF2C7EC
:206E400085040D519CEA24F72804D03FAE9FC06A75ADAF9D2509933E940318A1DC184CE417
:206E6000B1019C17F1F0FFA07D1671DE4868A30DADA3F16A068D94977A7E1940162011FFEB
:206E80001F730B7DA714BFDB5FBE8C50AC112513FD92877B5BF42E64429688D6AF4CAAE167
:206EA0007A6242CBE6DECC6E770609DB0322AD430C8358184DC4C86F93504DA9CE247D5294
:206EC00068D72849D5D78F216CF5D0C87524A566837D4E880487CC7E16B650019C31F31A67
:206EE00091D8A73F9D866EBEE693CA5F299E744409895015A7C4A15A72CF7A2841FA7500E3
:206F00009F70A6F46573D20B8FE9DDE7481882A547AE47055E04AFCB50A3B165E40869CD08
:206F200037A40EB1562724D20CFEF2AAF91A3751E4F419A153CE5E99583BDEFFADE13849DA
:206F4000037EC5BE9829CAD908DBF2EE652DFB0F8963AF31ABAA168B319EEA3FC50F4B3C55
:206F6000AB05B46352012EE92986C3FCB3D836A9DE04F1FD91203F6A84D4BB6D541A096E79
:206F8000D741C3E8AD38B6C917094F1C0CA450E58ADEC74C2BB941FEF8E63BD18188D9A749
:206FA0002E3BDB94D055CC437B6C7C959818B18C36F91A68A1FC840F36DB50B275E325AEC1
:206FC00058FAE2B0E3E0D71DFDB534B17EBCC166895ED0971C727165E5BBE45A58B2544CE4
:206FE000FE86C28410623F2044EE5EB6E718E93A2C14D322C4A16EC7AE8FDE0F517ECE49AF
:20700000C8E861587D626B14F91EE2EDFAB58FD2C6230951C013E4FF395E261A88CEFA6D26
:207020005D27A9745268C5C1C34EA89EE01A1DF400945C6B39503CD32D30A4C3262A427F45
:20704000664B801FB8FCB4EE4B859711C0CFF969826EB3BA56DEDC0C330D4051531A0D4914
:207060008A5DD0A3D7A7A06539CB998DC35D8DF8F3B9F58440472E72F2FEE20E3627C49186
:2070800072648046D6F0F1EC3428955C114B3F6BFC7E0C121E1398CC130A7240F8D8CD20A5
:2070A000C5687851DD60104CE4A574C4D121798944C4DFAC19C884E43D3AD830C0B691BE6C
:2070C0002C72A00C167D634DF2491C0E2C68A2197493569959F059801995FC26B7487832DE
:2070E0004F88E0BEA7D253B6061D768149A721E433F3592305127F694E23C6690516EB46FD
:20710000D5B520B0B8E44951C7276A67516660B22AEDD09045B75E6785EC1F43D1A850C0C3
:2071200067FE482B723DABE4DE71E1066B2DC64A0088A32943665E4166F9EDFA4387106936
:20714000AC6D4075FC64E238F203C1A8C085BB765ECDBB3624A7E7C198511AD7853A94094E
:207160004D09F0D67FE15715ACE3F49377F5A7FCECC2FEFF130261ADC4FC8C22BC49436816
:20718000F1DA4098233D7142B41B600FB906F3A5517155CB360034CE91032D23133D844D85
:2071A00041E919020FFF9789B1B3EF66AE3E053936E2A8E4B528C8ECA86DE322B09CC1829B
:2071C000E43D615B6CAF33B04CB188DE7D284680421CE090B90385CFB0429866BBF161CD5E
:2071E00083DE02EC61D5AC802C1F12C14F491E421E27E3186A17D43E528A33385DC1CCF7CD
:20720000C6D5E2FD17FA6AC1F90477554B2BF646710B9BC4EFEF1B02364E9CE0BD9669C8E3
:207220005429EBD5B6A5D53B5D699EE39A553455E4D0EFDB7110C3E30396BBA605F7A207A3
:20724000D6E203BE655F55B5FE556FB2634F42371F7FC6A7170435A9626878D15A6DDE7E0E
:20726000F30914FE4CAF52F984D0D20CCFA286B4C9200A6E0A52D81CFACEBBABE67F86F320
:2072800054A505DE941D34CD98E3AF3706D56A938AB9A2797182130474CF6C7AD1B5002FE1
:2072A000A1BEBEA6653163FAE294EE7C2F70549E0C547610751C5028777373874397B5FA4B
:2072C000815D279EE674474809ED772372FBAE9BF4F86E7A3EA9F651ACC3B81A63AE0D1B60
:2072E0009C88280E406D487EB6F63274F8FFDF53EDAE7201F3B16D47BAC6237B5981715C1B
:207300009B4AA93D9AA5CF6690B608B7E9044F8E9D7D6AEBBCBA1CD24B859DF14E9847837E
:2073200026A892741DA242C64035DF336D906614AC6D3E81C24E6DBA04060CC56A7CF85993
:20734000E4ACCBFBF1EE0B676D7BA131AA2D8CACC386D60B2DF4C7C68F535A40D4B4EDA64E
:207360007E5D3C1A3D119011C09134F9CB6229208AD11AD1253592C094746DA7B5C88D32AF
:207380009BC3CE1929913B8BE07E82D3F6B7A536A855F31AD197376EBA6F2F4534413FC4C1
:2073A000E4E7673FDFF8739F774A710754B568B7C61A473059A41C98AA4E86617AA66D2678
:2073C00001D0F0D584CD9F132AFEEBDC0CE3DA6A8B290059E6E4AA080C195C42AE7F7E1EDD
:2073E00099865223439929B0A3A0D79B46CA6419A08904DEA0DE498587D69831F955DA75E8
:207400005412737142E3783E8A3B1C8D2CF06C8AAC423D07AE1A62D6C38F227683AEE9F39E
:20742000DC7B3D07A933F48586D4A4F7E3DF5C86585D911B38205BC4694BE2597315125F03
:20744000D6C9972CA111054C40755624961F9AD54CE1EA6468799E172113C022F10FC0820B
:20746000ED05682A5206135D60251A5B6B36903F2FD62F2864AC919792EEA41827265825BC
:20748000C7369A47E399867E8DEDD8E38AAEA48CA94548B054419E0B65E476843BE1430E1D
:2074A0000C6414CC7C53C6786FD378051C0F408364351C4461C02C3D41FD1EAE55C8E90629
:2074C0006597BE0147BB3B13AFE2E30949DFCBEE05AE952BB3B2A2F3CF4284DE9E64B2D4DB
:2074E0007AD8802D69594E16F51FFF3738A8AD9337B89AAF719F6AF6B7BA905C3D3C074236
:20750000F22E42990DB5654BE894B5D612F14D3AA05C1416C30DEB0EA06D2B6F5BD94E163F
:2075200075A2EC8E5958EA783148EE30FE4315ADE8A1E9A9D2868D0232643B6120C1F119EE
:20754000AD3B665275C943667843908B25256CB3B89002B0C691B89C16A6A978B37E561349
:207560003F01982D8A90DADD648E8430AF1FBA13B82F4773C7B7D4A2F43B5EFD3D98E7CC4D
:20758000D6FC6B69C03615A59D30B367C3B968968F88A039FB7E49DD732C4137E5950A0BFF
:2075A0001835C54D3E425E85CC310478897CDC04E5A3F64C8D7180153C803970D4FF299A53
:2075C000ADB390202D3C1C46999A5EAA2AEF7F2564862FF2A315DF12F73F30EE315DAB3F58
:2075E0003E7EB22BB4ACB6B0AB72AB46CE9BB9C0B23B357466F4CF9B4B720DFB2538F8C305
:20760000739F15B6FC1B968BABC1D2949C06F39F77CAEE1AFD95B97AE020B8DDD81778ED58
:20762000F31D9F082D11239F408FBBDCBDBA93885C39442B908003755F5118DC718293875E
:2076400067003A6B6E14C5B413E54E66593F034408921EF1493E1755700D17421901B15704
:207660007651CD25E7AEE491CBCA7379971BA99B25DD63B24E565BE1BA5D9C55F71D3A275C
:20768000C9173F7FC166E8FF1147125F9FD8EF545820FDB7C75039E3E648905F345D96BD5B
:2076A000075A7AC124C43AC68D63135E9AFD3C394B65D348DDB518219BD7D9A6F74A2DE103
:2076C000D9226533375140AEE6265EBFB013F710A6B3CDACB70B5F6582116073696A675D59
:2076E000E778E81D2394637FC598DBCA08A18AA21013D32D7FDD787543FE0D0DB148ADF851
:20770000D863EBC60F160B00D1C273C6CB2F5CB7328BCD115AB0CA1985A6C9BEF9696579FA
:2077200055EC5677245DA1FAB3AB0CFD2046D517B426A3A1720EBD1BF0127ACC6657F9A949
:20774000051A11788AF38B35125B8FB5306D5D893DE93E25EF7EB9422D4909802299CF5046
:2077600091F505116860337997DBE537222C5CD675DE84E5F9892655E4535F2255B75136E7
:20778000A085188AE62AFF8EEA32F4CB1F0B3AC6060C5E28B6B56C1DBC3962FA2639E5223D
:2077A000DBD3332A2EDB593BB268A6B84F935F21957BB438518DF3625E02FC4FBEA8F5DD35
:2077C000E9E63F3A65FAA8499786E248D94B34AFCD346F5BF09624EB72B6146B458CE830D3
:2077E00074C62202B610548143938FC1E6BB1F38533E75DABC5A65829F5E9294E26B26E01F
:20780000217CC6CA47A4C5A85B97976C9D6C8983D2A1B0FDDC601FED8D005D13BDCF17B819
:207820009A0F11DA403E62898A9BE19127E5DB59F066070B7830BBF5E5A75F30FF3F237FB9
:207840008787ED79CA6795EB76A55578ABAE7B825594614EBA539F624F587F32D044B2FC05
:207860008FED41F10DA5C695C7C0DB685250D3C6AA33A80CC85035FC721DA56357652CF8F7
:207880005B48F58830835B5026F15BAB445249ED974CC38ECAAFE48BF7FDB909BD2AF93B94
:2078A00093A0F0875B86BDE43B42BD87A83C47BEC3E59A1CE9F913D68501A46D291B818DE0
:2078C000DEFD1C36B8385419ADBAE945A6973402D70915FD4CB52CA6C52F4CD7C4C12CB6D3
:2078E000E46860DC6C2088B72461C82C68EA78817ABD1C7B1D6B96C35F919A8EB6A3637D71
:207900004EE8A4C2A2C6C2854A40408613BD7B03550B97DC81A3B9F5FA2F76DC26498CACB7
:20792000C486D03180B3684CC45E3A99D299A45010FA6E69A2E6FD043E0FC9073C3C1109A8
:20794000ED49CD6F2E6EE4D43DC49FAFCB045D2F5292896AA8BBCAB7D53B79582203585D41
:20796000723981C4D57F9CE55B78550E26880E6AC3DCD027BBAB88D764BB7017FD26CB6F88
:20798000FA5ED57A9D6FFA47C68446FE0CAD1DC70CDF2CE7013D9F2C9695948CF82ED00977
:2079A0002EC1B1D8ADC564C127EF58C9A5FAF30FD5A483F4A5F9777E10D3CFFF38A2D1F110
:2079C000B669FE252E09441D26C275B618F7F809C531BF94CD6778957D7D08B7E80A35F050
:2079E000395EA2AA47C401216A04840C8E2C947F8590C610A2100B39839927FD2EEF64CE3C
:207A000060A987AF217D03969CBD6D142E223037BDC982B04B7B9631CA31131932D7C653D1
:207A2000D251937BE3BCB24363F61816216032FB14E2D9BBF0308346FB4CB6531D4DC34715
:207A4000375EB058B60976F268B66D598E6E049132E5B57BBBB83840BEF3F7F217D6C37100
:207A600039D9C58CC2EDB769530554279ED50CC1C0D9FD36D29A1FE7BA2DBE4047FC2E9A93
:207A80007EC9BA602EEFDD71CBEBB5C6781CB45566C799355D5E9E029802F383D6466C8AD4
:207AA000AE36771C239850D27871787F46CB6313CBB670C0858D1F5BFF7A7F04EC3CE509BC
:207AC0007228E308C86E7854039E859A2D6B80C598AE6C1E71AE09B8989E480BAF6701DF53
:207AE00072A8E86C46FBBEBF147BC45F5783753174B874994B49C4E20B7537E04A4E29D38A
:207B000055BD6D8FC4C788DA520E1D16EC9BA92008DA717738E6B8A1FF0734CAE37AC3AF73
:207B2000C3705BBA6B583F6E66617906133B8459FC1E4901620E4DBC1D5D2812A371393905
:207B400066C8983563384C43F77CBE78F5EC6EA6F78CE57FF148EBFD0C7EF901B1BDF13A3D
:207B6000E3CD0D48D3EF1521AE65D6B4BA35CFCDA12B2D390D1DFA2A747291DD36E5557923
:207B8000E587A23BE30304D03326A702899F0F97A3030976DC14E20CFF42D6EE5972CBC0B4
:207BA00012FF4055BDFE80172DC71BAA8AB196CCA51C628089B50B6B53F5B27E43EBBDD5E8
:207BC000123CCDDF8668F0C0454E19F3E7F3CD344E7F1E9D3A88DD0F18930CD31BD89281CD
:207BE0008E46322169C7BE9122C58827C5ED1A96473327161816C1BFF725CB360AC2B28C5B
:207C00002E2658638CA551536D33528C4F28E6BC374063334AE61D4597B2D9EF383085BE8E
:207C200099E326ED178911CDCDA15E6AAA2B9A6CC7AFBC3BF8805A67A2421D46CCAA73DF71
:207C40007885830633FC66C9EB16940B017E9C6F9F8719784C6DE1EEBDDE7F83EEB8E4B6FA
:207C6000721559F80885B80D6E9ADCB67AAA568D66D061306C3419A1928CE7EDC8E3400C2F
:207C800030998F09BDAC6F63FF351EB23D362E8DC5927EAC805D694AC9563DCD7FB2EFA913
:207CA000591C0D827AF9F39146F0424873AA8E3963D65734B1713BAF0A44696B3EAE595599
:207CC00096A3BBAB69F5AD5FEAD230C0448FDD57E9A3D40F26F7F69AFC5D540F2B5DE6D8CA
:207CE0008F3881CBAF27039794E4D162D76B83B0FE02DD87097701D147A9E4016E49FFF9A7
:207D0000EBE2472B77175EFFEB2D0B7555C9E80C4BFA5AE27F79C61C9430028830FA0A8131
:207D200053AAF514E74E276198B5C743E52E743377933369B286AC458BFB97EE99F771395B
:207D40006E9673CC2753C4834284EE12B0248FEC2BD55164CA251B12D3118979D0C89AE63B
:207D6000E5B1A99B60AE9F2D92A3662BDE32A1000FC99A1BEEDF7B4D157AC272FEF5EF53BE
:207D80005F007FCBBAE81E292F1919D696E11238CA76F7D5473B35BCF83F28214A06D647ED
:207DA000858DDEA35C88AB3EC3EEED5B00B74A5A05E550DCFDC1AF282567A5CDDD84B989C3
:207DC000FF5FAC6A6F16AD33F32ACC01453EB12E671C8E7637F9525843FA20BFDEF7FFE24B
:207DE000747ED3691A1B8CD169D69D118DFEAF7E992597EC1D6C8616FB01804076E5101A77
:207E00008CF339E8861EAFE0CDFA48D3FF7EAD1042085586D9A1B428F582AF96CDD854F94A
:207E2000F0C5C82EDAA78028C69CB48FC44611AD0BCBAF8B90204257D88894090A573347D0
:207E400048FC66853F3E6670FDC6CB8D03DE451D9C788C456D729A6B4C1817E356EB15CBFA
:207E60003BA1FD33DD6CC9821A7F7414E5CFAF289C16D6FA951E222CFB3C206AD81A624ED0
:207E800072BA7481DBB81124C4D0976E929FB996B4AE74F333AC44628AFB97E8B96F82984C
:207EA0009552B3B762ABA71FA3BF1DE131D9CA2E8B474E786DA567D4A45E64A3206FDD7171
:207EC0004B6EA21D99CBF13A6057ECB6EB0249B9CAE94CD06B90F24BEF6B70E436A4DBA148
:207EE0003C1829FBA9A3583FA39DED35E7A4A000189C564556F54F8F132CA1F22295E5EFC5
:207F000011573098B9B845F4139B08A54E4636C81E69541D565CE568B9A9E0170DCA6124EE
:207F200072349F3DF2941E2359582650477173DC83572EA1924E1C9E89E916991FCCB908BA
:207F400006B55E327CBE4C921DDC2D7CFBACBF03F06FCC1933525CF82AF429C17F22536337
:207F600076E555BF7EBE380A06300772917F82040DB816CD60F10D3F45D203D7565499FD59
:207F800069C96D2C201D4952BC5B9A7A327224A8813AF50442B2973B818C8A23CBEBF19E2A
:207FA000886B8CC08C62E634E865D0DB060E0DB7F5FD4F08011D63B48728A8EC076EC50DA2
:207FC0007BD29BC4E715797632578FDF34DAA6F9100A0E1FC4BAD772FEB1447C32657C13C3
:207FE000E90683805CBE69E14138C1CCE55F55357B681892B3125C3C8F2C451973587E7893
:20800000E4F541F540F53FF53EF545F544F543F542F54DF54CF54BF54A90108D120E720007
:20802000000000901091120E7200000000901095120E7200000000901099120E72000000EB
:208040000090109D120E72000000009010A7120E7200000000E5F954076004E4F56222E599
:2080600062700302936DE4F5629006D0E04408F0C0B8C2BD7E0A7F787C067D3F7B907A0033
:20808000120026D0B8E4F53812B2699006D5E05488F0A3E05488F09006D8E0548FF0E490E7
:2080A0000A5CF0E5645407FFBF07047F0180027F00EF600302936D9006D4E054F7F0900A09
:2080C00080129D8CFFEC1208D17BCC7AF479CF78491207AA900B97120E6612A0AF900B9743
:2080E000129D461206A1129E5B129F1D7E077F2FAC2DAD2E1257F3900A88129D8C12A25D48
:20810000500A9006D5E04401F04404F0900A98129D8C12A25D50079006D5E04402F0900A5D
:20812000AC129D8CFF900AA8E0F8A3E0F9A3E0FAA3E0FBD3120D434005900AA88003900AEF
:20814000AC129D8CFF12A280900AB0129D8CFF9010A7129D46D3120D5940099010A7129DBB
:2081600063FF8007900AB0129D8CFF12A2809010A7129D63FFE47BF47A01F9F8120CA31274
:20818000A280E4F537129DD612A11B129D8AFF9010A7129D46D3120D59400F129DD612A114
:2081A0001BF583120E72000000000537E537B403D4E4F53712A1236007E537700302885AF7
:2081C000129DD624B8F582E4340A129D8AFFEC1208D17B487A0479227840129EBE129DD60F
:2081E00012A013129DD112A013129D61FF1246E7129DD612A111120E66E537129D56129D88
:20820000FD129F20E47FD07E07FDFC12A1C340030282F1129DD612A013F583120E7200005D
:208220000000129DD612A111120E7200000000900D60A3A3A3E05480FFEF700302885F126D
:208240009DD612A11B129D8A129EB11246E7129DD6129FDEF583120E66E4753C2C753B0180
:20826000F53AF53912A13312A19CC3120D59500B12A1338F3C8E3B8D3A8C39129DD6129F9A
:20828000DE129D61FF129FE91206A1C004C005C006C007AF3CAE3BAD3AAC39E41208D11207
:2082A0009DADD007D006D005D00412084760134011129DD6129FDEF583120E7200000000DB
:2082C0008007129F8C900A5CF0129F33C006C007129DD6129FDE129D61129DFD8F5D8E5CDD
:2082E0008D5B8C5A755E03D007D0061252DC02885F12A1A512A15D129FA5852E5D852D5C28
:20830000852C5B852B5A755E031252DC9006D8E09056FF129F939006D8F0E5387005E537AE
:2083200004F538E4F52EF52DF52CF52BE53775F003A424EEF9740635F0FA7B01782C7C003A
:208340007D007E007F03120AAD12A1A57804120D7D129F209007CCE0FEA3E0FFE4FCFD12E4
:20836000A1C34006900758E004F0129D7DF52E129F22EC33501E9006D6129F8F9006D6F0D9
:208380009006D512A20D9006D5F0AF2EAE2D120D35129F2012A1A5129EFD129DD612A142FA
:2083A000129DD112A142129D61129FB6129DD612A142F583C083C082129D63129E64D082E2
:2083C000D083129DD3240BF582E4340712A01B12939A129DD612A219129D8AF532129ED2C3
:2083E000EC3350149006D612A20D9006D6F0AF32AE31120D35129ED0129F65129EFD129D6B
:20840000D612A14A129DD112A14A129D61129FB6129DD612A14AF583C083C082129D6312F2
:208420009E64D082D083129DD32417F582E4340712A01B12936EEC1208D1C004C005C0063C
:20844000C007129F65EC1208D1D003D002D001D0001206A1C004C005C006C007129F59C089
:2084600004C005C006C007129F59D003D002D001D0001206A1D003D002D001D0001293A111
:20848000129E5B129FB7EC1208D1E4FBFA79C878421206A17A107960129EC5129DD612A1F5
:2084A00052129DD112A152129D61129ECC129DD612A152F583C083C082129D63FF7B007ACC
:2084C0005079C378471207AAD082D083129DD32423F582E43407AF82FEC006C007E47B640B
:2084E000FAF9F8129F651253678F5D8E5C8D5B8C5A755E04D007D0061252DC129F65EC1233
:208500009FE61206A1C004C005C006C007901089129D63FFE41208D1129DADD007D006D025
:2085200005D00412A27A8F3C8E3B8D3A8C39901089129D63FFE41208D17B387A8979417823
:208540003F1206A17B4F7AE87933783F12A27A12A15D12A0B7901089129D46C3120D594054
:208560000302885A129DD612A11B129D8A129EB11246E7129DD6129FDE129DD1129FDE12B3
:208580009D61FF129FE9129E05129ED012A19CD3120D594012AB32AA31A930A82FAF3CAE22
:2085A0003BAD3AAC398006129F6512A19C120CA38F3DE475572C755601F555F554E53DC31C
:2085C00094044003028858AF57AE56AD55AC54AB32AA31A930A82F120D435003028858E5EE
:2085E000322405FFE43531FEE43530FDE4352FFCE47B64FAF9F8125367129ED0129F33125F
:20860000A0838D5B8C5A755E031252DC129F8C900A5CF012A0B7EC4D4E4F602D129F59C09A
:2086200004C005C006C00712A0B7EC1208D1129DADD007D006D005D0041207AA129DD61298
:20864000A221F583120E66800F129DD612A221F583120E7200000000129DD612A221129D5D
:2086600061FF797A7844129E029010A3120E6612A18DC0069010A3A3A3E0FEA3E0FDAC06D1
:20868000D0061257F3E53704FF12A8C0E5379056F793FF9006D6E05F7003028760129DD6F8
:2086A0002450F582E43408F583C083C082129D46129D7D129F0BD082D083129DD324B0F5E5
:2086C00082E43408F583C083C082129D63129ED9FCD082D083120E669008BDE024FE60344E
:2086E0001460318000129DD612A286C083C082129D46129D7D129F0BD082D083129DD312FB
:20870000A290C083C082129D63129ED9FCD082D083120E669008BFE0701B129D7D12A062DE
:20872000129D63C39536FFEE9535FEED9534FDEC953302879C129D7DFF120D35E54D2FF583
:208740004DE54C3EF54CE54B3DF54BE54A3CF54A901091129D63129ED9FC9010910287A0A3
:20876000129DD612A286C083C082129D46129D7DFF129F0FD082D083129DD312A290C08327
:20878000C082129D63129ED9FCD082D083120E66129D7D12A062129D63129ED9FC90108DD1
:2087A000120E66901095129D46C000C001C002C003129D7DFF122CF8D003D002D001D0005C
:2087C000129F0F901095120E66901099129D46C000C001C002C00312A0B7122CF8D003D0A8
:2087E00002D001D000901099129DC2745A2537F582E43407F583E0FFB476079007FCE02051
:20880000E00CEF646770339007FCE030E12C90109D129D46C000C001C002C003129DD61290
:20882000A219129D8AFF122CF8D003D002D001D000129F0F90109D120E66129DD612A219F4
:20884000129D8A2545F545EE3544F544ED3543F543EC3542F54280078000AF3712AB531255
:20886000A22950030281B4AF41AE40AD3FAC3EEC33500B120D358F418E408D3F8C3E129F3C
:20888000D5EC33500B120D358F458E448D438C42AF4DAE4CAD4BAC4AEC33500B120D358FB0
:2088A0004D8E4C8D4B8C4A90108D129D63FFEC33501090108DA3A3A3E0120D3590108D129D
:2088C0000E66901091129D63FFEC335010901091A3A3A3E0120D35901091120E669008BF07
:2088E000E06003028979129E431208D1C004C005C006C007129E431208D1D003D002D001E9
:20890000D0001206A1C004C005C006C007129FD5EC1208D1C004C005C006C007129FD5ECD3
:208920001208D1D003D002D001D0001206A1D003D002D001D0001293A112090F9010A31242
:208940000E66E4FFFEFDFC9010A3129D46C3120D596068129E431208D1C004C005C006C0A1
:20896000079010A3129D63FFE41208D1129DADD007D006D005D0048037E4FFFEFDFC9010EA
:2089800099129D46C3120D596031901099129D63FFE41208D1C004C005C006C00790109519
:2089A000129D63FFE41208D1D003D002D001D0001207AA900B87120E66800A900B87120E5A
:2089C000720000000012A08D900B87129D46129E05129F207E077F31AC2DAD2E1257F3E420
:2089E000FF12A8C09008BFE0703F9006D5E030E0239008BDE024FD60030470189008181293
:208A00009D63900818129F47900838129D4690108D028A67900814129D63129F449008344A
:208A2000129D4690108D028A87900814129D63129F44900834129D4690108D129D63129D9F
:208A4000DD900834120E669008BDE024FD6003047020900818129D6390081812A0C090081E
:208A600038129D46901091129D63129DDD900838801E900814129D6390081412A0C0900818
:208A800034129D46901091129D63129DDD900834120E66900759E0FFB476079007FCE020F9
:208AA000E00BEFB467159007FCE030E10E8545498544488543478542468009E4F549F548F2
:208AC000F547F5469006D5E030E15130E02912A29A7003028B5604700F90082C129D63122A
:208AE0009E1F90082C028B53900824129D63129E1F900824028B5312A29A600304700F9018
:208B00000828129D63129E1F900828028B53900828129D63129E1F90082880379006D5E041
:208B200030E02412A29A602E04700E900830129D63129E1F900830801A900828129D6312B4
:208B40009E1F900828800C900824129D63129E1F900824120E6690083C129D63FF90109513
:208B6000129D46EF2B90083C129DF0900840129D63FF901099129D46EF2BFFEE3A90084043
:208B8000129F29900080129D8CFF9010AF120E669010AF129D63FF129F9FE49007FDF09034
:208BA00056FF12A0E8FB5F600C9010AB129D63129F9B028BF9905700E4935B601C9010AB51
:208BC000129D63129F9B9010AB129D634440129F9D9007FD7401F0802012A0E45F601A9070
:208BE00010AB129D63129F9B9010AB129D634480129F9D9007FD7402F09010AB129D63FF97
:208C0000A3129D46C3120D596013900A5B7401F09010AB129D63FF900080120E66900BAB7C
:208C2000120E7200000000900BAF120E7200000000900BB3120E7200000000900BB7120E74
:208C40007200000000900BBB120E7200000000900BBF120E7200000000900A5BE060051480
:208C6000F0028D7F900AC8129D8C12A095791978401205B0900BAB120E66900ACC129D8C94
:208C800012A095799978401205B0900BAF120E66900BAF129D63FF900BAB129D4612084735
:208CA000600D400B900BAF129D46900BAB8007900BAB129D46A3129D63FF1205AC900BB3F0
:208CC000120E669007FDE0FB704C90570012A0E8FA5F7014900BAB120E7200000000900B12
:208CE000B3120E7200000000905701E4935A7014900BAF120E7200000000900BB3120E7236
:208D000000000000900BAB129D63FF900BBB120E66900BAF8038EBB40140900BAB129D63E6
:208D2000FF900BB3120E66900BAB120E7200000000900BAF120E720000000012A0E45F7047
:208D40000A900BB3120E7200000000900BB3129D63FF900BBF120E6680259007FDE0B4021B
:208D60001E900BAB120E7200000000900BAF120E7200000000900BB3120E720000000090B1
:208D800008BFE06003028E1D129E43129EFD12A2A1129D63129F1C900B3F129D63129E6448
:208DA00012937D129FD5129EFD12A2AB129D63129ECC900B4F129D63129E6412A079853081
:208DC0005B852F5A12936EEC1208D1C004C005C006C007129F65EC1208D1D003D002D001C7
:208DE000D0001206A1C004C005C006C007129F59C004C005C006C007129F59D003D002D035
:208E000001D0001206A1D003D002D001D0001205B01246E7129E5B12090F028E7712A2315B
:208E2000901095129D63FF129F0412A2A1129D63129F1C900B3F129D63129E6412937D12CF
:208E4000A23190109D129D63FF129F0412A2AB129D63129ECC900B4F129D63129E6412A08D
:208E60007985305B852F5A12939A12A231901099129D63FF120CA3E41208D1900B5F120E43
:208E800066900B5F129D63129FB6900B5F129D63129E64900B5F120E667E077F4112A01E44
:208EA000755E041252DC900AB4129D8CF532129ED2E52F54806009129F65120D35129ED02E
:208EC000129F65EC1208D17BA27AE67958129EBC1246E7129FE9129E05129ED07E077F07D2
:208EE00012A0838D5B8C5A755E041252DC1538E520C4131354036538600BE538C433335422
:208F0000C0F520D200901063E0700A902457E020E70312B2C5129EA0E4FBFAF97808C31258
:208F20000D59603E129EA0E47810C3120D596032129EA0E47818C3120D596026129EA0E4EB
:208F40007820C3120D59601A129EA0E47828C3120D59600E901063E07008902873E0A3300E
:208F6000E510900D60E0FC129EA87010901063E0700A902457E020E60312B2DD9008BFE022
:208F8000600464027034129E4390080C120E66129FD5900810120E66900A68E0FB30E00A9B
:208FA00090080C120E7201FFFFFFEB30E152900810120E7201FFFFFF8046901095129D63EA
:208FC000FF90080C120E669008C0E0B43305129FD5800790109D129D63FF900810120E66BB
:208FE000900A68E0FB30E00A90080C120E7201FFFFFFEB30E10A900810120E7201FFFFFF08
:209000007C017D147B017A08790C7F01124AED7C017D247B017A0879107F01124AED7F10F9
:209020007EC87DAF7C0A90080C129D46D3120D594004D2088002C208754E08754F14755082
:20904000287551007552087553E19010A1E4F0A3740CF0E4F537D39010A2E095379010A170
:20906000E09400500302917BE53764027003029151E53764037003029151854F82854E83BC
:20908000129D6312A1CF8E298F2AE52A45297003029151902875E0540F6003029151854F6D
:2090A00082854E83C083C082129D6312A1CFAC00AD01AE02AF03D082D083120E6600900D3B
:2090C0006EE0FFB41206E53764046017E537B401089008BDE06403600A855182855083E00D
:2090E000252AF0E537C3940A502EEFB41206E53764046024E537B401089008BDE06403609E
:2091000017855382855283C083C082129D46129FC3D082D083120E66E5376401600BE53763
:20912000700E9006D5E030E007902803E0252AF0E53764086005E537B4090F900DA8129DAC
:2091400046129FC3900DA8120E669006D4E04408F07404254FF54FE4354EF54E0551E5519E
:2091600070020550E537C3940A500B74042553F553E43552F55205370290567E287F007DA0
:209180003D7C001256CB90283DEEF0A3EFF07E067F007C287D007B3F7A001200260012A14B
:2091A000239010AD60057402F080037403F0901089120E7200000000E4F537901089129DE7
:2091C00046C000C001C002C003129F337D031253ABD003D002D001D000901089129DC212DD
:2091E000A22940D7901089129D63FFC0079010AD129E32D00712A15A900D80129D63FF90BB
:209200001089129D46EF2BFFEE3A129FCD900D80120E66901089120E7200000000E4F53793
:20922000129FA57D031253AB9010ABEEF0A3EFF0901089129D469010ABE0FEA3E0FFE4FCF4
:20924000FDEB2FFFEA3E901089129F2912A23912A163D39FEC9E400A12A239F583ECF0A3A0
:20926000EDF012A24512A163C39FEC9E4004EF4E700A12A245F583ECF0A3EDF0129DD624A5
:2092800084F582E4340DF583C083C082129D46C000C001C002C003129FA57D031253ABD000
:2092A00003D002D001D000129DDED082D083129DD32490F582E4340DF583C083C082129D88
:2092C00046C000C001C002C003129F337D031253ABD003D002D001D000129DDED082D08356
:2092E000129DD324ACF582E4340DF583C083C082129D46C000C001C002C00312A18D1258DE
:209300004FE4FCFDD003D002D001D000EB2FFFEA3E129FCDD082D083120E6612A2295003C1
:20932000029220901089129D63FFC0079010AD129E32D00712A15A900D7C129D63FF90109B
:2093400089129D46EF2BFFEE3A129FCD900D7C120E66C3900DB9E094FF900DB8E094FF508D
:209360000CA3E004F07006900DB8E004F022755E041252DCAF32AE31AD30AC2F22900B3F1E
:20938000120E667E077F39852E5D852D5C852C5B852B5A755E041252DC22755E041252DC86
:2093A000221205B01246E722900E68129D63FFC007129E2FD007125367900E68120E6690E7
:2093C0000E6C129D63FFC007129E2FD007125367900E6C120E66900E70129D63FFC0071231
:2093E0009E2FD007125367900E70120E66900E74129D63FFC007129E2FD007125367900E5F
:2094000074120E66900E78129D63FFC007129E2FD007125367900E78120E66900E7C129D7D
:2094200063FFC007129E2FD007125367900E7C120E66900E92129D63FFC007129E2FD00723
:2094400012536712A2BF129D63FFC007129E2FD00712536712A2C9129D63FFC007129E2F3F
:20946000D00712536712A1E8129D63FFC007129E2FD00712536712A1F2129D63FFC00712C5
:209480009E2FD00712536712A1FC129D63FFC007129E2FD007125367900EA6120E66900EEB
:2094A00074129D63129D6EC004C005C006C007900E74129D63129D6ED003D002D001D0006C
:2094C0001206A1C004C005C006C007900E68129D63129D6EC004C005C006C007900E68125A
:2094E0009D63129D6ED003D002D001D0001206A1D003D002D001D000129D03129DFE900E0D
:2095000080120E66900E78129D63129D6EC004C005C006C007900E78129D63129D6ED003D2
:20952000D002D001D0001206A1C004C005C006C007900E6C129D63129D6EC004C005C00661
:20954000C007900E6C129D63129D6ED003D002D001D0001206A1D003D002D001D000129D17
:2095600003129DFE900E84120E66900E7C129D63129D6EC004C005C006C007900E7C129D6B
:2095800063129D6ED003D002D001D0001206A1C004C005C006C007900E70129D63129D6EF9
:2095A000C004C005C006C007900E70129D63129D6ED003D002D001D0001206A1D003D002B4
:2095C000D001D000129D0A129DFE900E8812A1EB129D63129D6EC004C005C006C007900EDD
:2095E0009E129D63129D6ED003D002D001D0001206A1C004C005C006C007900E92129D6347
:20960000129D6EC004C005C006C007900E92129D63129D6ED003D002D001D0001206A1D0E9
:2096200003D002D001D000129D0A129DFE900EAA12A1F5129D63129D6EC004C005C006C020
:2096400007900EA2129D63129D6ED003D002D001D0001206A1C004C005C006C007900E964B
:20966000129D63129D6EC004C005C006C007900E96129D63129D6ED003D002D001D00012EA
:2096800006A1D003D002D001D0001205B01246E7129DFE900EAE12A1FF129D63129D6EC03D
:2096A00004C005C006C007900EA6129D63129D6ED003D002D001D0001206A1C004C005C099
:2096C00006C007900E9A129D63129D6EC004C005C006C007900E9A129D63129D6ED003D036
:2096E00002D001D0001206A1D003D002D001D0001205B01246E7129DFE900EB2120E6690AF
:209700000E80129D46900EAA129D63129E6FC004C005C006C007900E80129D63FFEC120802
:20972000D1129DADD007D006D005D0041207AA900EB6120E66900E84129D46900EAE129DF7
:2097400063129E6FC004C005C006C007900E84129D63FFEC1208D1129DADD007D006D00589
:20976000D0041207AA900EBA120E66900E88129D46900EB2129D63129E6FC004C005C00689
:20978000C007900E88129D63FFEC1208D1129DADD007D006D005D0041207AA900EBE120E03
:2097A00066900E68129D46900E92129D63129E6FC004C005C006C007900E68129D63FFECCE
:2097C0001208D1129DADD007D006D005D0041207AA900EC2120E66900E6C129D46900E9610
:2097E000129D63129E6FC004C005C006C007900E6C129D63FFEC1208D1129DADD007D00627
:20980000D005D0041207AA900EC6120E66900E70129D46900E9A129D63129E6FC004C005FD
:20982000C006C007900E70129D63FFEC1208D1129DADD007D006D005D0041207AA900ECAC8
:20984000120E66900E6212A2D3900E8DE0900E8C12A1AEC004C005C006C007900E6212A19C
:209860007A129DADD007D006D005D0041207AA900ECE120E66900E6412A2D3900E8FE090E1
:209880000E8E12A1AEC004C005C006C007900E6412A17A129DADD007D006D005D0041207BB
:2098A000AA900ED2120E66900E6612A2D3900E91E09FFD900E9012A1B0C004C005C006C032
:2098C00007900E6612A17A129DADD007D006D005D0041207AA900ED6129E14900ECE129D88
:2098E00046129DAA129F6E12090F900C76129E14900ED2129D46129DAA129F6E12090F9013
:209900000C82129E14900ED6129D46129DAA129F6E12090F900C8E129E14900EB6129D46B3
:20992000129FF2C004C005C006C007900EB6129D46900EC2129D63FF1205ACD003D002D07C
:2099400001D000129CF3129D63129CD11206A1C004C005C006C00790106F129D63FF122AD9
:2099600006129D97D007D006D005D004129E5812A183129D63FF12090F900C7A12A20612EA
:209980009D63FF1229B4C004C005C006C007129E17900ECE129D461205B0D003D002D0015E
:2099A000D0001206A1C004C005C006C007129E17900EB6129D461205B0D003D002D001D0EB
:2099C00000129F78129D6312A039129D46129E171205ACC004C005C006C007901077129D06
:2099E00046129E171205ACD003D002D001D00012A047C004C005C006C007901077129D4636
:209A0000129E1712A000129DADD007D006D005D004129D11129DAD901077129D6312A054D0
:209A2000129D46129F6E90107B129D46129E5812090F900C72129E14900EBA129D46129F00
:209A4000F2C004C005C006C007900EBA129D46900EC6129D63FF1205ACD003D002D001D033
:209A600000129CF3129D63129CD11206A1C004C005C006C00790106F129D63FF122A061271
:209A80009D97D007D006D005D004129E5812A183129D63FF12090F900C8612A206129D63D5
:209AA000FF1229B4C004C005C006C007129E17900ED2129D461205B0D003D002D001D00069
:209AC0001206A1C004C005C006C007129E17900EBA129D461205B0D003D002D001D0001284
:209AE0009F78129D6312A039129D46129E171205ACC004C005C006C007901077129D46129F
:209B00009E171205ACD003D002D001D00012A047C004C005C006C007901077129D46129EBC
:209B20001712A000129DADD007D006D005D004129D11129DAD901077129D6312A054129DB0
:209B400046129F6E90107B129D46129E5812090F900C7E129E14900EBE129D46129FF2C0CC
:209B600004C005C006C007900EBE129D46900ECA129D63FF1205ACD003D002D001D00012AA
:209B800007AA12367690106F12A206129D63FF122A067B157AE87936783C1206A17B757AC2
:209BA000937918783E1205B0E4FBFA798078461206A1C004C005C006C00790106F129D6384
:209BC000FF122A06129D97D007D006D005D004129E5812A183129D63FF12090F900C9212EF
:209BE000A206129D63FF1229B4C004C005C006C007129E17900ED6129D461205B0D003D00D
:209C000002D001D0001206A1C004C005C006C007129E17900EBE129D461205B0D003D0024E
:209C2000D001D000129F78129D6312A039129D46129E171205ACC004C005C006C007901028
:209C400077129D46129E171205ACD003D002D001D00012A047C004C005C006C007901077A2
:209C6000129D46129E1712A000129DADD007D006D005D0041205AC1246E7129DAD9010774F
:209C8000129D6312A054129D46129F6E90107B129D46129E5812090F900C8A120E667C002E
:209CA0007D407A0C7B727F0912542512A2687B247A007F057E001202DF900C72120E72CACD
:209CC000EDCAED12A2687B047A007F657E000202DFFF122A067B157AE87936783C1206A137
:209CE0007B757A937918783E1205B0E4FBFA79807846221207AA12367690106F120E669001
:209D0000106F221205B01246E7221205B01246E7221205AC1246E722EB2FFFEE3AFEED39C9
:209D2000FDEC38FC901072120E66901072E0FCA3E0FDA3E0FEA3E0FF7808120D91901072BB
:209D4000120E66901072E0F8A3E0F9A3E0FAA3E0FB22901070E025E025E0246FF582E434DE
:209D60000BF583E0FCA3E0FDA3E0FEA3E022FFEC1208D179C87842E4FBFA0207AAE5372540
:209D8000E025E0248CF582E4340AF583E0FCA3E0FDA3E0FEA3E0227BFF7A21797D783F12C7
:209DA00006A17B757A937918783E1205B0A804A905AA06AB072290106FE0FBA3E0FAA3E029
:209DC000F922EB2FFFEA3EFEE93DFDE83CFC020E66F583120E66E53725E025E022FFEB2F11
:209DE000FFEA3EFEE93DFDE83CFC22EB2F901072FFEE3AFEED39FDEC38FC020E66FF79C88F
:209E00007842E4FBFA1206A102090F120AECFFE4FCFDFE22120E66E4FFFE7D807C3F222572
:209E200049FFEE3548FEED3547FDEC3546FC22900E61E0FBE4FAF9F822F583E4F0EB25E07F
:209E400025E022E541254DFFE540354CFEE53F354BFDE53E354AFC221207AAE4FBFAF97832
:209E60003F0205B0FFE4FBFA797A78440207AAC39BFFEE9AFEED99FDEC98FC0208D1900A57
:209E8000C8E47F107E0EFDFCE0F8A3E0F9A3E0FAA3E0FB120C18E47BD87A09F9F802536716
:209EA000900D60E0FCA3A3A3E4FFFEFDEC5438FC22FFEC1208D17B247AC67947783E120629
:209EC000A17A80791D7B0078450207AAFF12090F8F328E318D308C2F222536FFEE3535FE73
:209EE000ED3534FDEC3533229558F558755A679010B3E0245DF582E43407F58322E47B01E5
:209F00007A0EF9F8120CA3E40208D1FF120D35EB2FFFEA3EFEE93DFDE83CFC22FF12090F28
:209F20008F2E8E2D8D2C8C2B22FEED39FDEC38FC020E66E53775F003A424FAF582E4340685
:209F4000AF82FE229008142541FFEE3540FEED353FFDEC353EFC020E66AF2EAE2DAD2CACD2
:209F60002BEC0208D1AF32AE31AD30AC2F22E4FFFE7D807C460207AA1207AA901073120E0C
:209F800066E4FBFA7980784690107F22900A5CE09056F7FFE53793FEEF4E22543FFFEC90BE
:209FA00010AB020E66E53775F003A424EEF582E43406AF82FE22FF12090F8F368E358D34DE
:209FC0008C3322E4FCFDEB252AFFEA3529FEED39FDEC38FC22AF45AE44AD43AC4222247B5A
:209FE000F582E4340B221208D17B007A40791C7846221205B07B2D7AB279DD783F0206A1BF
:20A000001205AC7BFF7A2179FD783F0206A1E025E025E024C7F582E4340B22AF82FE853617
:20A020005D85355C85345B85335A222FFFEF7F00FE120AEC2FFFE43E22FF1207AA90107778
:20A04000120E66901077221206A1E4FBFA7980783F0205B0FF1207AA90107B120E66901045
:20A0600073222541F541EE3540F540ED353FF53FEC353EF53E90108D22900B4F120E667EB3
:20A08000077F3D85325D85315C22120E66E4FFFE7D7A7C4422FFEC1208D17B257A497912B1
:20A0A000783E1206A17B9A7A9922EEF0A3EFF0E4FFFE7DC87C4222AF36AE35AD34AC3322D7
:20A0C000254DFFEE354CFEED354BFDEC354AFC020E66901072E025E025E024D3F582E434D9
:20A0E0000BF58322905701E493FF9006D8E0229006F2E0FF9006F1E04FFF9006F3E04F22F7
:20A100009006F5E0FF9006F4E04FFF9006F6E04F22246FF582E4340BF5832224A8F582E452
:20A12000340A22900D60A3A3A3E05440FFE4FEFDFCEF22900DF7E0FEA3E0FF7C007D640227
:20A140000F4D2443F582E4340B222453F582E4340B222463F582E4340B22120CA390108920
:20A16000020E66F583E0FEA3E0FF9010ABE0FCA3E0FD22120E6690107222E0FCA3E0FDECC6
:20A180000208D690107F120E6690107F22E53725E02433F582E43407AF82FE22AB3CAA3BCE
:20A1A000A93AA83922AF2EAE2DAD2CAC2B229FFDE09EFC0208D6E025E025E024B7F582E419
:20A1C000340B22AB2EAA2DA92CA82BC3020D43FFAB6AAA69A968A867020CA374F0252AF511
:20A1E0002A74F13529F52922900E9A120E66900E9E22900E9E120E66900EA222900EA212A0
:20A200000E66900EA622120E6690106F22E0FFE5379056FF93FEEF4E22249CF582E4340A84
:20A2200022248BF582E4340B220537E537C3940322E47B017A0EF9F822E53725E0249CF5EC
:20A2400082E4340D22E53725E024A2F582E4340D227F007E407D1C7C46901092222403EE8F
:20A26000341CE43DE43C33227C0C7D7290108F7403F022F0A3F0A3F0A3221207AA02090F11
:20A280009010A7020E662444F582E43408F5832224A4F582E43408F583229008BEE024FD18
:20A2A00022900B3F120E66900B3F22900B4F120E66900B4F22C3E52A9410E529940E2290CC
:20A2C0000E92120E66900E9622900E96120E66900E9A22E0FEA3E0FFC32290106FEBF0A31C
:20A2E000EAF0A3E9F0E4FF120AD390000112A02B900E62F0A3EFF0E4FF900002120AEC9049
:20A30000000312A02B900E64F0A3EFF0E4FF900004120AEC2FFFEF7F00FE90000512A03158
:20A32000FE900E66F0A3EFF0901072120E7200000000129D43C000C001C002C003129DB6A8
:20A34000900012129E0BD003D002D001D000129D18C000C001C002C003129DB69000131273
:20A360009E0BD003D002D001D000129D18C000C001C002C003129DB6900014129E0BD0038A
:20A38000D002D001D000129D18C000C001C002C003129DB6900015129E0BD003D002D00142
:20A3A000D000129DEB900E68129D46901072129D63129DDD900E6812A173120E72000000CA
:20A3C00000129D43C000C001C002C003129DB6900016129E0BD003D002D001D000129D18B2
:20A3E000C000C001C002C003129DB6900017129E0BD003D002D001D000129D18C000C00102
:20A40000C002C003129DB6900018129E0BD003D002D001D000129D18C000C001C002C003DC
:20A42000129DB6900019129E0BD003D002D001D000129DEB900E6C129D46901072129D6350
:20A44000129DDD900E6C12A173120E7200000000129D43C000C001C002C003129DB69000C1
:20A460001A129E0BD003D002D001D000129D18C000C001C002C003129DB690001B129E0B29
:20A48000D003D002D001D000129D18C000C001C002C003129DB690001C129E0BD003D00238
:20A4A000D001D000129D18C000C001C002C003129DB690001D129E0BD003D002D001D0001B
:20A4C000129DEB900E70129D46901072129D63129DDD900E7012A173120E72000000001257
:20A4E0009D43C000C001C002C003129DB690001E129E0BD003D002D001D000129D18C000DB
:20A50000C001C002C003129DB690001F129E0BD003D002D001D000129D18C000C001C002D6
:20A52000C003129DB6900020129E0BD003D002D001D000129D18C000C001C002C003129DC6
:20A54000B6900021129E0BD003D002D001D000129DEB900E74129D46901072129D63129D1F
:20A56000DD900E7412A173120E7200000000129D43C000C001C002C003129DB69000221213
:20A580009E0BD003D002D001D000129D18C000C001C002C003129DB6900023129E0BD00359
:20A5A000D002D001D000129D18C000C001C002C003129DB6900024129E0BD003D002D00111
:20A5C000D000129D18C000C001C002C003129DB6900025129E0BD003D002D001D000129D14
:20A5E000EB900E78129D46901072129D63129DDD900E7812A173120E7200000000129D43F5
:20A60000C000C001C002C003129DB6900026129E0BD003D002D001D000129D18C000C001D0
:20A62000C002C003129DB6900027129E0BD003D002D001D000129D18C000C001C002C003AB
:20A64000129DB6900028129E0BD003D002D001D000129D18C000C001C002C003129DB6901A
:20A660000029129E0BD003D002D001D000129DEB900E7C129D46901072129D63129DDD90C7
:20A680000E7C020E66E4F524F5289006CFE020E40302A8AAE5645407FFBF07047F01800291
:20A6A0007F00EF600302A8AA90283CE0F525E5256005D394044003752501E4F523E5236467
:20A6C00002700302A7ECE4F524900B35E054FBF07E007B0174002523F9EE3428FA120AD3A2
:20A6E000FF900A63E0FEEF8EF084752600F5274526700302A782EF8EF084E5F0120B19AE25
:20A7000026AF27900A5FE0FCA3E0FD120B4D8E268F277E107F77AD27AC261257F312B019B3
:20A7200012A8AB5025E524701812A8B87E0C7F72C006C00712AFCCD007D00612433D7524CF
:20A74000A57E0C7F727D041255E112AFF135F012A8AB502EE524701812A8B87E0C7F72C018
:20A7600006C00712AFCCD007D00612433D7524A512B03F2472F582E4340CAF82FE7D04120E
:20A7800055E1E524606612B019FCAD017E0C7F767B027A0012002612B03F2476F582E43457
:20A7A0000CAF82FEC006C00712AFF135F0FCAD01D007D0067B027A00120026902875E05413
:20A7C0000F7029900B35E020E216E52375F020A424007C0C7D7212AFFD7B1E7A001202DF79
:20A7E00012B0271256CB12AFB71200260523E523C39408500302A6BDE5645407FFBF0704D9
:20A800007F0180027F00EF600302A8AA9007ECE0FF90283CE0FE6F700302A8AA8E25E525EA
:20A820006005D394044003752501AF2512AD589006E8E054FEF09007ECE06005D39404406C
:20A84000069007EC7401F09007ECE090283CF0F525E4F5237D017F0112199712AFF135F016
:20A86000FEAF01C006C00712B03FFDACF0E52375F020A42DFFE5F03CCF2404CF3420FEE499
:20A88000FCFD90109D120E669010A112AFAED007D00612433D0523E523C3940840B612B0C6
:20A8A000271256CB12AFB712002622FEAF017C107D777B02125613227D017F011219972242
:20A8C0009010B3EFF0E4F55BF55CF55DF558F559755A76E0FF129EF37401F0EF701A900699
:20A8E000D5E0FF30E003755B01EF30E103755C01900A5CE0602E80299010B3E09056F6933C
:20A90000FF9006D6E0FE5F6003755B019010B3E09056FE935E6003755C01900A5CE05F6089
:20A9200003755D01E55D700302A9B89010B3E025E025E02487F582E4340B129D61FF125234
:20A94000928F618E608D5F8C5EE4FFFE7DE17C44AB61AA60A95FA85E1206A17BDB7A0F797D
:20A9600049784012A27A8E588F59E55C602CE55B601774082559F55974073558F558755AEA
:20A9800076129EEF7403F0802FC374109559F559740E129EE87404F0801EE55B6011C37401
:20A9A000089559F5597407129EE87402F08009755A76129EEF7401F0C3E5599410E5589492
:20A9C0000E400C74F02559F55974F13558F5589010B3E0601325E02443F582E43407AF82D5
:20A9E000FEAD59AC581257F3AE58AF597C007D0A120B5FAC06AD07E41208D69010B3E0FBFE
:20AA000025E025E0249BF582E4340BF583120E6674592BF582E43407F583E55AF022900EE0
:20AA200092129D46C000C001C002C0037F007E507DC37C47900B43129D46129E05D003D00E
:20AA400002D001D000129DDE12A2BF129D46C000C001C002C0037FFF7E177DC47C47900BA6
:20AA600047129D46129E05D003D002D001D000129DDE12A2C9129D46C000C001C002C0039A
:20AA80007F007EEC7DC27C47900B4B129D46129E05D003D002D001D000129DDE12A1E812BB
:20AAA0009D46C000C001C002C0037F007E507DC37C47900B53129D46129E05D003D002D050
:20AAC00001D000129DDE12A1F2129D46C000C001C002C0037FFF7E177DC47C47900B57125D
:20AAE0009D46129E05D003D002D001D000129DDE12A1FC129D46C000C001C002C0037F00C2
:20AB00007EEC7DC27C47900B5B129D46129E05D003D002D001D000129DDE900EA6120E668C
:20AB200012A0AF900B6F129D46129E05900E8C12A0AA900B73129D46129E05900E8E12A0E4
:20AB4000AA900B77129D46129E05900E90EEF0A3EFF022AB079006D6E0FFEB9056F793F493
:20AB6000FEEF5E9006D6F09006D5E0FFEB9056FF93F4FEEF5E9006D5F0A3E05E129E3C24F6
:20AB80000BF582E43407129E39240CF582E43407129E39240DF582E43407129E39240EF5A5
:20ABA00082E43407129E392417F582E43407129E392418F582E43407129E392419F582E4FE
:20ABC0003407129E39241AF582E43407129E392423F582E43407129E392424F582E43407F0
:20ABE000129E392425F582E43407129E392426F582E43407129E3912A142F583120E7200DC
:20AC0000000000EB25E025E012A14AF583120E7200000000EB25E025E012A152F583120EA6
:20AC20007200000000EB25E025E0129FDEF583120E7200000000EB25E025E024E4F582E4BC
:20AC4000340AF583120E7200000000EB25E025E024F0F582E4340AF583120E720000000000
:20AC6000EB25E025E024FCF582E4340AF583120E720000000022AD07EFC4540F901070F030
:20AC8000ED540FA3F0901070E014F0A3E014F0EDB41205E4A3F0800FED901072B423057449
:20ACA00001F080037402F0129D52FFEC4D4E4F600D901071129D55FFEC4D4E4F700B12A060
:20ACC000D2120E72000000002290107112A1B6F583129D4690107012A1B6129D61FF120568
:20ACE000AC7B567A0E79C978401206A179B47843129D771229B490106C120E66129D52FF0D
:20AD0000E4FBFAF978401206A1901071E025E025E012A111129D461206A190106C129D4682
:20AD20001206A1C004C005C006C00790107112A00E129D61FF90107012A00EF583129D4627
:20AD40001205B0D003D002D001D0001205AC1246E712A0D2120E662290107FEFF0E4F52BB6
:20AD6000E52B6402700302AE0DE52B75F020A4AEF02400F52AEE342012B00AC006C0071266
:20AD8000AF97D007D00612AE1AC006C007E52B12AFF312AFA2D007D006123DC4AE29AF2AC2
:20ADA000E4FCFD90109612AFE71244CA901080EEF0A3EFF0E52A241E12B01090109B741056
:20ADC000F0748012AFAB123DC47493252AF52A7403352912B00AC006C00712AF97D007D06E
:20ADE0000612AE1AC006C007E52B12AFF312AFA2D007D006123DC4E52A241E12B01090103C
:20AE00009B7410F0A3748012AFAC123DC4052BE52BC39408500302AD6022123DC490107FB7
:20AE2000E075F006A4FF252ACFE52935F0CF2404CF3400FEE4FCFD229006D0E0FF20E30391
:20AE400002AEE7EF54F79006D0F0E5F95407600302AEE77E007F067D007B007A007929126F
:20AE600011249006EFE0FF9006EEE04FFF9006F0E04F604F12A0EF6007129E7E8E298F2A7D
:20AE800012A2B5400312A1DB7E077F4BAD2AAC291257F312A100600A900ACC129E818E2BB4
:20AEA0008F2CC3E52C9410E52B940E400C74F0252CF52C74F1352BF52B7E077F4DAD2CACD0
:20AEC0002B802112A0EF601F12A1006007129E7E8E298F2A12A2B5400312A1DB7E077F4B45
:20AEE000AD2AAC291257F322901092120E7200000000900B73129D63FF900B6F129D461234
:20AF0000084760074005900B6F8003900B73129D63FF901092120E66900B77129D63FF901F
:20AF20001092129D46120847600740059010928003900B77129D63FF90109212A08A901087
:20AF400092129D461206A1C004C005C006C007900EFC129D63FFE41208D1129DADD007D01E
:20AF600006D005D004120847501112A08D901092129D46129E05900EFC8011900EFC129DD1
:20AF800063FFE41208D1129E65901092120E66901092129D63FF22E52B75F002A4240CF90A
:20AFA000742835F0AF0190109BF0EFA3F0A3E4F0A37402F0A3F02290283DEEF0A3EFF07E6B
:20AFC000067F007C287D007B3F7A0022E52375F020A42400FFE5F03420FEE4FCFD90109DE0
:20AFE000120E669010A1E4F0A3741EF0A37402F022E52375F002A42424F9742822FFE5F080
:20B000003420FE90108F7402F022F529E52A2404FFE43529FEE4FCFD22E52375F002A4245D
:20B020000CF9742835F0227E287F007D3D7C00227D017B017A0F790F7E007F02020AADE503
:20B040002575F006A422901092120E7200000000900B7F129D63FF900B6F129D461208474B
:20B0600060074005900B7B8003900B7F129D63FF901092120E66900B83129D63FF90109247
:20B08000129D46120847600740059010928003900B83129D63FF901092120E6612A25112FB
:20B0A0009D461206A1C004C005C006C007900EF8129D63FFE41208D1129DADD007D006D08F
:20B0C00005D004120847500E12A251129D46129E05900EF88011900EF8129D63FFE4129FC6
:20B0E000E61207AA901092120E66901092129D63FF22900F0AE0FFC4540FFE90106FF0EFEF
:20B10000540FA3F0BE0F15E075F006A424607C0F7D0B12AFFD7B047A000202DF90106FE048
:20B12000FFC394085063901070E0FDD394045059EF75F020A42400FBE5F03420FAED75F051
:20B1400006A42BFFE5F03AFE7C0F7D0B12B0037B047A001202DF901070E0700D90106FE0EE
:20B1600012B01BA801FC12B03090106FE0B401197C0F7D0B12B0037B047A007F607E20123E
:20B1800002DF78127C2812B03022901092120E7200000000900B3F129D63FF90109212A0F9
:20B1A0008A901092129D461206A1C004C005C006C007900EF4129D63FFE41208D1129DAD41
:20B1C000D007D006D005D004120847501112A08D901092129D46129E05900EF48011900E7B
:20B1E000F4129D63FFE41208D1129E65901092120E66901092129D63FF229006CFE030E4F0
:20B200003390283CE0F523AF2312AD5812B0271256CB90283DEEF0A3EFF012AFC37F127E22
:20B2200023122C7112AFC37FA57E26122C7112AFBF120026227E007F3C7D007B017A28791A
:20B24000001211249007ECE06005D3940440069007EC7401F09007ECE090283CF012B02716
:20B260001256CB12AFB70200267E007F767D007B017A0679EB121124900759747612A27363
:20B28000F0A3740112A273F07E007FA07D00FB7A0B793F021124E4F5277B017A08790C750E
:20B2A000F004E527A4F58285F083120EBD000000000527E527B42CE122902457E0547FF0D5
:20B2C000D280D28422902457E04480F0D280C28422902457E054BFF0D281D2852290245786
:20B2E000E04440F0D281C285221CC0CCF01A903F28FC87C1B273261C3E3DC1A3E0EB3218F6
:20B3000067E8CECDEAB7980AA37CB5AF00BE201AF86B9F4B9C1CF646EE9B5AB9F5A328DF09
:20B3200011E6D7A48D542C0A739BACCBA4EA574027FB9381C25067CEC7BDE92E3126FA551C
:20B34000EF8A30CB8040144BC0818E6A02279D795EB44BAB4D96E17B73AA5748BBFE0E42D6
:20B36000A9DBC28AEC03BA95333741D242FC5A8C459FB0116477CC14976A8A50BCB2CE6E39
:20B38000E7E17329F92384B074C4AF4B8DF2F64283C3A8FB307A9062DE066C8D5BCBA1A146
:20B3A00050A52CEFCE2ADC632A30BE1F0B90D963C1291CB0D827952DED85E449C1D0EEA201
:20B3C0008C2ED62694A02977FD845894E35E6CB7A6D7F5798506433C6FEFD9CA15491F3A65
:20B3E00044855714720BD2B597C764F43EE41505DBD7199E5FA003590A4C355A80BF9B316F
:20B4000020B0990191F541E29D01CA8543AB3D17073172678D7C3B4A66A5DF3F2AB9CA4F26
:20B42000C7B9823718E5DDC9BA3A72901B3A4DB3D3EBE71B382255D82C01BFC13ABF145B89
:20B44000E2A7FCFD30640E31947B445CED19ABA2E70F5F04871BB7CB0469BD2AD959E11F92
:20B460001883EE9A01F93CE1D3CB2833E2D1C1ABEAA4C468A3EECBEB95E4C1C02E10996147
:20B4800012543F57B22CCFA22033065B22E9F69885B3FD90B323F700887AB3CD626BA4EAA5
:20B4A0007722D97C6C852F3C23BAC61DD4E9B1305F43F2C4E043A5D184337B979CF36A82AF
:20B4C000F0F6A351568DC577836850C120595C3A215C8B4C52D53C2732180167052E54F061
:20B4E00025D7851D99CBF71BE8458C8F2FC25E7F7206B06F306124CA3A302E84C5A6C8FEBF
:20B50000BDCD672A5CC72EEFFC5A62CF29AC1FC7FB4A4976A26FC4824384E83803E32F72C5
:20B5200061E031BEC80AD3BC64AEBBC8369D07D9632F3EA9D2888617F51A18C9E76BF21579
:20B54000B819CB22051B4C4ACB497DC37C1F7E7F53BE7750E533D150FAFCA7809AC877AFD5
:20B560006B7F1E9E3A820361D734920826B9EC7F73FEDCB306F90EF6F7327BA544822808D4
:20B58000211A10798FC85EC93076E0DF5AF4B9A26AF7561A5B61A3D197C27E800C1F6CE785
:20B5A00083F38AFD2D74C7497F17519040564DB0E1B1CBCC0CF3F9A97FB696581B29AA16E2
:20B5C000381175703C0EA5AB6C20CC62026910717F352512423778465A15AD7799284C5BE0
:20B5E000E97DB71BE31F60B59E98389FC5B56BADED8A4A3425B68870CEE8AA23ADA2B97F8B
:20B600003E3D3A464B2E6030BE877F8DB4C1C42BD2B8247ADCF792EE833675A57F21594AE0
:20B62000DE5BE4399CC30CE373F68874F41584B4D7C8992B9082FC892307F645382C9483E6
:20B6400072DE9F3BFD66CE9866EB3B9EB0391410A4C1939168E030095364154A004CD2F48E
:20B66000A1CF529596A00D153F7180520EB6DA07E0ABF9F28D989436BD53BAFEFE077B63E4
:20B680001435E59090F83223A58D3FD736124060338EB397263292D709DFCDA75BE8F799E4
:20B6A00073183F7213F7A38A4049607651D8ADE54773A8C85C3791B6DF0D368E3E74AE5E8B
:20B6C00065814A834623C912B9ACCB77878D895CC161C2CD572EF999E5E7DDFBD0350979E0
:20B6E0009276ED0D52070C83B8BE6922FFBB3B8E4C61E8ED3E9F3149C674AA3539B26EB4DD
:20B70000A30210565F28D5A4E48820BEE2E92D438E7A02713912A38E28BC8686A07346D584
:20B72000402A9BA794108A3EE611D99557A0C6432FB4F9A17210B62FB4C857342D01FAA5D4
:20B7400010F877481946951965627DED87676E55D817B3C50E20D2F6119F07880AE3F0ECCE
:20B76000BC738A8117525CFD0A81F20F9AC68D4331AC192538CB5FA9E7497CCA5CA1927274
:20B78000EBA3BD9AB6BD49B27D782243B7458BD3E17A13091698C511E0CFA0424EC447FEBF
:20B7A0004691F9DA1D0DC2FF654FF3D1066DD1CE91898AB8D00F6DF6A238593805D3765AB9
:20B7C0007544248B75CD31AE6B0C4F00B0C5C5FBE8E2647B8FB8BD20D58C91F3AC56894C5C
:20B7E0001FC427F3E582FD8536B91D19DDD6D0248F8C8B9A7B1C1E5622D42FBC69D5E79DA9
:20B80000EC1AEB5A96B68E4D6F5D4564B4265B0F2D8FE55DBBC2F96231171BDB64D9F8159F
:20B82000864D570AAFF04CCDBD01AE295E3FCC856BF45C0B7832B40AA95D3D98C7E9247B41
:20B840009265524A59B99FCFC9AC42B003A98C4EF1C2D7EED9F5B91732AE7D3AB78ED3998A
:20B86000BB6BC661BC98EF193A66E840C9EA043266013D4C07926E507613C30B5E4F6D3581
:20B88000A6669A98FF15A475B9378823DB8C9BF972BA786E29913D7F1A93F751E4B45A1820
:20B8A000FE5EB6374BB826A9EE280B9F5F17B86ABEF46F9C687B8D6AC93701557145020A66
:20B8C000695C0286C70ADD7D804057FD7E11C54FF2B70A1EECD7C5DA2906C95F2B8BCED259
:20B8E0008F6666CC9C9232BB188855855F04296EB60B313BDC2D4F97E20837B73D0D243AF6
:20B900001A87CA53F1D88B295D06ED7E2B774C8FB0F9CC3C600692699D4534A4CD536D0840
:20B92000AFC41661EF655191F8C4083209F3967C8B88C369A2E8F61802C6A66F04E612052E
:20B94000F827323FBDC0EDB990CA8CE722FF6FFCEDC1FE0AC75EE36BB8927761094D79F9C8
:20B960009DB706358571C569CE1E63E69D233FD67FAA6667FAEDC12C68B18DC005100CAC0D
:20B98000467C7A8A6C01436B5ACA7377A3E76ED3E84EE1C8611FF821B92CD2D41FB832E5FC
:20B9A0009A7F77889CF7CE86DBD6A6E15CD464BBD0B25874247BF013540A2CE780CC526E94
:20B9C00041C7E3753DDBCD81F948E26EEF718956E1E0B4B46C8912C9E053853F4FD4D60DDB
:20B9E000E45CA89A7636AA255D2A11648546466BC1DFDBD061D2C40D060FC425B559258BC7
:20BA00002B47AC3F708FCC3AAF831A0C45DC01C418B7B7102ADD6FA56E47D1E1DAE2A7AF5C
:20BA2000BD8FD9AC536E9B88965CE5AE58BA23278F712FBBF0327C5ABF0394BBE5F7C4439A
:20BA4000433C1528465B7FD6BBBC5A92E569155DCD132A1BDA5A51F4A149F5FBFE20E40D8A
:20BA600064574AFC71DFE0EDC6AB61FF156F3E2E7BA8927611DC583BBE23DCE84FE66FD71C
:20BA8000C9E75F71FD8126965E32E23F1056056141354E15BC40F8F7BB9831CBFDD0CD675B
:20BAA00019F43CCD12CAB9972B57C598FDA5D4C0C6C44640040F98EF43B0DCEC3367668545
:20BAC000FD87C958D74102B8D724F25304E51211B35C623F11D0A2ECFC74C5931731A3FBD6
:20BAE0001DA6EE5C756E67C307A151B74F9D261DAF068A590A0B7DB68EEBD408D1B8EA9015
:20BB0000205C931F14D9517E65D5CB0E03557AAC63C9A6D717499115A21EF2928A84A40BFA
:20BB2000AFAEA0EADA0B29B399C8469E4B96758677AD9E01621046D1E013057B6A1B3A3589
:20BB400071A6FD05F28B55284B82ABB14DE67F7292BA5A1F10EB04B1EFD4F609980712D6C7
:20BB60000F4B92B882E13FA6220CE38D31D000395CF9C2794C5F337E7869AE853DD096B6A8
:20BB800030A5474BB3964DF4C66DD57A20D960A37F71BF573CF63B0022D8143780FC2D9C39
:20BBA0007DBD0505AC31E9DCE0AD68C2428B0878A02A3700083784FF962B0F668A153E5174
:20BBC0009D9AB230963A7A2418D586ACBE6D5E806A2D14BDD9AA76437B6A895B82A3339E53
:20BBE000394438129839689515EB167FBC07CB8382813CD6D7D87A937A9B695F912C7349E3
:20BC0000F9C47DF3DBB71AF780FAFF8466E2B848932E99932948F6B93BC897B8DF3A661A17
:20BC200084216B1D863CFA1200072B03E2858B98433D113BF882547B65F8FAAE935474DBFA
:20BC40008363E9D7C24E6FAD3E1C81435878AE3B3AB58E186B0FFAA2A0347C8BD603055285
:20BC60009D93DE68B777E192E140E98EF14487F9219EF770AB7652F696830495CFCD8148BA
:20BC80007BB834198C3EB887927C4B2AD470809AA001348CDF3FC23EECED7B16A73D508697
:20BCA000C5DAD2326A2B5D55F9D78F602B84FFE55EE52CB430F3B4444D7AC75485D8DAD120
:20BCC0002201A0FB78C736C4BD599E781B096EA30452C930C6198FCE5F33D198922888F450
:20BCE0003A3686BBDF99AC9B870A5EBACE86349C3950F247C839BBA5CA1F8129F5B4C0B533
:20BD0000B6806CBCC62A28A4FEF3B86E6C83B998A6E88F425EDCA0913746C051D704EBDEB6
:20BD20003EE83A44560010A5CB1B94DB1C88655FF3218969B289A6594EB1745660A17235E6
:20BD40007975D89CB6A5CD67958ADB4A071EA0B8C704C604E9C835C7B6678681B712BB83C4
:20BD6000102F2E0C10A1C8B20549730355CCD26DCA972F5B2E21B5A11870DF1A05DF308F47
:20BD8000AA1E25DB897A684DC35F464E2D1B6344A5E4ACB6A71D8EB01BD565697191382376
:20BDA000F04BA3534BBA140276D43B73B792BB0600F3265C7C4328BC689D02B524AF3A054F
:20BDC0008ABD91BA7EE83697C6B139B91DB9427B82CA8396D61BEB8DA6D09D4846C1A0FED4
:20BDE0001F7CD859498D35D55DFD2A6A8418616AD473ADACDD2E40EA7E771E68FE4FD1D6FE
:20BE000057915E78D5307984E0C0F5CC16387E9C9EF68AE6B8038D9C98996C5E74E23555D6
:20BE2000DC030D5F4A596A6CFA028228FBA003DA8759048B90233B6C9B3E7172D101344352
:20BE400053DACC55CF91705451CCB9C55BD856EA37A602E58C14B31F306E14EB3D35366780
:20BE6000671F82A38C5EF3068D2582ED5D69E19457E56B3AD5605C80FE323D13DF05A38A55
:20BE8000BED91992AA4B5B485716C5E629DA0AA28F1C29D3928E9D56AE91D430E0F9E374D4
:20BEA0000010786851DD10E357A66AF9E8B33BDA865523F8EC27E068E794C28B67995EEDFD
:20BEC000D6CC876DA89E7A9F34DD596EC27DDB06E59741F10BB28C7F5242ED6C9D6E7DBDCD
:20BEE000E8162EEBD815014396C37A8DDEBE52EC53EB6B0516B7096396A33E1AAAFFA6AB4E
:20BF0000DDF5552808CA0E992761B59D650107557957897D35BFBEDC5CBF9DDFB5D4428176
:20BF20005D72E46D614607678CBEF3E87ECB6408FEE683A1925115B24C9FF301E676BA0546
:20BF40001294C3020B10567670E21AB452A6D0CF8C9D41B952F575AC0D4A26C9666C7400C1
:20BF6000A163DB2F2DB0618E79D6144A0919B370C886AC0DA033469448C8207F5D3EDA39E4
:20BF8000B5E7123CF0AF92764FA1C7F2CAAD76B45CA8AAE5A294F130A422C76BF375537AAF
:20BFA000F42951707B9450F89B4B1DF4BDE87F63F00B2488809FDC49CA5F05D54E9846892B
:20BFC00006308115F7E702DA05DDFD970B5537452BB8033F63DD70A66187C104992F1D2F4D
:20BFE000940488718B3112E5345E4E24DC790621B6B62D5273D4151112A3E341FAC33F341C
:20C0000046AE50CC60F8E7E1D1D6FAE357DE55C1380D8C09D70E345085B952D499DB146092
:20C02000C335BF709DC7E996834EE81CA50B8AEB5AC607ABB813332C61D4F8059FFF047BB1
:20C04000B4A1BFA46B2380CCF3CC0017ED880F68C4E885823D697C6D4FF9BC1C34B7774C7C
:20C06000C0FB37AFF296144AC95B2A1B58DE4A001D7BF0D48F9A75DBF63286607F8CD59CF1
:20C08000904A0EDA59A70DD9AC004E720E94A57A0E882FEAD52E883DFF863E1AA905863310
:20C0A000CB962E6DC9DFD34144C55462363286A03E152A0C38AB1C5D11FECD92D9ABF2D9D9
:20C0C0001AE77EB069C4CE4A3AB12434F9405738562DC982E09B9801D5A01910380482564D
:20C0E0002546E6EA62E067BB36CCA7307E477F0BFDD5F493F48566F2F2760BDCEE9A9C716B
:20C1000093BA4E65DBBB045EDF1FC39DEECF66E1DC1793889CF2EDF811888B3D22F5AAF32F
:20C120000D4C9E67FDDB0FF9DEB161C5705E74829AFA8EA9026995DADADC827DFD9B12A59F
:20C140003A03BE39EFCAEE55DA8B6AEE2D7E11B5E086CD3E4B72C662F47CD6E2A6163E4CBD
:20C16000C3E79723DA100B3A7CB3C4614CB6A54356C4388FA295E856087071B545EE94B380
:20C180004F000F6CE633CC706C335966F68E98F5A3BBB8E42D5B637FBDBE393D04A97EA1F0
:20C1A00087570F5E3ABD9BBE51130F44538F529170743384144BA0A5BC7018C409D162DD08
:20C1C00012F3803FFF36DFEDD459D0458A403CDF64F592B880EE0590AD8EF5907CEDAA30CA
:20C1E0009ADC48585C24FFC59C0F83AFC42ABCA92848BEC899CAFB07361EB7EA8686BD623A
:20C20000C41B51F17A11650E523C10CB28D33BB563759EFC8669EBD4022A481A4F23033B4D
:20C220003AB78152818478909DE95EE1DFC522CCBE82199B70533BBDB7B98F68FE4CE4830F
:20C24000A4B8C2C29806A013261D57391088D7B6E17919EF7E0E558BFED4741CBB8AC80177
:20C26000A927FB8BE71E455E94E0E21AE4A2C43B7361853ED9249F067E82DF7DB063177E8E
:20C28000F20B14F39754CF3A903AE7CE839D4F231D4344D1A81D83F5E0CBB8D4026139C24E
:20C2A000276CF443D030A76FC2344F9B1401E235862640F0147F6721CBB7E769DC0C9795B5
:20C2C000EF5285C2B93B33C5D1D500CABF54E43A561260E345D4B553E84F558464EB97BFC8
:20C2E000F2C6AEBA7BFCDC046626E3A2AE20BDFB37108CF162A3D451DF9AE86DC286A20783
:20C30000D9CF57713DFB0AF3282DE06D06ECD43DCF26AC6393752CE357A0896B1F652136F2
:20C320004C76683028C1265BC0F4E071F24193CBC65FA98102D125D3F86A21C8A3117A14FC
:20C34000F2C2CA3F64D59604D583C9F898A6616CC5C06993D43F27E86BFF96CA75111769B6
:20C3600074BB63E618BFC4B610E0854820A3A6E77453D5E134479AE95868D2BABEED5EFD1A
:20C3800079691C6D6D0816391915FAA9B3C0CB057A1FD5B34872E69F66ABBBE0A52EB9982A
:20C3A000AAD5DE1B8A37F654972A12657986368E802C5250384773D23ED23B83535B8F01E1
:20C3C000AF068F3A97D4CBD13225B3C3997C504A2D8332012D4FAA4988E439ECEFFC470146
:20C3E0002F041810BE68FD769310C70A3B2B81002A2B5F0E4F10F1CEEBEA9C64A2994B6053
:20C40000D3D862E6257AF40C62F235838919327A1E2CBFBFC514B1270FEB4E3194BB02E607
:20C4200042895403F492175A46D4E576A8D0C97EB28F3C5BB8E3531D9DEF369BECE9D45A6C
:20C44000241FD5B15438D02AE8BDBF2AC3D8B0D58E5BBD2C4F033D783DFF3CECD3AC298674
:20C4600023A3CF366DF58742F0B5ABE900B74D4759982978B3FED9009621486A708B693029
:20C48000E51C29DB6650A26B05C591F987F70A9BBB4E6A880B5C8E7D515F425FEC0EFC2188
:20C4A0001292CBE867D28A6DCFF359A3811F4E9B5E8667A480A3C3B615C112116EBD4B2193
:20C4C000530D9DA59A01A710F849EB2F16B8800DE74808143A5DE2748B4EA1C91F21BCF843
:20C4E000509686592568611C25CF2FE56D490ABA019A351F6011527F5B0ED5CE26C1B86DA2
:20C50000B034714E308C2158008C0E0DAF5A536A5286D60E1A487B9F2C09976AAC25A849A6
:20C520001BF043CAE4F74D8D31886EEE0374C3E48213D3299289C59CA648D0E3D9D6F25458
:20C540003BD1E51668304F8360CB39D1921EC2F23A4914B8ED5C983D72D26682D45B0056B3
:20C56000B5DF3F7AE5BF8D02345E55FE84E0B85A2231820356495C4B38AF438FC63C3817B8
:20C580003422393D832D71D25548ACBD00420DE5E1D20352F3D9798F9FE84D52D602045E66
:20C5A0005EA3BCA9690061BA6C9124562ECD295B203580ECEC9357CE50846E122D34CBF5C1
:20C5C000DB69AE04C0C3C7842142A710370875848660E21A6A005ED3F38B8D19F25AF4A2C2
:20C5E000547CF997AFFB0AF61B611C35437B5728BC5D0F2495A6F7652F0691AD4EFDE92E6F
:20C6000071E583AA5F3292D903F96A0B79AF380E6934F152940F884BACFC641769A41161C4
:20C62000D9AB3685F8EFC7F4800F7BDB022B81FF36EB6FEB90C37B4E1375ED9F6AD7D402C5
:20C6400035D6F86FA1BB11113BAD36EC067798C3CA8C7039B04836360C79148C7A1E9ADB73
:20C660002C6FB3B2821DD8F6DBDA8388AC1CE722CF1EDE821D2823CB3E11C128C002CBB2C5
:20C68000677C4E94C49D846C099F4AF51CA1D4E4EAAAA00FFEEBA8D45244DCB9650ACF50C7
:20C6A0008D08B15E8FC37D3B6D03737C7F8EC9D0C5379E287C172F1BEF1B4D8890BF0F7D6E
:20C6C0004718C4570A182B2BAE0EE765FD6C2DAF08CDC015BF361F66BE9CFCDD6AA7F100C2
:20C6E0003DB66FC95E23F70475C88CF8BDC268495B74EE1DEECFE07E67D1D2001B4CDEA3BB
:20C7000016E99AFAB26C478D693A4B7DE818E26664351089316BDA2B91C2B538CA363F2C63
:20C720007BBA2D332F7C848F336B0D3BA5F702CECE170EA1B2917534E4768ECE9FEB7A64B6
:20C74000132F10BCFDDA17D37A63B87B1DE532483F23D0AD96C919630AF5460AC3F5F913B1
:20C7600087532BDD430E661EE72B3585776CDA9E5F603EF5089C2E7EA847C3345EDC220156
:20C780007E2B66DE2AA1DB3B22CA6DA1DC146096D8D641C12E901C4E6975EF9497265FF5A1
:20C7A000A1C1AA06D91ADDF0D248471774642DF94F8DBF58302F4B9BF285B172975D17B99B
:20C7C000981CDD9F7801D3079FAEAA2E66E4A98E6F8EA1033701232DEE82F0158608B11340
:20C7E0000A44E9EF31DF27463303802FDB1C3C1FDDE0D00A6B8D0DCB037196C68BB097CC8A
:20C800009F42B43F2A3B4076334FB062FA954F72448B33B5F35B6F3FD95C8ACDCEDC30AC80
:20C82000001D28D68B9D865F4A9A220FECD648514A98B14BF7F3B24F194AB4727814E47A24
:20C84000D5DD2CFE7D8D61C81EEDBE7ED8679182970E3416A1DE3FC46B44FCFDB1E11B006A
:20C86000C58BA7FD2894397A574F6CF7E7D190CDD4F5A35C17A37D6576514AB5A0C93D0463
:20C88000792D831CB339763E9EC914C1419BAFFCA955E56681CAD3FCE37986E36E56B24F03
:20C8A00099CEA7A3460580DA9B629E250D4D55D5BD37E47C08DBAB4F59C498CF4210E3A94B
:20C8C000CC73FBDA0B7FC016F522F26B7470E922B9A287E6D45F6C28813B68C1457E36D93B
:20C8E000BA266708272F9CBC5411F8DB9D8BD5A9449FB6EB0CDE7D4D03E5DF019F2814A9D9
:20C900000CEED377C59D7D92623899BCB0268033073559D4D8DE488686CBE3D67796E6DF21
:20C920006AD4276D0B52CC62C49EBB58D7C95287AA6C59E961E9349DB2F35D8AF551124411
:20C940007BDE4B3321D5EFF2254B47F538FDB36FD44C9C72CF86A9583167366343E002A0AC
:20C96000E816271130AE500A2B4826DCFB490BB12DDE0BB74A3E0F81A82F54AA86CB1CBBF2
:20C980005884A44E606655747E9C3E554936C2165E298E00F997CFDEC251A1A6E99BCA5CE0
:20C9A000742FA834D88468F7C74F79A74A4B40660F350E94041B4F3825D704A191D7734D77
:20C9C000E41F1C09C190F05AAE6ABE1C2510EE69E70B71BC9452F85679C864E1A9077E54BB
:20C9E0004F5CE91642125566DAF4F4FA030D32E68FB2A1C0D1C33202672DABAF57B3553AA9
:20CA00005EEFF5A38493FEE3F4F5058A0BCB75A7AF3284E8E2F66602960DC053C3645FC640
:20CA2000B8DF2AF8AF9B5599A376D81466D12072EE94047BEF73FA1FB0708B1517A104C27D
:20CA400005346F5CEAB0C14F907D55E03BA79910F4DF08C322C358215A5FF43D78F3ACF46A
:20CA6000EFF6AB195D5CAACF63156435B3D64A496A1B7706A16DE6D03EE0E31210E1BF26FF
:20CA80001C2EC875312678DFC343ED5DF6E599E4F8513B8D94F90EF404FE40DD07F3A51E3D
:20CAA00034E4ADB98E9694485811D89E2B5CF0AB45883BA024EF375454BEF3E685B1C7A524
:20CAC000E01E422C9B3564D1CB860D417AC4B664FAC85F8778D8C8B9D42AE475B1A48B82BC
:20CAE000C8E66F18818A5144C4AA758D0CA353D8BE198F89BA3C2BEB2F49FCD2B3535A7FF7
:20CB000093431CC3671EC468EA86F6CC09842FCF3A84B3EF0FA1C7B20B232145B4469D62DC
:20CB2000E93E317676772304E621794499ECB2111610B302A19104D611C13C15DC06BAF46D
:20CB400074DD9679D61FD7E15F84E73FE2654465F9C6770798934A1EE82A368B521A1BFDA8
:20CB6000D92A3414AE9E49C7FEB526030F764D948BACE8491C3001533866F5EF3F0A26458E
:20CB8000C32DF18F267AE07D6BBE20D846A8356775CDEC0F53EE913DAB7E6389CA5F45931B
:20CBA000D8EDB631683D03CD4DA6BB08AF8164A35F2E6CA0685863A4E77967A01CA0DFB055
:20CBC000C0726C44996E1C7D4D76E1DA748B4213F0D9514581F3DD50945FE87D5C555B6538
:20CBE00024C4F90EE496925612357995BA4E387ED1D58146C74968095B39D069B3072378C1
:20CC0000ACEC47D86F3CCD2045EB6B82AC51ACABAA2AE6EB61E16D96E40E06AA493D9EB1F3
:20CC2000FFF13CE962E835A38DA19FE96F1C076322E1677C774352C0D6E67288457F34DAD8
:20CC4000C6DBC28BE62332A6935EFC122E37B26EE100EB4033F8814FD9C9FC4DCF554DB965
:20CC6000A8B2C00423732CF3FE2A6C440F2B139490925C80BB87600B97C08C3F1148511899
:20CC80004E7F1D9D40638B50770DD7C83A7E949DD79CA184377859BBB5D20AA830DFA8BD7B
:20CCA0005F4AC39E6578B786A61023E7D8BB9C505D28A294D054D229DE085ECE57A3BB7000
:20CCC0008419994FBC3C185D323A39E611679276CB3D47F8ADA1351BB86870FAAC1AF0FB37
:20CCE00065F687F76A36169CC49401100C0CE0D7C8E478F7F8EAE95AEBFD287357CEB02514
:20CD0000A9E875E09AEE1A0D032463ACF231ED3BFD241DDAD6B456AE20CC6F83814764B598
:20CD2000F9F84B5072ED8A7698F44801EA5F216A11051EEA7189E4DEFFDF2B70520B7274C9
:20CD4000FC2CF1901ABAD0A02A0C96581D1DE42BAD8F636CF1F0FBB42F3D4683F1A4442AA6
:20CD60005B8E50E8BBDD5253627237F9B3F39E4879CBD4AB7E7203F659EEA604879A409E29
:20CD8000BD264E9F7DDF7A56E830112CD369B7871CC05AEE3E96646D24FB353B3B73D09A58
:20CDA000CBFAD4FF8747AF73634E0E39A50897B13F76DB7C5CE486E1396BD96F36B95BE431
:20CDC0002D15CB4E029D58707BD215675257A78E89F6409EFEE4D21A3F467CEA9FF34945B4
:20CDE0008A7C19D5156ADF16D9C60D0002DF4DE5A347729C4D1FAEDFDF9405F29FAA0185E2
:20CE00008A39A8DCE934AB2D2531E04ADC26F27F347158BE701C83F9C15E5CD05E65ED6CB9
:20CE2000D6525EABA586247D061C758E09B6FF25E57DD94C8F63BA318CAC69CC03AC74C237
:20CE400016D2258972E5B2CD258EB413B117DA9D5E72DF8DD47DB94DE884142DB707FE4E63
:20CE6000F1BEE4C078DBBDE72A8F8523FACFEDAF465851CA65F1EA157FF0453DA1FFF3D937
:20CE800010208396DEEFAD91BC27D0040F689F254638164B6A47B453F6F7E442EA1BBC2BB6
:20CEA0001BFFE954CDAAEA94835F7DFF166A57C6051918580C087ECDF8A1D985B9E4BF0CDF
:20CEC000B96400416C92DCB8293E745C385B7F592C033E3972BBB24C2BF70C4E37E16544B2
:20CEE0009256AFA7E431ECC453CD9E639CC57EA762FE7035C6E8B798370065E58B9A169A30
:20CF00004FDDDECC5C0F8082AB13E15C6B2FBC78501396952D17F579C5C5CD91DF973BD854
:20CF2000980175F9FDB202B8D918268ECC22A1939D4999A2D1D1D4B77D4C2A9B58613AC427
:20CF400014CB5D76EFA4D82F85E45642E82595C2F2A95FA1DA9DBC19069F664B207F7D27A0
:20CF60006C427C8B596D6CAF568057C0E6C000CBF739D1DD7004156909C667E95F796AC8C4
:20CF8000486FBB8063932400F4F31350EF7B4A775303D79DB98D476D2DC717BD3CD86B7194
:20CFA0004E58029C37A06AE90845703A2BDFDB8EAF0F5A28E0C0BAEE1BAC5C0FE022E7E80E
:20CFC00029073A29FA1CA5333A7E58C5C1731BD8B26340C70B25D6B37A7D202673E246F631
:20CFE0007F84496DD78D3CA631A7B23ADABF731D050973C263450486F3404A4B1C9DEF63FD
:20D00000F9D519B1F47D990A96C866E19D4C49244F09D9610FA7AA2D2EFFC2C603DD4CF772
:20D020003E04913C7973232710E75B0233A106B639695CEC37D33271D2C170DF5129C47A96
:20D04000F71998588FF842C5480E7BE5C347139B6B33E3AA0552021A878F3CDE2E0ABFB35C
:20D06000CB1A184B5E935EABE544ADD276C4D69B8C6F55E49FAB84F0F7700E0AC107A56BD2
:20D080006311F85E0DCCDFA29092D91074A2B97D44239CE22D661EBBC86CCEAC33A8DF6AF2
:20D0A000660520D9C42B2E72F1FEE7E8E468230B3D599FECD80C3A42A28B640CAB75D378BC
:20D0C0007DFF7704AD39B1E3AF93C0A2EE9F7C0B1C18464AC7243F4E2ED6B87252F7EA5D2D
:20D0E0005006E726ED7DD1BC73564A86BCCE2B468C697943243695A71354B22650B58CE04B
:20D1000086225889AF7FF6C7E4516EDB737D9A843352202014CAA415FA0D3B6FCC3722CB12
:20D12000C75BB07319C889CAAB8B15EB3E35308DB9DE232AC169D3608B0A3997EE0612E480
:20D14000BDBAD82D53DFF08E6F0C25FC437C5528C7126AA6539A8C4F6D5296E4E0A9C6F49E
:20D160000E46B8FF864C95DBD9DD8857AADD711F05F8DEDFF2E637AB49ED389FC7A8A4C260
:20D1800062083830DA98DE79910524449CDDEC381A97651CC4D43A3CC6E4090FCE8C1618CF
:20D1A0006206410A764A352F3E8CE30A41062F3CAFF7E8A4F4ECFECA8D3EEF7E1ADC83BCE8
:20D1C000B54AB9D383EA01C6887BABF3C0DFA0F26B2150C0A8B6EB1D4503D432D6205377AE
:20D1E00004DC8AD42801AA0719D9664541F0A824F71C83B809BB6AFC973C9F7428E1ED1118
:20D20000F7C29A558E1698B796AEFB49EEC2B098FAF06BD43E82E1312BF0388C38A5BB522F
:20D220003506D39EDCB132A1AA025247EDDC1E171DA6EF5C6F93B982A82787C22FF72402F0
:20D2400067B01BF63B5AE28CFBDE538766C65B690845F697C6775BB8B7E9735E355C90E85C
:20D2600034C65CA7D39A103F3149E6508209D05662D56ACE68B52D9BFF3FE6A7715E67CD72
:20D2800045527DF7CBF82283F54CF3EC682CE4A6D35F324980D599F22930C8E60C8412792E
:20D2A000415B662F4CFD8120EFEE62A142B7FE2005E9365034600687DCC5FF642E56F7B494
:20D2C000D1EAFF967D2F95DEC6371BB83533888E9D7E5E2BACDDDC20C1057466FD5D7F46A9
:20D2E0009D0630768719C685222F06786B27E9B64623922111D482867FF80F37A42012F668
:20D300004CB7E11591407DDCADDF0C2B0C1B8960A6E2BA7B8BCD6281BFA6B91E4928198DCC
:20D320008705FABDC42E20AC0C4E13173F97D05665C2BE824151E3D82918586215FBFAD4DF
:20D34000F5F963B4486A19BDEA8404862D24265F2CCC867B5CE76D556455D54C2F231F9099
:20D360003F9A0442447CCED7ED8AC8BEFE49F342A306FAB1031868BE19651924BF28EE8CFF
:20D380000CF1C5B1E0EDA9C2BD674508D98F9FC8717A036B5F6B3CDCEF510B32EF90D18F0B
:20D3A00005048F4746431045032365ABE67D92B93E3087F0986852778F2092BDE5E52F60C7
:20D3C000D2DD484E9B096D2A67C70FF14F9B34DDB42E6F89D5971057A0DA980FC9AE70C827
:20D3E0001A84DA0C0AC42737905A2B203971EEFB797EA47E3E81DF43CB88046EC474FB8F34
:20D4000085FF2BCAB8FEA63527E4A081CE8826DD35280D17FDAD2804B830BE23FEBE3A7DEA
:20D42000BD5825CFD03E52EBD36E585C366745499132919C37A351620EDDAD759E1494594F
:20D440006797AF65780D93233DFE3AF99996B40834A61A5417ECC4257694BBAECCFE71ED57
:20D460002EC2B0D2D8F2D1A30D9F2E9F1E9EDAE2C88B8F88C20FE715975FCF15B20539FF0B
:20D48000B7E3125F1A757434EA561C97ED061E9EF2EAD780639424FA1A45D1F175B055586D
:20D4A000AD01BC54631EE49E7C2DEC2A2F56EA065CCADC842004E29BA64FAA8B40882BC073
:20D4C000B62596F9DE7689A96C2B869D0C17A5E0AE3385DC21E688C1E483402B391424FF26
:20D4E0007A568895B004CC1D6258D33BABD0B6F58F2EBACF8FC280347BEB7C1888DCA8DC87
:20D50000A39C7A72045013C105BDB94B3509870DA8C163A6922131BC148F469C566820208B
:20D52000D6FF54D600E3C75EFE612114D14A7FF0A1F769AA51890321577587FDCB41F2933C
:20D54000BD88FE0ACC4451BCF44DF4DFA81C066521D5B220F5855E2AEBA725840EEE88FD98
:20D56000003E605691FB17A3908718F4E2068435D0652753A59AAAA1792D0A7948F749269D
:20D58000472A6301779183DB7A19779BA691612858AEB08A8A524F4CA80D1C24A0E59CD648
:20D5A0003952ED55A58DFC2B590AF81C1C4306065EB8360CCC34B5F3215145CC3F3EEBD4A4
:20D5C0007EC0E7984477E95DD66382BE6DA7D9978D8C9F2292C845608C016CBB4C8D9DE9A4
:20D5E000BF7C3A137BD8B437982BFFCBC14243A38A31D5140497655A90237937F0571ADD50
:20D60000A48CCC0E7337C482486A56893F9EADF100AFBE2A4C287EA8D5C153895326C978A7
:20D62000D4FA87D1531C81058D296F4110427D4A950F44AC8F03F91304E2E4F99C811481A9
:20D64000F8CE52A3440F538A106F323A5BB61D76F1584EE1F8B13C63C58F13CEF4F162C252
:20D66000B70E14CE6E99A2D7784487BE4983F33DBD92C312ACB9B160BFCFC85282FD1C01A8
:20D68000BAC4B798F841D6B66EB0561302306967A1C58D87D6A3BFD19BAAEBCB6F2DA807A6
:20D6A000A8F7224A0B9057EC9ABC8782AD45E5BB44FA93889CF8CD8000286582E2096F9C51
:20D6C0002AB03D2BCE0D8E44A36F0253734AD1024F39BD5D263F453397521CBF041AD987A3
:20D6E000E8F6F0856A40E18532D2AFCE7BC894046988F34D9D008EB3082FF9CAFCE74F929E
:20D7000089D1239E06B1B976EEEB763BEE4796893BF11DA129C410C8FAC7E4EAF3F8378347
:20D72000B649BEC0CBE97FE180C440E1F34D3F596D7B23A2F11133391523C66811D6FA2396
:20D740001667A931E16F998C8F65F309B364F73BA62EED951E725FD0024A858C7D08013A92
:20D760005232CD396FCB713FC4D479FB551326F98E1364C5D76CFC5369440B9E6016B39037
:20D7800011B310229D866DC4C71BB8FF02E33459CE316E794589728BF11A3EE6E18977EC87
:20D7A000FCF05B329527F7E23F429A5DE25A89240E91F4F89050294043D308AC29E8B7187C
:20D7C000BAF397B37C367660D44F065C1C028D21F539DF8BDF498A3A077750375FBBDADA22
:20D7E000F4C4AAEB7D3B52072F4CE345D963A91A2C33157A5AFDFB40E40FFED0AC8B48FB6E
:20D8000052697E23BDBFF29FF8401B60400343D55B87800D2BF3E51C82A2F9BF38DE684366
:20D820007BECF9A2674AC0F0D63495F57A6CC51C293B078C77B3B1948A382B4C2A3FA47905
:20D84000185405B2A16223C1722F394CAE2695B53E59913E69C6C571A4D97BBFAB33636750
:20D86000D0AA8999939183DB7439EFAD05B71D6843E8086C26B38B7A778ED15FE2440ED347
:20D880004CF56CA0675E4907835A9F5FA7A9C3FFE0F1535ED9026979AC5E1575F8F90B86E4
:20D8A000343D980F4251DB0B479B31ABBB84F140BC7B5A5CA83CC934EA522F4914DAC3482E
:20D8C0002F8BF42E4EF3A2AF6A038DD969CE0EF5808E05AEBBE81275DA7108235F709EE01F
:20D8E000E5E66844B3CB06BD919B9C31DB1182E4D3323C9B3B8EAC0224C3864B01420518BA
:20D90000FF56DC9B996270FB666A44FA36D4B4D65E70E76C50B7FFA36F50920821D95EB602
:20D9200025E33879273E463391786E7EA5A00E92C94FEE6A21EA7322632115A4E7BB1283F2
:20D94000FE96642785E9F12BBACD03034EFCF7E2BBD839DAD7AF7046A93DF5657C728A478D
:20D96000337649EDDCEBDAAC8872E9D25970D78CDC12B007998E5ED6E9AC1C9408862DCAD0
:20D980006B8BCD1254CA687DA36E0A33EF841759D5053C389010A59BCA777078B27D62D3C3
:20D9A0004FDED9E014100268B4C94C6D38C11D114EB9C3B4E4BCAD5DF5A5DB5BA3E1932C5B
:20D9C0008776569D45441233638B99CA5BAE527CEE372EC4BC1ADEE3123E44830339279B9E
:20D9E000BA5C2A920EEFFFA757BDD89080D41E615E8666B040B3A1F7C84B9239F90E86E98A
:20DA000090963F079898318C3967F108D1B9EA8A46AE52C09A0E5C5FBFD2AFC5ADE718DE1E
:20DA2000B32E7B440AC710AAB08FCB7A73E71CBD4CB8D93CEFB479E4A0DE826F484C444163
:20DA4000C82BC8908D0504C8653F502E91E61EC31BABE56B6A2B5E4E1374F37FF2C575DC4B
:20DA60007A960D3549D875B0FF7E676B513C5664598F5D9630FD7565BF9EEA3CD2DB1075E1
:20DA80006E76327965CBCB282755F87BDB732E67AF6C28056CB124F14D634FF011157ED520
:20DAA0004FD31EA50A636EF985CAECA458130C96C44B300044D0D5B964CC0AE1D6FC27C408
:20DAC000C3B6BB005F2AC6EBC0E8292FF0A25AB741335CCFE0E1EF86ADDF04574A1673099D
:20DAE0007226F0D48DA73CC581B49864CAAA7F93CD2D94B9696CDA20D0A6239C95EECB6ED7
:20DB0000062BA567BB6236516F38218A0FB2E3F21140C00707FAFD4F742950F7DE0995B9BE
:20DB200024CDC20312E41D55337BADEAE643EE9CB474C902E112C2DB416F74AF4DF13AB34E
:20DB4000761530EEBAB45A9A748522CD78E408585FD195EF203C908BE180750D0C2D232488
:20DB6000A40AD570DA5A53E8DB5F6A79ED1D99EFBA600D19EB00D028F9643D594045B7D46E
:20DB800056B49AD39A5F720610106B376C76092A6C2819C76BE7E87A3423B2DB14C15D8AFE
:20DBA000331C675D234A1EBEBAA00F4E1D78C0CF1E31A240C878414937C6BEDAAE2A7F1037
:20DBC000E34925589DA3BED681183C0829AA27A677848ECD293C435DAD5548A03608842C18
:20DBE0000F43BA0A30F3BC170F7FDCABB894A4792028C7B6B6B9567E3CD63773D5E1D4A7A6
:20DC00005F1310BC02C07F4909DDD680F1BFA00EC02533439979E3738C53759CB23FD748DF
:20DC20007AC00EB53E956F341A3A12CFFDB2842E0084BCBCF704500546D3E962F7A9F5D9BD
:20DC400009529B3F0AF7F49FE89F78E004F5B6A1884C4968FBE007FC125F7B0FC9A8962047
:20DC6000B3D2A1A08E7076541B13F0FA2D11A02FFF85C190CA976E2097FE13EA52C322E77D
:20DC800021470721F4875D195C9F6266A08DA8A00E380E7C8FB1EF387EB8993ABA8201F45A
:20DCA000FAB9B50A61C511B7534AB66D86F138BB5C6C177470B4F10E6E95F548296D9B0FE4
:20DCC000E73192A3FFB0FAF6A71CD45507C6B7499229C4C0952ADC68109E105CC60D580216
:20DCE00090B58833F6D2819D001DA4664A938D125777FDA7279A170F0CDAD0BDB9E9A194F8
:20DD00009C507E046EB30C7608560FEA78E021DE545FAA724E8D0CCB09521EB52B89DC8C79
:20DD2000B4075D5C8ED9054764CEFB27B836DD7530E8B36A318A2263AF0CE38A447673B3AB
:20DD40007FE40B847ECED2D9BF8D5266331B289F941B00D4F919C1A1A81205852B37CCD187
:20DD6000A6EE71C4671ADDF4BF9CFAEF101A6A2328FE7AFBCDC2514B996C6EEE095451AE0A
:20DD8000D02D776371438C5F0C02DD0A78B80CCA939C0726D60E3A2A2D20040D055668113C
:20DDA000A6AA06ABC3D349E44FC7E1FF937F745C7EFA909C3C84E5060A38B12948C47BC312
:20DDC000CF6C04E286527B4930F4F01588F60BA19022FEA626ADB8A7D8BB5B8CF926F18D94
:20DDE000F47B5B51E14689575690F19680A53960721B378CBC0F1CD440B2EC7C41053235C4
:20DE0000BDE0F140FD39DDD66AA3CBC8A2156763CBED259628347A57E9244B4248E7A68398
:20DE2000D1A2B0F701B2DE8E133668F417CDFB7044A1AF0C8FA438F67D1960263557B54116
:20DE4000D9C97EBD163AF447FA4FAF6106555F50853DBC351CE5C07AA19A136F30DAC73546
:20DE60007C5E45DC645887C8C7F988599836F9CB35CC365AF48178AAFFAD4C6763FA442819
:20DE80006368EC9A1294FFDA2139DB22F5F733A8FC5304C34200CA503F5DF354F43E94E396
:20DEA00036EF5B404976C545B0199005442074B184DC0EB82CE81D3209AFF07F0B2E1F2BBF
:20DEC0009CFC7A1530873FD11DA0904AAE3A23AC726E3C81DAC3D81A03AD2B30D1534DCB93
:20DEE0003D953163F04ED64510D6C1395ACCAA6271127665751865CED85E8DAF6D34878910
:20DF0000C2C56870B053F26B30C40C1A705E709B27CFA4AD25702B162ECAFC43085A332F37
:20DF2000D3910786991FFC09267159341A78DD1E3CADAEA2115292BCAEFA6135CA4BBB8307
:20DF40001703F6EBD3395AE899E691D07EA359B559B47C8962460286FFF5A5CDDA91854E83
:20DF600037221DE7852976D032299A36C4664C2626EDF6AD3FD4E33EC9C3AE5361B4FB57AB
:20DF8000DAF664C4D778B78999445EAE154A1E3A4A5F0555D1859DAAB66D660F863A836877
:20DFA000A988B4C8F2AD84DA753EC48099D637B96E128FC840E098936CFAB44972AD8747EF
:20DFC0004CDFF33DFE50478C6F20B3F37792006B390F7D4FB36E3DC093727F484C946EBD13
:20DFE0006A030B6922EA67672EF11550D806DF18545DB83252B5F2FBD4DEB1553D78A092DF
:20E000002A4FF1F18F04F1F0204D7448ECFF8C482075744CEDFF8C4C204D7448ECFF8C4848
:20E020002075744CEDFF8C4C204D7448ECFF8C482075744CEDFF8C4C204D7448ECFF8C48DE
:20E040002075744CEDFF8C4C204D7448ECFF8C482075744CEDFF8C4C204D7448ECFF8C48BE
:20E060002075744CEDFF8C4C201E8F7620768F7B20328F7720348F78205B8F79205C8F7AE9
:20E08000201F8F7C20338F7D20358F7E20558F5720568F58203C8F3DF04D204885473048AC
:20E0A0001F4F8647F0482F4F8555B6552055D0572F4F00468046F075204C854B304C1F4FD9
:20E0C000864BF04C2F4F8556B6562056D0582F4F004A804A20BC0F4F87BC20BC8483B4BCCE
:20E0E0002820AF3826381F4F8F38DF22F03820338F3820358038201F863820BBD050F038EE
:20E100002B508F383038813830388638203800C087C18FC0B7C020C100C28F3887C2F0C2EB
:20E120002250D0C28F3930398639203981C224388F3920C3073917C38FC3035015501750BD
:20E1400009508FBE00BF8F382138848220BE84BF00C174BB88BB22208F38F038200200028B
:20E160008F3900398F397839783978398F3978398F39C01040398F38C04140388F382038DA
:20E1800010ED8F38C012403800ED8F383A3814ED00EE05EF14F006F08F39203904390539D2
:20E1A00017391D398F1E20EF8FF020EE8FEF20ED8FEE20388FED290812688F3863388F38C0
:20E1C00063388F3A2E1F00698F698B6820A88F3820A78FA820A48F39C011403A8F3AC0400D
:20E1E000403A8FA420A410A88F3A203A133A083A00398FA735A700A805388F1F22208F385D
:20E20000F038200400048F3800388F387938793879388F3879388F38C01340388F38C04282
:20E2200040388F38203810F18F38C015403800F18F383A3814F100F205F314F406F48F394F
:20E2400020390439053917391D398F3220F38FF420F28FF320F18FF220388FF120F189381D
:20E2600020ED103814668F5B245B00678F678B662909126C8F3863388F3863388F3A2E337A
:20E28000006D8F6D8B6C20AA8F3820A98FAA20A58F39C014403A8F3AC040403A8FA520A574
:20E2A00010AA8F3A203A123A163A093A00398FA934A908A900AA0438073809388F38163828
:20E2C00009388F3322208F38F038200600068F3800388F387A387A387A388F387A388F38C2
:20E2E000C01640388F38C04340388F38203810F58F38C018403800F58F383A3814F500F626
:20E3000005F714F806F88F3920390439053917391D398F3420F78FF820F68FF720F58FF61E
:20E3200020388FF5146E8F342434006F8F6F8B6E20F510F110F18A38203800F1146A8F5C73
:20E34000245C006B8F6B8B6A290A12708F3863388F3863388F3A2E3500718F718B7020AB07
:20E360008F3820AC8FAB20AE8FAC20AD8FAE20A68F39C017403A8F3AC040403A8FA620A6A0
:20E3800010AE8F3A213A043A063A073A193A00398FAD33AD05AD08AD00AE04AC16AC05ABFD
:20E3A00007AB16388F382038063808388F3520008F38C01940388F38C04440388FE514E613
:20E3C0008FE524E500E78FE78BE6221F10AF10AF00B000B08F3810B08FB0C0224D828F3994
:20E3E000C03940388FB82EB800B18FB18BAFBBB1223310B210B200B300B38F3810B38FB3DD
:20E40000C0224D828F39C03940388FB92EB900B48FB48BB2BBB4223510B510B500B600B6F3
:20E420008F3810B68FB6C0224D828F39C03940388FBA2EBA00B78FB78BB5BBB7CE1F445BB4
:20E44000003617368F36CE33445C003717378F37CE354434005A175A8F5ACEB8445B005DD7
:20E46000175D8F5DCEB9445C005E175E8F5ECEBA4434005F175F8F5F2F5BAF38205B10385E
:20E480008F39CF3940398F3A203901388F39C038403900A100268F382E38AFA1003A10C44D
:20E4A000009E8F382738AF9E00C48FC42F5CAF38205C10388F39CF3940398F3A203901385A
:20E4C0008F39C038403900A2002A8F382E38AFA2003A10C500A08F382738AFA000C58FC57C
:20E4E0002F34AF38203410388F39CF3940398F3A203901388F39C038403900A3002E8F38C1
:20E500002E38AFA3003A10C6009F8F382738AF9F00C68FC62FE5AF3820E510388F39CF39ED
:20E5200040398F3A203901388F39C038403900E800318F382E38AFE8003A10EA00E98F380D
:20E540002738AFE900EA8FEACE1F431F00C717C78FC7CE33433300C817C88FC8CE35433527
:20E5600000C917C98FC920C400CA8F382A38AFCA00D08FD0848CB4D020CA849620C500CBD3
:20E580008F382A38AFCB00D18FD1848DB4D120CB849720C600CC8F382A38AFCC00D28FD282
:20E5A000848EB4D220CC849820EA00EB8F382A38AFEB00EC8FEC848FB4EC20EB849920C7DA
:20E5C00000CD8F382D38AFCD00D38FD38490B4D320C800CE8F382D38AFCE00D48FD484914B
:20E5E000B4D420C900CF8F382D38AFCF00D58FD58492B4D560367027007F8F382D38AF7F53
:20E6000000608F608485B460605D7028009C8F382D38AF9C00638F638489B4636137712B79
:20E62000009A8F382D38AF9A00618F618486B461615E712C009D8F382D38AF9D00648F6493
:20E64000848AB464625A722F009B8F382D38AF9B00628F628487B462625F723000BD8F38CB
:20E660002D38AFBD00658F65848BB46520850086008784842089008A008B848820848F3859
:20E6800025208F39F03920386845844EF020204E8F4D00728F382638AF728F38204D683887
:20E6A0008F4DC021404D8F4DF020204D794D8F3879388F3879388F3879388F4D20888F383E
:20E6C00025208F39F039203868498473312011200020DF22F02020738F7500748F38263821
:20E6E000AF748F38207568388F75C02140758F75F020207579758F3879388F3879388F3813
:20E7000079388F75C01AF1F34D01F1F08F3E283E8F81203EC01B403E8F59C33E403E8F382F
:20E72000C01C40388F1D2F208F3827388F38F0382859081D014F0F4F8F3920406C398F4085
:20E74000201F8FDD20B88FDE20338FDF20358FE026208F392239AF382038DF4F20338EDDB0
:20E7600020B98EDE20358EDF201F8EE02038DE4F20358EDD20BA8EDE201F8EDF20338EE0ED
:20E780002FDF8F392FE08F38F0DD3F3900D685D63F3800D885D8F0DE3F3900D785D73F38BB
:20E7A00000D985D920D7D22320D68138202310D68038C05140528F3A203884E320E3115215
:20E7C000D03A215280E120E31152D352205281E120E38F38D0E11052803820DB00388F386D
:20E7E000F038C05242508F39C05340398F3900388638203884DBB4D6B4D720D9D22320D889
:20E800008138202310D88038203884E420E41152D03A215280E220E41152D352205281E2F5
:20E8200020E4D0E21052803820DC00388F38F03800398638203884DCB4D8B4D92F4F00DAC5
:20E8400084DAD053B0DA20DB8094B0DB20DC8095B0DC20540F4F8F548452B45420528F23BF
:20E86000304F8F38F0BB2F4F8F3CB53C203CD03DBF3B304F8E3B2F208F3A263A8F3AF03A57
:20E880002038683B8F382038EEFF8C3820382038203820382038304F8F382038EEFF8C38A6
:20E8A00020808F392339AF392039F1F18F11F1F026208F3AF03A2F4F8F397839793979395C
:20E8C00079398F398FF9F1F12211AF14F1F002F9AFFB8F39F1F12114AF13F1F001FBAFFAB1
:20E8E0008F3AF1F12013F1F000FA8F3B21398F39213A8F3A213B8F3B203900390039003925
:20E90000003A003A003BD0F9304F8F388F39BE3920F9DF22304F8E392F208F3A253A8F3ADA
:20E92000F03A203868398F382038EFFF8C38BF3A28208F382C38AF3820FC0F4F8FFC201F4C
:20E94000D024B0FC20FCD038203A0F4F803A20FD0F4F8FFD2033D024B0FD20FDD038203A07
:20E960000E4F803A20FE0F4F8FFE2035D024B0FE20FED038203A0D4F803AF0BB2C4F003A8A
:20E98000853A203A8F80FFFFC83FD51195D36B9C4CE0E97028887B58D39C404A7C60FB4AD3
:20E9A0002A8E0B8C509D9DD9A14220332538F9BC8D3D78D4C45D0B82C672B215B5ECB30B3B
:20E9C0002ACE8F31C9F9340C18AD7478914DB68FF562ECCCE4E3C570ABB423255D6CCFE27D
:20E9E000255B6C0EDACCA9E8D487BB26FE9A0BDC2D592BA0B0A40FEC29687AC49B68B6986B
:20EA0000C33E886BAC9C63357ED8DC8696A85E6DDC2A1F98512752BCE8989F389769D0F502
:20EA2000AD7ECD9066F4CABBBDA9BFE081FE1808ABDBAEFCEFF4F7A9914B79C97AF685C045
:20EA40008B2321C4315946413A014C7CE724A2764276C213B194647BCC8AF2C16C983DC32E
:20EA600004366E5135553F919CE86BA1EFA3627F48024226C08E03FA405CF16694D660C4C2
:20EA8000C1BD9B7D996F1D718C660499C102C2EA6688167D446A3BEE96C95F021B38568CFF
:20EAA0006AC39091863048AAB284FFAA86C92981430F266064B1731E75D922DB284687E3E7
:20EAC000A64D35D4231E2904B549441D6681FF0A889F5A1748EA155386952339E4895C907B
:20EAE0001D65729099C326463EBEBB3A88B1AB4EDC409AE9199D885571044A6677883B5DB9
:20EB000078122F0B0FA7A83AF4E94D4815E19715E8FBCE20FF5234ECDD2E80A908CB8D109F
:20EB20005F5D548FAE5018A680D4E09134992A2753D7DE02219281E0721CAB49BFDBBB7230
:20EB4000794CC9629D48DC5389875D5B0E62CC4BC6DDB2D8A8E4D7F8D9D5B48FC53F2B4B6F
:20EB60006FEA76CC05175E09B808ADEFCBC3E54BE91432E9BBD19EFDBA6184C3427F476351
:20EB8000E83C43170E43048FB561B6959245DDED6384477F83E03EB8BCC9022D5D247681DF
:20EBA0008D4C1989DF5638AF279A62948B6E1DFADD35D7E028991FEE881415143FB51F6F19
:20EBC0000621DE6CA1D8612FB6B99836DFC90B39FE30CB55D184A96AC64AA7C210BAACF3FA
:20EBE000FAC37C067B4FE6D80BC840C1B6DB10746F7C0C26A62A45F31D749F7DF7BC84D686
:20EC0000123BD9A096453172CECE417E372E9571D721819BD01259503599E48E1C420FDFBF
:20EC2000F590DF811A41A9C5A7D485B58B4900F9DF2811FC77C44F4AB7C1603DA8D4B5D89E
:20EC40004BCA74F32ECCB6983CE1F3AED9B4BAD42F98A690C2C98DA94BF4FAD1C3FADE872D
:20EC6000BEF2823CFA6DC0B538FD73B04AF82CCA6E7927A0DAA87D35983B9A94943DF2B65E
:20EC8000F40EF0A5A7AC2FE24130ED04069CBDA344D37B74E7E985B5479D28CC4424592B41
:20ECA0009529A6765D116CE8FF8349F33428D4265BAF8C5410150FF3FF238DC2FA387BAFC6
:20ECC0004A488CF74325DD8F1CFD6FC3FD24DB1D581441887DB382B569D4AFBEDFFFC109F9
:20ECE000BB758A70826FEB9E3DA748BC8819394EE60B8257574B46C42DB877071B039103D5
:20ED00008FB788284177FEDF0C87BA28FE8F5681AB9B370BC665C3E8F2D7CDE7D5CC54635C
:20ED20006E176E68A9C67F1831A8AE4D860C9A804FCC48EAF18A61E8603A9AA436E073F28E
:20ED4000029B2478E2E3D412540F0D75491A6D127BA69E3D0141888E20E8C48765C9547867
:20ED6000F04D92A0135667951CC6BDE66E4037FED7321F4B1D13A0A0DAE935D88A0F61BDED
:20ED8000E335A12865A89F6931D4A8E81E07600D0A77B45E6E8711E73546D3DFCF38018819
:20EDA000815A3757FF60E3553C41B4C581F55007BD7D46BC1C25432BDA0688E45ACE9BA2F4
:20EDC00072C43D7609069D22E515CBC3BE946FB4974DBBAE4E759E3471313B2E535999D479
:20EDE0005F7B9CCDAD233498D359D42CFE6C26DB41EEFD7C2C008BC9A1D0D406E35F62E4A2
:20EE0000F0883AA4113E107FAF15B7466803DB466268F26EDF4D70B412E93AB4326A5E9A7A
:20EE2000CCF201435DDF999F204F5C5A25E3F7BBA3C484CC8FE4B6BB6D8757806701F5C0FA
:20EE40009CC1D8F1BA8E37C0CF11ABAF5C94E303AC099ADD634EC6A75AAF12B1AAAD8F1C25
:20EE600007FDA6F850D452A963628C8F369C06E6243F1BEA8412063F806B539125F49478FC
:20EE8000B6AF559E46385223854BE740DB85C72BB36FF13B1AB8E04D88C20266FD616C9A7B
:20EEA00050DFCC2CC4439FF6DDD2A40B72D7909C02A003184CC9BB9719BD08795D797F4AA2
:20EEC0007E93F3E9F47BA1EA1202AB382318C8FFB9DA39C942CCFFE7DC624B126BC6365275
:20EEE000E8D5B21FFC6AC0C6CDE0E40F18D2D61D80257B952549130379BBB4794FCFF779F3
:20EF000035ACF11404986554B57637D8768C24BEFD8AB1C61DC861B397D02BF5321C2B861B
:20EF20000E219812358CF65A73CB8DDA68CF19A9DB10C3A251D250C1DEA799CF3C363B42E9
:20EF40001A3A8F5FB6CEDDA1AEE7CC5E14221DA8C0C09972EAEE48F3F84AE45094A48D7565
:20EF60000201BE43B0E680F10FD3DEACA20D988155A01C7D0FA5B1138AC1F6BD63EE8BE68C
:20EF80006D7E0E084B5D49123E96A90C3B18F2FD41BB320DE97EF4E73F12B561D09D9C5F56
:20EFA00004B865F4AEB99FCBE23817C607CC94E42C16C468A0017738BC470B83043827A6D1
:20EFC0006FB7AD510285E9E5A3C20F212DB0E4FEC0BBBBD75BB6A3CDAC68DF6A26479685F1
:20EFE0005583CC656E4691292B3B7866D54D4B13A2B1FDA24226E070B57B185F5F5250C1C3
:20F000005E25AC791B86FE5C1FAB3CDE292932EA7D0074117ED897E77F8AA0AAD7E2BD2537
:20F0200033A433D431CC98492A1A42CE4ECEFF4CF7B1066C37542EFBB39C5E93B57E45785B
:20F040007C084BC0D7A1C7B7F29172816FC41C01B8CA9DFA94230F74F9BA3A6222AF508121
:20F06000E059DB83358CF36D1F17B43EB291EFD169562004BECCA01AF8EB1C5E45FC460999
:20F0800008A0CA66741584345AB5F04C3FBFE284B25A77D2DDD74BB55937ECD047ED8FD8B8
:20F0A0009CE502B1BCC4E2D44B720EF43FD65BE13AE08AAC18CD770CC3A692004F0A93B681
:20F0C000432E6AAC342275159956F67EDA5CC4B1AAEF41DA97358BE8DF41F73686DCBB6BF3
:20F0E000A585EA9F05B6A6BFEC69913237DB84BCA99084A38397F111550F01BA13EA6DBE10
:20F100006BF16AD15608DB99EEB4C5577FDA03CAE0CA3B51047B104FCC1899D31FBC1279D8
:20F120003D7BD28B50A17D6C453E7B37D9E2A9A3F7A54E2A416A506AED65A8CBD2DB136244
:20F14000C2290A151B08F500990F9C186E7ADE0E9529A57763EC19295FFD14E853CED64261
:20F16000A305FBB7DEC5AA1D93300E43662A0AD5625F287F9187D355CAE9C773CB1DC5E026
:20F1800088178BB9C261038BDAA8BB00E87A95BE084EC08CF4C5E6B6D82FA7B36151470692
:20F1A0001766A362EE636A11177F89971CF3E7922CFE53E4B42DBB142FD99EF23EF1C37AAE
:20F1C000FBFA2CFB8A534679F2BE624F2B1C68187978CAD0F847B83777EE93768985A30572
:20F1E000DADB0CCCC0BAFE89126C2D713D7D811A94C30E98E89C46E759776D896B964E6FDE
:20F200005D122D1DB61FFC0A2091D245799F985E28E70684ADB3CEEB7C7B16710CAB2C80F1
:20F220002BA57536940AA7C3C3363813080917AEDBED99DC6F14B60C8A027576934CA500B4
:20F24000ED9FCE5E8303677EA4614923124364D055DCB1E755486712281572E2290121B620
:20F260004A051FDFAB93A4016B1DECBCBED6E98C3FBC35EE88D64AC500BAF5FBF553086B35
:20F28000EBE150FF3341C615BF6F092834490CAC41960C393046C6ECBAFBE60B20C9C2E7F4
:20F2A000773A480743963582486189AD9D2437F60271201073214251FEE02D58D1ECB7F25E
:20F2C0009719F13F05195A10AFFA529421F0D1342B5558BB7CEE28BA7270B32B314250546B
:20F2E000F38532EE9F529B879C424D25E734422C634A9C817135DFF0C1B35ECB6855F3D42A
:20F300003286F35D39C961AEB64262A71878F1A75359D4AC7B7FCFBB91B117829DAD093C91
:20F32000FC241CD5FC07154EA6017A64DB45486CA389E882C15260E28B73C796F8D0FB52A2
:20F34000FB68969C0F931D2F13877BA25921AE45FAE3C14C6C39FA2F56005450A2482FDF5C
:20F36000D45947FA9BF5E319A6DD4FAAB9978BF8006D4551A3B905689A60A8F8C39D0FAAC5
:20F3800032001839C8B6CDD4070ADCC4242C484E5E315DDB8F5CE956019CA9D68255027DD1
:20F3A000BB63F1A0BD5D4527DD160C37C26A4B0FBC37F23057A90EC131BB413108FA6F1E8B
:20F3C000178CBB76A372B2DCD10AC54DBAD8FD03C185EA992528DD71D2C557537D13C056EC
:20F3E000EF835C04A17D7CB98AEDF14C35FEC6F116252F5E1E62BC2D8DC3D28208295CEDFB
:20F40000EB4EBE92E0070A87B1C7777D5A650FA3631FA7C76CDE14BE0ABC9C07D1C3ABABAF
:20F42000B2F7C7678897C60DEDA13F2852943EDF4F793C1C37244EEDF0B89C2A0169155810
:20F44000ED8661CDC0B61715E78231954413BD6E823DD5A4A6BDD080E7BFBA32C0A402BB1A
:20F460004301730AB0EB65654672350B596BF218A57359A8E230043F99DADE6935FADA9DD2
:20F480005D72E56781BE19C7B37933D4B92347A46021B270130551F4AB10F01589F505C62F
:20F4A000E2E09F2C5BB79900D6A013368BC322DC5A51C7445FC51E65C86AD87FE31DEBFE3A
:20F4C0007B5488A1655F4EDB56EEBD7AF8D4ED863C0A806CF1F7D55B96EE7EEF6CF9F50DEB
:20F4E000D0D58A0EC83DA01FDC6C19E727DD0F6BAD55C52FEF23DD9EBDA6CBAC4C1189BA48
:20F50000886B8CBAABDAF8930F2010C74066F05356397ED782D29EF6E69AA500AAED11CE4C
:20F520004C1E77EE37BCBC01981488606DF7F806DEBE93AAD18A802BB9D1F631AE16F312FD
:20F54000C3F731F2946D562F1E506AFCD4198F4BEFECECF105D6EB04DD53A4888213994B56
:20F5600096FDA30EE9752CE54ADA9FE19D531DEB2ECC72F3453B474BFB28984D4B6C69445F
:20F580006C39B58A5E5AA8EDC4BC0E57F12E0AAF45650BFABA43FCC6BA59BBC834AACDC40A
:20F5A000EEB150AD1DA6300E33FE9EA8F831BE5CDCBFA04C8B75723EC3ECF44162542C9265
:20F5C000C46F5AC04BE02E0F3FA6391AD9E4A2BD9AE31A32E159117ABDEC2AFF00F2ED776C
:20F5E000957BBD0B139109B991BEC6F7BDCF1C9928D85FF4E4784244515E474B340C7A3B15
:20F6000009DB5FD69B4029D4D14D2C85CB7B95B72DA659DABB596B62274C326D262B3AA66E
:20F62000C9992A690B75F628A75C550D2C6F76E05256EE2C8F85F69DE6BDD3AD00D6957F6B
:20F640007DBD040B8CB9D87CB9F228D6073325DC3FEF0831878249BD36BA1252E796F3901A
:20F66000CD4DD70646923799B2178D2A85500C739B798E32CCDACE8AC14AD7A605F2BC9F6B
:20F680005F538AA0608B7B4838D36C4FCE4D916D0FFD68778514EBCC2C750AEF827258756B
:20F6A000DED6052202290C4FF32FAD8E09B21E9142817E48DBB90A4A22439376869E30DA15
:20F6C000F0DF30D456F652768D32392F5E081AA8DD10B8EDF65092CD49BD5A8338FFAA9663
:20F6E0003D75F3FD8179B687ABE5F67AF6D5ED7A87AFFEADFD61EB1D49EA485EC01C2F7064
:20F700006EA036E6AE3A9E48F84ECDB7F9A4FECFE96838D219757C02CBD3434E477D28310A
:20F720002B68E1D803C273831977A62D8FFAB76FAA424EA27113AF44777E349CF5ABFBA15C
:20F740001BD6DC19A8989EFEB9686A25DE617F22734628662EC3EBAAF4F50491F12D128854
:20F76000E7F10FF1C64485827E28FFE71160BEAFEC7AAE65770D99FDEB409973648BD3AEFC
:20F7800037C262AA854F92D610BE4FBB4E80DDDFBCE8C9E9757A1F050365DD8A754EA8DB48
:20F7A000B14FBE8B0C402CC4183541E9BD47427A8C985F384F91E68AE56EB7204DFDF8D640
:20F7C00000A209DB849FBA123E92BCB8883F56480390599B2EDA565438620E7B13202A68EA
:20F7E000CAC32DE314F5A68929DFAA72D4F08110CADAA05A3ADED72AA54ACCE4F040A85934
:20F80000B8B810EBE5C857F18224F25DCCE12C9C887E1BBD9A24D2D6D42DD8A30CE4D97124
:20F82000718B9C3A1FA33512F0677CC1959ABDB2E682B10C7735AD1E6C131A008E942577C8
:20F840009E44B71AE90BA8B31CB230E85AA39E1B8CF04C8EF897D2CB16057A439ED8F43511
:20F86000E6E94BD16B8A189EAD0CF6194185359F21CFD38C46D4A7A57909E0B36639AE7108
:20F88000F2843FA8CEA7ED994C7EB69B72C7EC054E282D4E887496733E2A34990B3EBBF4A8
:20F8A000691C7BE73AEB8F6DA10E58B716F12A17BA02441CE7FD06FF0C6D5E3DB8708486EF
:20F8C000F4BAE7D6D6DC67E253C6C4B5558B569B0D65FF3E8BF95F0F8CDC46E793556FEEE4
:20F8E0003B656BBDCB04DBBF0BAEE2DD561EDA5AF15A46FB9BEF086C657ED5DFC477E5F680
:20F90000E525EFE340EB54CE70CD9B7642311D1C0CE7019D40686BDE405BF16C745E4F64C5
:20F920009B025B915E173BD52B2BD5CA404D87A80617186AA1EBEF2CC57C83D8CB901301B7
:20F940000405970F4D12F69DE3D0791F79F980C888EF74ABE700FC209BE87469F0979B9551
:20F96000C9358BA53464EFEE41C570BE15BD70423A79FBA7392FFA806BA7AA680CFB4DE895
:20F98000919B209B3B938C8FED11A0EF3B21BFDFC3BC96A8C0015115DCC20F1D464293C186
:20F9A000053D3C388C29374A8EBCF3FA13AED567CCC02EF4A3FD6AA797408ACFC7F6D4EA1D
:20F9C000CC25C8C54CAE57E5CCCF5026C6EB1BA2FC8EA9D40BACABFE432902C7B69E772964
:20F9E0008F5BAD8AA6A8532951519EBC7C61F758FC2DF19020947DE18986614E3CC3E6474E
:20FA0000F6E5D1CFC0A195DEC24AC7045C96D25073A5EC70093F4919115E8EAA81EC880CE6
:20FA2000A8CD1EDCC22084CCCAC2B2468F1415530AFF84BCEF35756F82B97123ACA1C53F25
:20FA40004E1B7BF8D5AE88BA0FC247CA3D6326296942A0BBF9FC6BA8859FF203E66B05AA0D
:20FA60008FD5CF6D21D2097239516ED78C096F9A377627B6501E918FC119F99056D0B013A7
:20FA800014050481CD146FBAF1780FB7A790566E1CA303F51B2351EBDF2E6E14255A2E43E4
:20FAA00085B2017D01FC235BDF3E12B0B480456CC2D21BC08391128386E739D57A91E802CA
:20FAC00089E5AEA9E7138B1DAAAB5F0BDC5FA35DCE0B575FB0F23B205F4A421C7EFC44175D
:20FAE000C8A5F34CA4E010C7FAC7DF1046B7D809EB549F19C9CD368A116272305823AB4C9D
:20FB0000EBFAB8AF63EB1A23799B78061B0F4C38BFB7DB38F7AB6A894534AF5B318E866781
:20FB20009AECE51B4ABD12F7CD2E133782F067B2F23BF30261133FE5A3CAE2E331C63B3110
:20FB40007C8462D681DD5E0C9E8899E9A4E1913E2DE8CFC0308D1D65D22BF4117F5234724D
:20FB60003AC9172831D3682A95B2F065A86A32A618C758B98BA16CD37B5FCB2D44BAD7F233
:20FB80007BC4ED5B8228971859B302F3B713B2B05ADF74379BD894F5456F517FA7878E78C0
:20FBA000E87BCAB69B6352A09393B5DAF96579259B390C8087B9FD93D9626C4ED140C0CEFD
:20FBC00029F89880A50C0388EB5BF36495E7EFCC85DB09DD78CD1077DE4006E4EA6DD4BADD
:20FBE000E5433D02C7AC11990812A3D7B4227C6FBECF5196969A3368FD110687199634056A
:20FC0000C462A3842ACAE49B93C0AD7C7D9C89D4EE1DCEF308AACF2DDEDE548086444777A0
:20FC2000705FB04DF5EEE456336DF89B19DF7CC4BECB663CF7854D8F28AED8175AFE75D784
:20FC40008E414EA751A0799291226E7CAF73BF07D5E303B88AB11356848A7A93BD4D26EF0E
:20FC6000C91164D866690B1655E7F66668DEB865DD6C8CB0EAB88B4A9979223ED6B8C28540
:20FC8000C6D6D9295BD002AB26C278A36CAAD1A67B6FE96C3E221C321083B85ECEC7B16220
:20FCA000309897E2595EC619ACBDDD79E25E719159F30234AF752DD890B0243CCC025C4EA9
:20FCC000AD60854B8799BF2890DF0B31F283FFF01F00BF50653B2802C2094E20F9F22910DC
:20FCE000E5358BAC0E0B559F7A30EB12C6A0E589759E080787FB74794D951E517D1E8172BB
:20FD0000821F914C153CF14811B96566833D8A2401D6C5A33E3E7905DB5D7D197F0ECD3A3D
:20FD200029267F74C5B3F9E9FE81627354E3568B6EAFDE6AB18B9F6D116751BE274B733171
:20FD400084533D6C46F8D74BE990C8835F18B18562323BA5096A4E7B99BD84899E5CDD1F49
:20FD60003BADB47CBF93F13678EF81DCCC6703D98566C49B6D63EEF51B67FCC20CC971CCD0
:20FD8000F63CCAEC580DB17256A573C6C455B4508153629606FFE7A43E6BA3B1991B99FFFD
:20FDA0005C0968033BEC7EC629BA888B6F6C2CB2FB01FBDCFBC5A150ABD35F9E6BD9BC82D8
:20FDC000151B770A8DBBBFFB9A37A672F433D4C79E7978B6753E85C10AA71AD0AD8B411B58
:20FDE000CA7BDD4979FFDED95023B7C27B3212560FC2C26C9CF0F9BE02EDBB9085BA929388
:20FE0000232F840824424228F486A2C42EF24F29F9E4BF46976566113BAF2A261BED16B15E
:20FE2000C741528FB90B53B02D694FC033FAF40602E8598C8F2535805EF44FDA98AC353FDB
:20FE40005FB831255EE37939A4D3A6FDB2D267B6D2D57785ABB6CCD413C512F3247F570309
:20FE6000929D08143B511C8A00CC8FC5D403120112B3017A14A295D401295BBBE6EFE4C7DC
:20FE800009F7BEA27ADDA46CEA5CF25EC0145CAE6A8ADEB3F171F64AD1281278078344515E
:20FEA0006BCE3D18400F79A70A8CB7119F8DAC878163F8786BA959FC2ACA1F73AEC4E0698A
:20FEC000612B6CBEB87003030763C62699F76C5200453611AAD425B4B5186AF404381ED959
:20FEE000931533DB0787AB488AE907E5D5D903D88E3980C5D579C2381A19DB4331696768D5
:20FF0000A8947AB858DCD73D3A2763967CBBD9E1D446BEDE1521985000D55BA75CDF24DDF9
:20FF200049B0299ED1F8F0ABC024C080B52556357A74D8A291530FC60F55D06AAE20BB01CB
:20FF40001D7229D39A625F5AC3E908ECA9A0E29B27CBB75A72978F61F0A024D24EB6969C43
:20FF6000CDE1609FDCA28B12EC7C212280B3E5DC8354414DDF7580E84BBE3D2864291B766D
:20FF80000005B74CBF41DB9BE3E7F56A61E7C7C037165FC501764A24C7B805B31AFFB4563B
:20FFA0005FE716216AC6B9BC4F326A0C74C3F00FEB19FA08FF2155DD0D9562BD96C2C805B4
:20FFC000918E666506B98C3FD8636A4FE3CFC8914666F85F02FF09DAC55D3E8C00F9BE4CD8
:20FFE0003F028D61BAA3BBEA2784DC7DD393B80EF10443123296CFE596198069812D00F1A3
:020000040001F9
:20000000752C0C752D90752E0C752F74E52F242CF531E4352EF530E4F532F5339006CFE0CC
:20002000FF20E003028B2DEF54FE9006CFF0902843E07007902874E030E507902874E020C8
:20004000E11B9006CFE020E414902873E020E00D90283F743CF090284174FFF0229007681B
:20006000E0600302861D901063E0FF601424FD600A14600A2402700902861D02B83E02B843
:200080000D9006CFE020E42C902866E0702690283FE06020902842E064AC6018902841E0B8
:2000A000FF6401600FEF6402600A902874E020E503028B2D902873E030E02DE4F52B1293EF
:2000C00015B43AFA129236746FF0902873E030E014E52F24381292647430F0E52F243912B8
:2000E00092647432F002829BE4F534902874E030E221E4F52B74DD252BF582E43406F58357
:20010000E0600974362534F8A62B0534052BE52BB403E212949D606AE4F535F52B129315C3
:20012000B43CFA129236746FF0902875E0FF30E316E52F243A1292647431F0E52F243B125F
:2001400092647436F00535EF30E216E52F243C1292647431F0E52F243D1292647434F00593
:2001600035902875E0FF20E00330E116E52F243E1292647431F0E52F243F1292647435F0E9
:2001800005359006DBE030E13BE4F52B129315B43AFAE52F24351292647443F0E52F243658
:2001A000129264744C12925F7445F0E52F24381292647441F0E52F24391292647472128BB2
:2001C0002E02861212949D70030282A190287CE0FF90283FE0FED39F40030282A1EE940038
:2001E00050030282A1EE6F60030282A190106BF090287DE0F52BE52BC394034003028295AC
:20020000E52B701C902875E030E337E52F243A129264129574129264EFF0E52F243B804834
:20022000E52B6401701E902875E030E215E52F243C129264129574129264EFF0E52F243D94
:2002400080268046E52B64027046902875E0FF20E00330E135E52F243E1292641295741206
:200260009264EFF0E52F243F129264E0FFE52F2439129264EFF090287CE014F090287DE0C6
:2002800004F090106B7401F0800B90287DE004F0052B0281F690106BE06006128B4B0286FC
:2002A0001290283FE0706690287DF0902842E0B4AE0374EDF0E4900B3DF012A8FF7E287F40
:2002C0003FC006C00790109D120E72000002011292D812947ED007D00612433DEF6003024D
:2002E0008B2D90283FE0FFC3940350057405F0800812005690283FEFF012949D601C90281B
:200300003FE02535F090287CE535F0800D902842E0B4AC0674AEF012A8FF902841E0F47061
:2003200053F52B129315B43AFAE52F24341292647420F0E52F24351292647420F0E52F247F
:2003400036129264746412925F7449F0E52F24381292647435F0E52F243912926474501277
:200360008B2EE52F243512926474EEF0E4FD128B84028612E4F52B129315B43AFA7F327C8E
:20038000107D6712A267EFF47002EEF47003028B2DE4F52A901067E0FF5407F523EF54E06B
:2003A000C4135407F524A3E0FF540FF526EF54E0C4135407F527A3E0FF541FF528EF5460CC
:2003C000F525A3E0543FF5297401D395285006E5289403401A7406D39528400302847CE542
:2003E000289408400302847CE526700302847C7401D39528500DE52894035007E490106C27
:20040000F0800690106C7401F0E4F52B90426D1294CAB5070C90106CE0FDE4FF129E4F802F
:2004200009052BE52BC3940440E2E52BC394044021E4F52B9042711294CAB5070C90106C9F
:20044000E0FD7F01129E4F8009052BE52BC3940240E2E52BC394024023E4F52BE52B90424A
:20046000731294CCB5070C90106CE0FD7F02129E4F8009052BE52BC3940240E07401D39547
:200480002840030285DAE528940440030285DAE52960119006D4E030E70A9006E4E0540FA0
:2004A000F524800512956DF5241292CB7406F0A3E527F0AE30AF3112433DEF6003028B2D9D
:2004C000901067E030E40302857F902844E0C39408400302857F9006CFE030E441E526648B
:2004E0000F600D9006D8E0540F6526600302857F12957BC006C007E52924FFFFE434FF12D3
:2005000094D3EF240CFFEE3428FE1292CF7402F0E4A3F0D007D00612433DEF6062227E101E
:200520007F6BC006C00790109D120E720000234E1292D804F0A304F0D007D00612433DEFCF
:200540006003028B2DE526640F600890106BE06526702C12957BC006C007E52925E0FFE4E1
:2005600033FEEF241CFFEE3423FE1292CF7402F0A3F0D007D00612433DEF6003028B2DE53D
:200580002420E02E12926CA3F01292A81293021292A3A3A3F0129309E0C454F0FFE5312427
:2005A0000512930DE0FEC4540F4F129308EFF00285CE12926CA3F01292A8129302E0FE12C9
:2005C00092A4A3A3F0129309E0FFC454F0F0E531240512930DE4F0028715E528641E703890
:2005E000E52F2434FFE4352EFEC006C0071294DCE52325E0FEE4339010A1F0A3CEF0A3E500
:2006000027F0D007D00612433DEF6003028B2D128B4B12953802AC9EE528B41F0302B82D9B
:20062000E528641860030286B975230390286CE030E02BE525B4400312950D129585C0060C
:20064000C0071292CBE523F0A3E527F0D007D00612433DEF6003028B2D7528178038E5250C
:200660006440600312950D129585C006C0071292CBE523F0A3E527F0D007D00612433DEFD2
:200680006003028B2D901069E030E7071292A8A3A3E4F0752816E52570191292A8A3A3E018
:2006A000129466F0A3E01292A8A3129464E0129464E4F0E4F525028715902841E0FF6451DB
:2006C0006019EF64536014EF6461600FEF6463600AEF64776005EF6479700512936C80350E
:2006E000E523FB7A00C374049BFFE49AFEEF2531FFEE3530FEC006C0071294DC9010A1EA5D
:20070000F0A3EBF0A3E527F0D007D00612433DEF6003028B2DE52A600312936C7401D39521
:20072000285006E528940340117406D395285068E52894085062E526605E9006E7E0C364DC
:200740008094824015E024FE1294E99010747401F07D067C00124CC280E09006E7E0D36491
:2007600080947E5015E024021294E99010747401F07D067C0012483980E09006E7E0B40170
:20078000081294EA7D061251FC9006E7E0B4FF081294EA7D06125022E52524C0605624E088
:2007A0007003028832244060030288FBE52F2434129264E4F0E52F2435129264E4F0129289
:2007C000A8A3E0FFE52F2436129264EFF01292A8A3A3E0FF129260EFF0E5312402FFE435F2
:2007E00030FEE52F2436129264E0FCA3E0FD1257F30288FB1292A81294F1129264EF129498
:2008000065E0A3A3A3F0E52F2434129264E0129466F01294F1129264EFF01292A8E012921C
:20082000A8A3F0E52F2434129264E01292A8F00288FB752304902841E0B4AF0375230312E0
:2008400092A81294F1129264EFF01292A8A3A3E4F0C374049523F52BE52BC39404400302B7
:2008600088FBE531252B12930DE4F012946D74F72FF5827456129543129264E05F605890A2
:200880002841E064AF7046E52B640270407E107F6CC006C00790109D120E720000079A1298
:2008A00092D812947ED007D00612433D90106CE0D3940940037409F090106CE0540FC454F8
:2008C000F0FFE531252B12930DEFF0800AE531252B12930D7410F012946D74F62FF5827485
:2008E00056129543129264E05F600BE531252B12930DE04401F0052B028858E52325E0FFBB
:20090000E433FEC374089FFFE49E1294D3EF252DFFEE352CFEC374049523FDE49400FCED0C
:200920002531FDEC3530FCAB2312AEE4E5286401600FE52864026009E52864036003028A85
:200940000B12956DFF9006E5E02FFF90106CF0C374089FFFE494001294D37D00AA2CA92DFD
:200960007B01121124902874E030E46990106CE0FFC374089FA3F09006E5E0FF90106CE089
:20098000C39FFFC374079FFFA3E0FEC39F5046EEFD7C0025E0FFEC33FE1293DDE0C454F0AF
:2009A000FBED25E0FFEC331293E3E0F92B90106EF064F5702090106DE025E0FFE43312930C
:2009C000E3E954FAF01293DDE054F0F090106DE004F0028977902873E030E22F9006E5E0ED
:2009E00064057027E5247023E52D2404FFE4352CFEE52D24067B0A128B937E007F027D0072
:200A0000E52D240EFBE4352C129385902841E064AF700E1292DFE4F0E52D24181292F0E4A1
:200A2000F0E52824E97003028AA724FE7003028AC324FE607224056003028AD5E52D240407
:200A4000FFE4352CFAA9077B0190109B7404F07D0C124BDFAE2CAF2DE52D24047B04128BB8
:200A600093E52D240C128B6EE52D2406FFE4352CFEAC2CAD2D7B047A0012002612951BE48F
:200A8000F0129519A3129519A3A3A3F01292DFE4F0E52D240A1292F07407F0E52D240B1281
:200AA00092F07404F0802EE52D2406128B6E1292DFE4F0E52D240A1292F07402F0E52D2490
:200AC0000B800DE52D24061292F0E4F0E52D24071292F0E4F0E52424FE600D1460102402F3
:200AE0007017E52D240E800AE52D240C8004E52D240A1292F0E04408F0E52D2404FDE4359B
:200B00002CFCAF2FAE2E12B1AA7401D395285011E5289402500BAA2EA92F7B01AD2812B758
:200B2000C8AD28128B8412953812AC9E0022F0E52F2434FFE4352EFEAC2CAD2D12B38FAD47
:200B40002DAC2CAF2FAE2E12B1AA22E52F2434FFE4352EFEAC2CAD2D12B38FAD2DAC2CAF30
:200B60002FAE2E12B1AAAF2FAE2E129FB622FFE4352CFEE52D2408FDE4352CFC7B047A0003
:200B800012002622AF2FAE2E12958FAF2FAE2E129FB622FDE4352CFC7A0012002622E5636E
:200BA00070030291DAE4F563900B33E06480F012AAE69006D1E020E1030291DA54FDF0906C
:200BC00006CFE04401F09006D2E06404F090283FE0600214F0900768E0600214F09006DB98
:200BE000E0FF30E110056EE56ED394034007E4F56EEF54FDF09006CFE030E43D90105DE094
:200C0000600214F0900C1EE0600214F0900C29E0600414F08007900B34E054F7F0901062EE
:200C2000E0600214F0901062E06003028CC590106074FFF0A3F0028CC59006D1E030E45BD7
:200C4000902874E030E5547E0C7F727B077A007D2D7C271248DD900C78E06455703D7E0C40
:200C60007F7212B73A90106F120E667E287F6E12B73A901073120E6690106F129CC62448CD
:200C8000FFE43EFEE43DFDE43CFCA3129C14C3120D594007902874E054DFF09006D1E0FF9F
:200CA00030E308902846E0600214F0EF30E508902843E0600214F09006D1E054EFF054F7C3
:200CC000F054DFF022E5F9540760030291DAE5645407FFBF07047F0180027F00EF60030294
:200CE00091DA9006CFE030E40612990512B0999006CFE030E40312A7F412B5CE901047E0BA
:200D0000600214F090102EE0D39401500E901030E0940090102FE0940040069010477403CE
:200D2000F09006CFE030E42E9006D1E030E324900D5DE0D39400401BE014F0E07015902821
:200D4000A0E020E30E9028B4E04440F0900B35E04402F012A111902875E0540F700C122E6C
:200D600028122E2D122E32122E3712ABC5E5645407FFBF07047F0180027F00EF60030291A0
:200D8000DAE5F9540760030291DA9006CFE030E40C900764E0D394055003E004F09006D037
:200DA000E0FF30E015900767E0600214F0900767E07007EF54FE9006D0F090105BE06002C2
:200DC00014F0900EE5E0600514F0028E5FE490106FF0129C11AF8CEFF4FFE4F4FEE4FCFDE2
:200DE000EB2FFFEA3E129BEB90286CE0658CFFE4FCFDFEEB2FFFEE3A129BEB90286CE0FF6F
:200E0000E4FCFDFE129DD2129BF290286CE0F4FFE4F4FEAD8C7C00EF2DFFEC3EFEE4FDEB46
:200E20002FFFEA3EFEED39FDEC38FC901070120E6690106FE0B40207129CA37F02800990EE
:200E4000106FE0129CA37F04120AAD90106FE004F0E064036003028DD2900EE5743CF090F5
:200E60001049E07002A3E0601990104AE024FFF0901049E034FFF0E07002A3E07004901019
:200E800048F0E5F9540760030291DAE5645407FFBF07047F0180027F00EF60030291DA90D4
:200EA00006D1E030E20354FBF09006D1E030E31C90286DE0541FFFBF0503122E3C90286DD2
:200EC000E0540FFF6003BF0503124FCF90286CE0B4171BA3E0B41716C390076CE094E89076
:200EE000076BE094034007E4FD7F0112199790286DE0FF60046430704B90286CE0643070E0
:200F0000437D027F01121997900EDFE0640270347E0C7F72C006C00790109D120E7200008F
:200F20000800129D507404F0A314F0D007D0061291F5121100EF9028756006E04404F08019
:200F4000031291DB9006D1E030E503122DE79006D1E020E403028FE21258BD900EE8129C6F
:200F6000C6FFEC4D4E4F600D900EE8A3A3A3E0900EE8129D32900EE8129CC6FFEC4D4E4FE4
:200F8000701D900EE8120E7200000018E4900E5EF07C0E7D5E129CF67F047E081202DF902F
:200FA0000EE8A3A3A3E0900C72129CF17F077E081202DF7E0C7F73C006C00790109D120E60
:200FC0007200000807129D5004F0A37403F0D007D00612433D90286EE0B40206122DAB1296
:200FE0002DB09006D1E0FF30E35630E40FE562600B900B31E0600214F01292099006D1E08A
:2010000020E4169006D8E054F0FFF09007ECE0540F4F9006D8F0122DE79006CFE030E40F34
:20102000E562600B900B31E0600214F012920990076EE0600B14F070079006D4E0547FF067
:201040009006D1E030E312E562600E900B31E0600214F0122D88122D8D900B35E020E54ACB
:2010600090286DE0FF120056EF75F03CA4FFAEF0C006C00790286CE0FF120056EFFDD0E09F
:201080002DFFD0E03400CF2401CF3400FE900D72E0FCA3E0FD120B5FED4C700E900B35E0FD
:2010A0004420F0E4900D5EF0A3F0122E41900EDEE0642070030291417F087A0C7972129E2A
:2010C000329006D0E0547FF0900EDEE0FF7E007C107D00120F4D901067120E6678727C0C86
:2010E0007A107967129D66900EDEE02401FFE433FE7C107D00120F4DEF90106B129D327812
:20110000767C0C7A10796B129D6690108C7401F0A3740CF0A37476F0A37401F0FB7A0C792B
:2011200072123AC3900EDEE004F0E0642060030291CD900EDF04F09006D0E04480F00291B9
:20114000CD900EDFE0640160030291CD7E0C7F72C006C00790109D120E7200000806129DA9
:201160005004F0A37403F0D007D00612433D900C72E064AA701D129CF17F067E081202DFBC
:201180007C0E7DDA129E157F007E081202DF90287580317E0C7F72C006C00790109D120E6E
:2011A0007200000800129D507404F0A314F0D007D0061291F5121100EF9028756006E04499
:2011C00004F080031291DB900EDF7402F09006D1E054DFF054EFF054F7F022E054FBF07CA2
:2011E000287D7590108F7403F07B017A007F057E081202DF2212433D78DA7C0E7D017B01C2
:201200007A0C79727E007F0422122D88122D8D2290106FE0FEA3E0FFF5828E83E04408F072
:201220008F828E83A3E04430F090106FE0FEA3E0FFF5828E8322E52F2434F582E4352EF56D
:20124000837449F0E52F2435F582E4352EF583746EF0E52F2436F582E4352EF5837446F09B
:20126000E52F2437F582E4352EF58322853182853083A3E0C454F0FF853182853083A3A3F7
:20128000E0C4540F4F853182853083A3F0853182853083A3A3E0C454F0FF853182853083E8
:2012A000A3A3A3E0C4540F4F853182853083A322F08F828E83A3A3E04428F090106FE0FE39
:2012C000A3E02404F582E43EF58322AE32AF33E4FCFD90109D120E669010A1E4F0A322E50F
:2012E0002D2404F582E4352CF583E4F0E52D2405F582E4352CF58322E04430F08F828E839A
:20130000A322A3A3E0C454F0FFE5312404F582E43530F583227472252BF582E4340CF583FA
:20132000E4F0052BE52B22EB2406F582E43AF583E022F090106FE475F001020BCA120AD344
:20134000543FFF74102539F582E43424F58322F583E493FF901070E0FCA3E0FDF5828C83EC
:20136000EFF0901074E0FF75F008A422AF237E007D00E523FBC374049BFBE49400FAEB2545
:2013800031FBEA3530FAA9037B01021124F583E493FC740193FD90106FE0F8A60408A60545
:2013A000EF22FE7F087D207B017A0C79A4121124900CA57446F0A37441F0A37443F07E0C8D
:2013C0007FA47C0C7DD622E04430F090106FE0FEA3E022F583E4938D828C83A322EF240131
:2013E000FFE43EFEE52D2FF582E52C3EF58322E0FF901071E0FCA3E0F5828C83E0C4540F51
:201400007C00540F246FF582EC3457F583E49322901072E0FEA3E0AA06F8AC027D0122EE04
:20142000F0A3EFF0A3ECF0A3EDF022901071E0FEA3E0F5828E83A3E02290106FA3E0FAA34B
:20144000E0AE02FF2290106FE0FBA3E0FAA3E0240BF9E43AFA020AD3F583E04FFFE53C25E6
:20146000E025E022A3F085318285308322E52B75F002A4FFC374079FFFE495F0FE2204F0CD
:20148000A37403F022901080E0C4540F22EBF0A3EAF0A3E9F0D3ED940CEC940022902875D4
:2014A000E0540F22540FFF901084E0FAA3E0F5828A8322E58225F0F582E5833AF583EFF052
:2014C00022A3A3A3E04430F0EF22E52B93FF902841E022FEEF25E0FFEE33FE22AE32AF331B
:2014E000E4FCFD90109D020E66F0AA30A9317B0122A3A3E0FFE52F2434227E007F02020A5C
:20150000ADF583E493FC90106FE0FFEC2274032533F533E43532F53222A3F0852D82852C34
:201520008322FFE0FCA3E0FDF5828C83227B017A0C79727D0C7C0022AA2EA92F7B017D0C3A
:201540007C00223EF583E493FFE52F243422120AD3543FFF7410253922902844E0FF75F06E
:2015600009A422901074F0E075F008A4229006E1E0540722E0FFE52F243822E5312404FF03
:20158000E43530FE22E5312401FFE43530FE2290106FEEF0A3EFF0A3740CF0A374A8F0907E
:2015A0002874E030E70302990490107112922CE0540FF539600F90106FE0FAA3E02404128F
:2015C000932A4408F08F828E83A3E0FFC4540FF539B40C07EDB40A0375390BE539B40C0706
:2015E000EDB4050375390CE539B40C07EDB4060375390DE539B40C07EDB4070375390EEF03
:20160000B4EE03753910E539B411004003029735909617F828287302964A029657029661B1
:2016200002967402968202968F02969E0297350296B10296C10296D50296E10296E70296BA
:20164000F70297020297150297241292291292F8A3E044180296AB1293CBF5828E83029771
:2016600031129229E044201292FBA3E044381293CA02970C1292291292F8A3E04438F0021C
:2016800097351292291292F8A3E044200296CB129229E044101292FBA3E04438802D1292DB
:2016A00029E044101292FBA3E044381292BA0297311292291292F8A3E044381292BA0297A8
:2016C000311292291292F8A3E044381292BAE04420F0029735129229E044301292B0029703
:2016E000311292BB0297311292291292F8A3E044101292BA029731129229E044201292B0C3
:20170000802F129229A3A3E04420F0EF1292C2E04410F08020129229A3A3E04428F0EF126A
:2017200092C2800D129229A3A3E04438F0EF1292C2E04430F012942BFF540FF539EFC45468
:201740000FFFBF0C16E539600F6403600BE53964066005E539B4090375390CBF0C1AE539B3
:2017600064016011E5396404600BE53964076005E539B40A0375390DBF0C1AE53964026051
:2017800011E5396405600BE53964086005E539B40B0375390E12942BB4FC0375390E1294D5
:2017A0002BB4EE0375390AE539B4100040030299049097B8F82828730297E80297F8029897
:2017C0000002981802982D02983F02985402986202987102988B02989B0299040298B0027D
:2017E00098C20298D80298F0129229E044081292FBE04430F00298F01293CBF58202986B41
:20180000129229E044081292FBE04420129228A3A3A3E044300298A4129229E04408129208
:20182000FB1293C7F5828E83A3A302986D129229A31292F8A3A3E044201293CA029891122A
:201840009229E044081292FBE044101292281294C1029891129229E044081292FBE04410A4
:20186000801B129229E04408F08F828E83A3029900129229E044081292FBE04430129228CC
:201880001294C124051292C40299001292101294C124051292C4E04420F022129229A3A3A0
:2018A000A3E04420F0EF24051292C4E04410F022129210A3A3A3E04420F0EF24051292C43A
:2018C000803E129229A3E044101292FBA3A31293C724051292C48028129229E0440812927F
:2018E000FBA3A3E044101293CA24051292C48010129229A3A3A3E04410F0EF24051292C489
:20190000E04430F02212A64490107760057402F080037403F012A6DE901078E0FBC39403B6
:2019200040030299C990107A120E720000000012A66512A5E712A6386009901078E07003D5
:201940000299C09007CAE0FEA3E090107A12A608D3120D59505912A5F2D3120D59401090C8
:201960001078E012A659E475F001120BB4802912A5F2C3120D597020900EECA3A3E0FEA365
:20198000E02403FFE43EFE901078E012A659EEF0A3EFF07F0212B6F512A654E0FCA3E0C34C
:2019A000940AEC9400401912A6BFFFEE4F800D12A65412A6CA12A6BFF4FFEE5F9006D7F0CE
:2019C000901078E004F002991812A6B3403E900D3B12A5D8FF900D4112A60C120D59500DA2
:2019E000900D4112A5E7240112A618802912A5E4FF900D4112A60CC3120D59701912A5E432
:201A0000240312A6187F0212B3FA800A900D41120E720000000012A6DE901078E0FBC394B5
:201A2000034003029AD690107A120E720000000012A66512A5E712A6386009901078E070C6
:201A400003029ACD9007C6E0FEA3E0FFE4FCFD90107A12A60CD3120D59506A901078E0FFA6
:201A60009056F793FE900A5CE05E6059EF12A689F583E0FEA3E0FF9007D8E0FCA3E0FDC375
:201A8000EF9DEE9C500D12A685AF82FE7D021255E1803A901078E0FF12A689F583E0FCA3B7
:201AA000E0FD9007D8E0FAA3E0FBED6B7002EC6A701BEF12A689AF82FE7D021255E17F0131
:201AC00012B6F5800812A685F58312A6CA901078E004F0029A1912A6B34044900D4512A561
:201AE000D8FF900D4B12A60C120D595010900D4B12A5E72401900D4B12A61B802C12A5E4DE
:201B0000FF900D4B12A60CC3120D59701C12A5E42403900D4B12A62B7F0112B3FA800A906D
:201B20000D4B120E720000000090107E120E7200000000902812E054F0C4540FFFE4FCFD1A
:201B4000FE90107E120E66E47F03FEFDFC90107E12A60CC3120D5940057F1012B6F5900642
:201B6000D5E030E00D900D4F120E7200000000029BAC12A5E4FF900D4F12A60CC3120D5947
:201B8000500D900D4F12A5E7240112A628801D12A5E4FF900D4F12A60CC3120D59700D12A8
:201BA000A5E4240312A6287F1012B3FA12A5E4FF900D5312A60CC3120D59500E900D53125E
:201BC000A5E7240112A69E020E6612A5E4FF900D5312A60CC3120D59701012A5E4240312AB
:201BE000A69E120E667F0812B3FA22FEED39FDEC38FC901070120E66901070E0FCA3E0FD70
:201C0000A3E0FEA3E0FF7808120D91901070120E66901070E0F8A3E0F9A3E0FAA3E0FB227A
:201C2000E0FE25E025E02424F582E43407F583E0FDEE25E025E02423F582E43407F583E05C
:201C40004DFEEF25E025E02425F582E43407F583E04EFEEF25E025E02426F582E43407F5EF
:201C600083E04E2290106FA3E0FF901069E0FCA3E0F5828C8322F582E43CF583E0FFED24F1
:201C800005F582E43CF58322E52725E0246AF582E43434F583E493FE740193FFC390107CD9
:201CA000E09F2275F004A4244EF9741035F0A801FC7A1079707D017B017E0022E47BB57A22
:201CC00005F9F890106BE0FCA3E0FDA3E0FEA3E022901083E0FEA3E0F5828E83229028900B
:201CE000E04440F07E0C7F727C287D937B077A0022F07C0C7D7290108F7403F07B017A0050
:201D000022E0FEA3E0FFF5828E83A3A3A3227E007D007B0102112433FE741C2FF5827434F1
:201D20003EF5832274722523F582E4340CF583E0FF2224FFFFEE34FFFEED34FFFDEC34FF0C
:201D4000FC020E66E52725E02450F582E43434229010A1E4F0A3227C007B01246CF9EC342C
:201D600028FAEF020B197D017B017E007F04020AADEB24FFFFEA34FFFE7C017D6D020B5F7D
:201D80002406F582E43EF58322901078E09056FF93FF9006D5E05F2290106FE0FEA3E0FF3C
:201DA000D39400EE940022901070E024FFF090106FE034FFF022A3EFF0901070E025E0FF6B
:201DC00090106FE022E4FCFD7BAD7A8EF9F8D3020D43EB2FFFEE3AFEED39FDEC38FC22EE3D
:201DE000F0A3EFF0F5828E83A3E0FF2233FE74362FF58274343EF58322901077E0FCA3E0CE
:201E000022901067E0FCA3E022F5837401932FFFE4933EFE2290108F7403F07B047A0022E4
:201E2000900D60E0FCE4FFFEFDEC228D828C83A3A3227E007D007B0102112490106FA3E017
:201E400025E025E02290106FE4F0A3740CF02290107FEDF0AC079006E37422F090284DE0AB
:201E6000540F44209006E4F0ECF47003029FB590107FE0D394014002E4F07E107F80C006B8
:201E8000C007EC75F002A42487FFE5F03407FE90107FE07C002FFFEC3EFEE41292D11294FC
:201EA0007ED007D00612433D901080E070037402F0901080E0FE540F9006E6F0EE54F090FD
:201EC0001080F090107FE0FF60439006E6E0FEC394025008E4901080F0029F50EEC39403A9
:201EE0005015901080E0943040037430F0129485FEC374039E8059901080E0D3943040032E
:201F00007430F0129485FEC374069E80439006E6E0FEC39402500DE4901080F09006E77471
:201F2000FDF08030EEC394035012901080E0943040037430F0129485F4048014901080E008
:201F4000D3943040037430F0129485FEC374039E9006E7F0EF704F901080E0C45403FF904D
:201F6000284CE054F04FF9FFC4540FFDEF540FFE2DFDE433FCD3ED9408EC6480948040024F
:201F8000A906E954F0700DC3740899C454F0FEE9540F4EF9E954079006E1F0AF01EFC45415
:201FA0000F9006E5F02212956DFF901080E054F04F9006E2F022AB07AA069006CFE020E4AA
:201FC0000302A08FE4F53C900D60A3A3A3E05440FFEFE53C9056FF93FF9006D8E05F6025A6
:201FE000E53C14600C14601424027019EB2407800EEB240812932A4410F08009EB240A1287
:20200000932A4420F012945D2424F582E43407F583E012945C2423F582E434071294582475
:2020200025F582E434071294582426F582E43407F583E04F604EE53C9056FF93FF9006D5AF
:20204000E05F601BE53C14600C14600E24027034EB2406801EEB24088019EB2409801FE5DA
:202060003C14600C14601424027019EB2407800EEB240912932A4420F08009EB240A129347
:202080002A4410F0053CE53C64036003029FC79006D2E0FF30E22E9006D7E0FE30E409EB64
:2020A000240712932A54DFF0EE30E509EB240812932A54EFF09006D7E030E609EB240A1247
:2020C000932A54DFF0901047E060061293274410F0900B33E030E7389006DAE0FE30E20284
:2020E0008028EE30E408EF30E2028017801C9006DAE0FF30E1028012EF30E3149006D2E0A6
:2021000030E20712932754EFF0221293274410F0229028A0E030E30302A2669028B4E0307F
:20212000E60302A2669028A0E020E504E04420F0900B35E0FF20E10302A266EF54FD900B9F
:2021400035F0900D5D7405F012AE2D8E238F24900B2BE523F0A3E524F0C3E5236480948089
:202160007E0A7F6E5017C3E49524FDE49523FC1257F3900A6EE0540F44F0F08007AD24ACBF
:20218000231257F37F97123CC8902885E0C39FFDE49EFC1208D67B257A067981783E1206C2
:2021A000A1E4FBFA790478421205B0C004C005C006C00712B5017BBF7A46799278391206FB
:2021C000A1D003D002D001D00012B4F18E258F26E52630E70FF4FFE525F4FEEF2401F526AA
:2021E000E43EF525902847E0FFF527902874E020E109EF547F902847F08030C3E5269422AE
:20220000E52594005009902847E04480F0801CAC25AD26E41208D67B667A66790878421212
:2022200008475007902847E0547FF0900B34E054EFF0902847E0652760227E287F477D049A
:2022400012579290284BEFF07C287D4790108F7403F07B047A007FEDFE1202DFAF2612590D
:202260000E900B2AEFF02290106F129422A3740CF0A374A8F0902844E0FFC394085074EF04
:2022800075F009A42475F9744235F0FA7BFFC002129410D0021294FA1295592478F582E46A
:2022A000344212938D75F009A4247AF582E43442F583E493901070129522EFF0129559242A
:2022C0007BF582E434421293D3F0EF75F009A4247CF582E434421293D3A3F0902844E0757C
:2022E000F009A4247DF582E434421293D3A3A3F002A3A9902844E0FFC3940C504FEF24F8EB
:2023000012956324BDF9744235F0FA7BFFC002129410D0021294FA12936224C0F582E43426
:202320004212938D75F008A424C2F582E4344212934F24C3F582E434421293D3F0EF75F0F9
:2023400008A424C4F582E4344202A39B902844E024F412956324DDF9744235F0FA7BFFC0D1
:2023600002129410D0021294FA12936224E0F582E4344212938D75F008A424E2F582E4347F
:202380004212934F24E3F582E434421293D3F0EF75F008A424E4F582E434421293D3A3F0E3
:2023A0008D828C83A3A3A3E4F0AE39AF3A22901069EEF0A3EFF0AE04AF05E4FCFDA3120EE1
:2023C00066129CBCFF120CA390106FEEF0A3EFF0129CBCFF120CA3C3EB946EEA940140174E
:2023E000129D71129E3B2F129C69A3A3EFF0129D71AA04AB05800A129E3B129C69A3A3EF28
:20240000F0901069129CD4A3A3E05403602F129E45129D984017EF25E0FFEE129D17D374B4
:2024200001939BE4939A4005129DA780E4129C64129DB6129D17740193FFEB802F129E458A
:20244000129D984017EF25E0FFEE129DECD37401939BE4939A4005129DA780E4129C6412B8
:202460009DB6129DEC740193FFAD03ED04C39F129C69EFF0E490106FF0A3F090106FE0FE0B
:20248000A3E0FFC39403EE9400503B901069E0FCA3E02FF582EC3EF583E0FF12590E9010AB
:2024A0006FE0FCA3E0FD901069E0FAA3E02DF582EA3CF583EFF0901070E004F070BD901019
:2024C0006FE004F080B522129CDD12002600007E0C7F79129CE8120026902890E0542FF0B4
:2024E00078727C0C7A0C7979129CB57F07121100EF70D412A5CC30E4077E0C7F7512B57957
:202500007E0C7F7212B465EF7018902890E020E4119026F6E493FF900C77E0C39F400302A5
:20252000A5B9E4900C72F07E0C7F73C006C00790109D120E7200002351129D507406F0A303
:202540007402F0D007D00612433D902868E030E4077E0C7F7512B66A7E0C7F7212B465EF76
:20256000601378737C0C7D017BFF7A2679F27E007F06120AAD7E0C7F7212B22B902890E014
:202580004480F0E4902892F0F523129D24E5237C007B012493F9EC3428FAEF120B1905233F
:2025A000E523B407E5902890E0546FF012A5CC30E4077E0C7F7512B579E4F523129D24E588
:2025C00023129D570523E523B407F1227E0C7F7212B31D902868E022E4F0A3F0A3F0A3F0C8
:2025E000A3F0A3F09007FFE0FCA3E0FDA3E0FEA3E022901078E025E0243BF582E4340DF5B0
:2026000083E0FEA3E0900EECFFE4FCFDE0F8A3E0F9A3E0FAA3E0FB22900D41FFE43EFEE41E
:202620003DFDE43CFC020E66900D4FFFE43EFEE43DFDE43CFC020E66FF7804120D6A90106F
:202640007A120E66900D60A3A3A3E05440FFE4FEFDFCEF22901078E0FF25E0243BF582E47F
:20266000340DF58322EB75F003A424EEF9740635F0FA7B01787B7C107D017E007F03120A4F
:20268000AD90107A22901078E025E02445F582E4340D2290108F7403F07B017A0022FFE49C
:2026A0003EFEE43DFDE43CFC900D53229010A1E4F0A322901077E0FF901079E0C39F2290B5
:2026C00006D7E0FEEF9056FF9322E4F0A3F0901079E004F0227E007D007B01021124E4901E
:2026E0001079F0901078F0227FA612A7DC90108F120E667F9A12A7DC901093120E669010C1
:2027000083120E723DAE147B90109312B4C790108F12B4DC1205AC12592B7B0A7AD77923CE
:20272000783C12084750727FAA12A7E8901087120E667FA812A7E890108B120E669010939F
:2027400012B4C790108F12B4DC1205AC7920784112B4FBC004C005C006C00790108B12B43E
:20276000C790108712B4DC1205ACD003D002D001D0001207AA7B997ABB7916783B1206A1B9
:20278000A804A905AA06AB077F417EA47DEA7C3D1205AC901083120E6690108312B4DCE466
:2027A000FBFA798078461206A1901083120E6690108312B4C2120847600A4008E4FFFEFD6F
:2027C0007C3F8006E4FFFEFD7CBF90108312B4C712B4F1900D5BEEF0A3EFF022123CC8ACFC
:2027E00006AD07EC1208D622123CC8AC06AD07EC1208D622E5F95407600302A8FE90106360
:20280000E0FF6402700302A8FEEF6403700302A8FEEF6404700302A8FE129E205407FC123C
:202820000F13A83801000000A83E02000000A875040000000000A88590243402A87EE490DB
:202840001077F0A3F0901078E0FFC394035018129C20600B129D8960069010777401F090D2
:202860001078E004F080DE901077E0902434B40102800B8013901047E09024346005740260
:20288000F0800880039024347403F0129E205438FC120F13A8B608000000A8B9100000008B
:2028A000A8ED20000000A8FE30000000A8FE380000000000A8FA02A8F3E4901077F0A3F0F2
:2028C000901078E0FFC394035018129C20600B129D8960069010777401F0901078E004F000
:2028E00080DE901077E0B401028008800D901047E06005C281D285228000D281D28522E49F
:202900009006E7F0902873E0FEEE30E50D9028447409F09042C7E402AA007E107F70C0065C
:20292000C00790109D120E72000002111292D812947ED007D00612433DE4FF901070E0FE3E
:20294000EFC39E400302A9F8902840E004F0E09E40037401F07E107F6FC006C0079028404E
:20296000E02415FFE43402FE1292CF12947ED007D00612433DE4FDED75F009A42477F5825F
:20298000E43442F583E493FF90106FE0FEEFB5060B902844EDF0902841EFF0220DEDB408C4
:2029A000D6EDC39408404AE4FDED75F008A424BFF582E43442129501B50705ED24088022B4
:2029C0000DEDB404E4EDC394044026E4FDED75F008A424DFF582E43442129501B5070DEDA2
:2029E000240C902844F0902841ECF0220DEDB40CDC90284174FFF022E4902844F090427797
:202A000093902841F022EF120EEDAACB20AACE2DAA9E30AA9E31AA9E32AA9E33AA9E34AAD6
:202A20009E35AA9E36AA9E37AA9E38AA9E39AAA741AAAA42AAAD43AAB044AAB345AAB6461D
:202A4000AAB947AAE048AAA449AADA4AAAD14CAAD74EAABC4FAABF50AAC252AAD454AAC88F
:202A600055AADD59AAA761AAAA62AAAD63AAB064AAB365AAB666AAB967AAE068AAA469AA9C
:202A8000DA6AAAD16CAAD76EAABC6FAABF70AAC272AAC574AAC875AADD790000AAE3C3EF87
:202AA0009430FF227F01227F0A227F0B227F0C227F0D227F0E227F0F227F10227F11227F9C
:202AC00012227F13227F15227F16227F17227F18227F19227F1A227F1B227F1C227F1D2284
:202AE0007F1E227FFF22129CDD12002600007E0C7F79129CE8120026902890E054BFF078C1
:202B0000727C0C7D017B017A0C79797E007F07121100EF70D17E0C7F7212B31D902868E095
:202B200030E4077E0C7F7512B57990286CE0FF900C72E06F60079006D1E04402F090286D53
:202B4000E0FF900C73E06F60079006D1E04408F090286EE0FF900C74E06F60079006D1E03C
:202B60004410F090286FE0FF900C75E06F60079006D1E04420F0E4F52374722523129D28A8
:202B8000E523129D570523E523B407ED90286CE0540FFF64056003EF70079006D1E0440428
:202BA000F09006CFE030E41C9006D1E030E4157C287D6D90108F7402F07B067A007F517ED4
:202BC000231202DF22E4901077F0FF9006E9E0FCA3E0FD64AA4C6008ED64AB4C60028033D9
:202BE000ED64AA4C701A902876E064EE7004A3E064EE6029E49006E9F0A3F0902876801727
:202C00009006E9E07004A3E064AB7011902850E030E508E49006E9F0A3F0227F55EF645545
:202C200060589006DBE04402F0122E1E122E237FFF12AC937455902876F0A3F07F0E7A073D
:202C400079DE129D0E7F147A077972129D0E7F057A287947129E327C287D47129E157FED43
:202C6000FE1202DF900DA8120E7200000000900EF0120E7200000000800B122E1E122E2320
:202C80007FFE12AC93122D92900C2C120E720000000022122775E49006E9F0A3F0229010C3
:202CA0007F12948D400302AD68E4F53AF53B9006CFE030E410902874E020E210902437E073
:202CC00030E00C8007902874E030E503753A0190283FE06401600512949D700512949D7071
:202CE00003753B01E53A603A900768E0703490286CE030E02D9006DBE020E126E53B602289
:202D0000901063E0701C1293A212B38F90107F12943C7C0C7DD612B1AA90107F12943C124D
:202D20009FB675391290107FE0FBA3E0FAA3E0F912954E129347EFF0901080E475F001124F
:202D40000BB4000539E539B41ADB75391C90107FE0FBA3129336A9F0FA12954E129347EF0A
:202D6000F00539E539B420E52290106F12948D400302AE2CE4F53A9006CFE030E410902897
:202D800074E020E210902437E030E00C8007902874E030E503753A01E53A602A90286CE0DE
:202DA00030E0239006DBE020E11C901074E070161293A212B38F1294397C0C7DD612B1AA36
:202DC000129439129FB6753912901074E0B40417E53930E01290106FE0FBA3E0FAA3E0F907
:202DE00012933DEFF08005129343E4F0901070E475F001120BB4000539E539B41ACB753903
:202E00001C901074E0B40418E53930E01390106FE0FBA3129336A9F0FA12933DEFF0800550
:202E2000129343E4F00539E539B420D52212B50112B50D90107712B4C7C000C001C002C06C
:202E40000312B513D003D002D001D0001206A112B4D312B4F712B4D37B337A3379B1784169
:202E60001205B012B50DE4FFFE7DAA7C4290107712B4C7120847600C400A901077120E728D
:202E800042AA0000E4FFFE7D207CC290107712B4C7120847500A901077120E72C2200000A0
:202EA00012B4D9E4FBFA792078411206A112B50D90107712B4C21208479010776010400EE6
:202EC00012B4DCE4FBFAF9783F1205B0800C12B4DCE4FBFAF9783F1205AC12B50D12B4D913
:202EE00012090F2290106F12941FEB54F8600302AF85EBD39400500302AF8512933385F0BA
:202F000082F583C083C0821293EF540FFEEF4ED082D08312933285F082F583C083C082127E
:202F200093EFC4540FFEEF4ED082D08312933285F082F583C083C082E0901071129522E0A3
:202F4000540F90576F93540FFEEF4ED082D08312933285F082F583C083C082E0FF8D828C9D
:202F600083E0540F90576F93C4540FFEEF4ED082D083F0901072E004F07006901071E0045A
:202F8000F01B02AEF2227E0C7F72C006C00790109D120E720000079D12A6AC7404F0A31464
:202FA000F0D007D00612433D900C7212A5E7FF9007FF120E6612A5E4FFEC4D4E4F700A90A1
:202FC00007FF120E72002E24807E0C7F72C006C00790109D120E720000080A12A6AC7404C2
:202FE000F0A314F0D007D00612433D900C7212A5E7FF900EEC120E66900EEC12A5E7FFEC2D
:203000004D4E4F700A900EEC120E720000384022901083129DDF1200567529008F2A129C78
:20302000D1A3A3E0FF120056752B008F2C129CD1E0FF120056EF24FFFDE434FFFCE52A25BB
:20304000E0FFE529129D177401932DFBE4933CFAAE2BAF2C7C017D6D120B4DEF2BFDEE3A1C
:20306000FCE52CAE2B7802CEC313CE13D8F92DFFEC3ECF2401F528E43FF527E52C5403701C
:2030800013D3E52A9402E52994005008E528152870021527AE27AF28227E077F4B12584FDD
:2030A000901077EEF0A3EFF07E077F4D12584F900758E064037045EF2432FFE43EFED390DD
:2030C0001078E09F901077E09E40319007D8E0FEA3E0FF90079FE09F90079EE09E500E7ED0
:2030E000077F9E7D021255E19006D5800A9007E1E04420F0902847E04408F02290079EE0F2
:203100007002A3E060117E077F9E7D021257B39006D5E054F7F0229007E1E030E50354DFC1
:20312000F022901079EEF0A3EFF0A3ECF0A3EDF0752764129C8890107BE09E5003D527F3F4
:20314000E527244EF528C394644006749C2528F528AF2812B1A3129C6DA3A3EFF0129C88A6
:20316000F090107BE09EF075270C129D44129C9390107BE09E5003D527F0AF2712B1A312D4
:203180009C6DA3EFF0129D44129C93FF90107BE09EF0A3EFF004FF12590E901079129C6DB6
:2031A000EFF02212590E9010792290108212941FE4A3F0F0901086E0FFC394065060EF7596
:2031C000F002A4FDACF0901083E02DFF901082E03CFE901085E02DFD901084E03CFC12B226
:2031E0001FF975F002A4FF901083E02FFF901082E035F0CF2401FBE43FFAE975F002A4FF56
:20320000901085E02FFF901084E035F0CF2401FDE43FFCAF03AE0212B21F04F08096227B56
:20322000017A00120026901086E022901067EEF0A3EFF0E4F524129E012524129C81E0FF47
:20324000120056129E012524129C81EFF00524E524C3940740E0901067E0FEA3E0FF129D38
:2032600080E0F524EF2405129D82E0FF129E01FD2406129C81EFF0ED2404129C76EFF0129D
:203280009E2BA3E0FFED2404129C81EFF00524E524C394084003752401901067129CD4A326
:2032A000A3A3E524F02212A6E89025117403F012B51312B4F790107F120E667F007EE07D4A
:2032C0002B7C4790107F12B4C71206A190107F12B4C712B4E8902508EEF0A3EFF07FA67E81
:2032E000D07DF47C4390107F12B4C712B4E890250AEEF0A3EFF0122DCEC0A8C2AF90289027
:20330000E04480F0902878E0FFA3E090289CCFF0A3EFF0902890E0546FF0D0A82290107766
:20332000EEF0A3EFF0E4F524129DF92524129C81E0FF12590E129DF92524129C81EFF005B4
:2033400024E524C3940740E0901077129D01E0F524EF2404129D82E0FF129DF9FDF5828C33
:2033600083A3A3A3EFF0129C7EE0FFED2404129C81EFF0ED2406129C76EFF0D52403752425
:2033800007901077E0FEA3E0129D80E524F02290108212941F79FFE4A3F0A3F0FDFC901062
:2033A00082E0FEA3E02DF582EE3CF583E0FF12AA06A907E9C3941F5035E990576F93129437
:2033C000A4C083C082901086129336FAD082D0831294B3E990576F93C41294A4C083C08266
:2033E000901086129336FAD082D0831294B30DBD00010CED64064C70A522901082EFF07EA4
:20340000107F83C006C00790109D120E720000079912A6AC04F0A37403F0D007D00612433A
:203420003D901082E0FFA3E0FE5F6014EFF4FFEE5FF07C107D8312A6937F997E071202DF74
:20344000901082E0B4100312B620901082E0B40813E4900C72F07C0C7D7212A6937F9A7EAF
:20346000071202DF22AD07AC06900B32E054FDF08D828C83E0D39459503BA3E0945950359E
:20348000129E2BE09423502D129E2BA3E0FF94315023ED2404129C81E0FED394125016EDBA
:2034A0002406129C81E0FBD394075009EF6006EE6003EB700A900B32E04402F07F01227F02
:2034C0000022E4FFFEFDFCE0F8A3E0F9A3E0FAA3E0FB22901077120E66901077E0FCA3E06C
:2034E000FDA3E0FEA3E0FF221206A1E4FBFAF9783F1205B002090F79807846E4FBFA0207EE
:20350000AA902881E0FCA3E0FDEC0208D6901077020E66900D5BE0FCA3E0FDEC0208D69063
:203520001083129DDF120056901085EFF0901083129CD4A3A3E0FF120056901086EFF0C304
:20354000944F5004E02464F0901083129CD4E0FF120056EF24FFFFE434FFFE901085E012B3
:203560009D46129E09901086E075F002A424CEF582E5F03433129E0922901077EEF0A3EF97
:20358000F012B0108E248F25C3E525944FE5249400403A129DC5403574B12525F52574FF57
:2035A0003524F524E5252401FFE43524FE7C007D07120B5F8D26E5267003752607901077CA
:2035C000129D01E526F0AD25AC2412B1222290102FE07002A3E0700830AC05E59A20E03FDC
:2035E0007E0F7F027D2D7C011256CB8E238F2490103CE0B5230BA3E0B52406A3E004F08007
:2036000005E490103EF090103CE523F0A3E524F0A3E0D3941E4008E4F0122DAB122DB02264
:203620007F0A7A0C797212A6D57C0C7D7290108F7402F07B067A007F607E201202DFE49018
:203640002803F0902812F0A3F07E287F007D3DFC1256CB90283DEEF0A3EFF07E067F007C20
:20366000287D007B3F7A00020026901067EEF0A3EFF012B51FEF244FF525E43EF524FEAF98
:2036800025129DC54029E5252406FFE43524FE7C007D07120B5F8D26E526700375260790DB
:2036A0001067129D01E526F0AD25AC2412A3AE227E107F7FC006C00790109D120E720000D9
:2036C00000861292D87402F0A304F0D007D00612433DD3901080E0945590107FE09402401B
:2036E000077402F0A37455F07E107F7F12584F902843EFF022901082EFF07E107F83C00669
:20370000C00790109D120E720000079912A6AC04F0A37403F0D007D00612433D901082E0D0
:20372000FFA3E0FE5F7011EE4FF07C107D8312A6937F997E071202DF002290107FEEF0A3D3
:20374000EFF02401FFE43EFE12B7A57C007D18120F4DC004C005C006C00790107F129CD4A2
:20376000E0FF120056E4FCFDFED003D002D001D000129DD222EF9028A0B4012574D0F09059
:203780000B2BE4F0A374DAF0900A6E7402F0A37418F09028B4E04440F0900B35E04402F00B
:2037A0002274A6F022901081EEF0A3EFF0902868E090108130E408E0FEA3E0FF02B51FE0E7
:2037C000FEA3E0FF12B0102290106FEBF0A3EAF0A3E9F0ED24FE600A04700F129445441057
:2037E00080051294454420120B19227E0712B8017E1012B8017F1C7A0D793B12A6D502B6D9
:20380000207B037D027C007F991251B0227F0C900C7274FFF0A3DFFC7B017A0C79729010BB
:2038200063E0901074F07D0C7C0002AD697F0C900C7274FFF0A3DFFC12952D02AC9E7F0CFF
:20384000900C72E4F0A3DFFC12952D02AC9E902872E0FF0FEFC3940840027F01222215D196
:203860001167D0411A7C412221B203F1B81F670BDC9E68CD8516E1F97C00FD5B6D23EFAD92
:203880003DA2E4B99D3936BDE0C4E31309013D112996E32FE856EF6761C071E233C81DD030
:2038A000D4DB4098291DF93154F5A5CFCECB9BC3B5101A9C677F7F934FA3BB26FF9A050277
:2038C0007F18CC26E5AFF046264D316D2C06E8E72913F55E2A1BF843EFB2C470FA20100B6A
:2038E000E66370ADFA7784C3FED46F354D398B462CA85CBC5AB1C240E9F472074BE2A6B209
:20390000B0C3147390FD1D728393486F59ECEEA867D637FD1FCA4552E472AE351C6830C04B
:203920008641A0C1CDCA24195E91A26277A778D581A56E6AA0EDE84088326140923B14FE40
:203940000FE3FCDFDC65FF8137D66757D0F39194231DE94B06A216D47E3E7171D7E2BC31DC
:20396000F4B31115E3561872B46B7D968C57A1AEF54790E8787234D46E9EC81013E58E241F
:20398000DCB9C5AB0B26D6B48057CE67D25C10EC9E2A4C881FE3AB09FF584C656DCDF49E0B
:2039A00070FC01E87B5CA00E41A24012CA884714C7CE0374237FE33BDA76E7B70E205566A8
:2039C0005884AE165C80E049A055BDDE9E66ACEE173C9EF5ABCE4432A7FF80501E691945E4
:2039E0003B59B27BD51AFD2D44772C15737BA844377B0651DF5737B50DFCFE76C42DA703D4
:203A0000C184F75F0FB35F82D61074FD7451A4DCCE9321D0E8A2228EB4744B7228F669686C
:203A2000930C630C31D26E10FD297FDEC66F067F858DD9BCEE376E83456F4E8C734BC63BB0
:203A400059F9E0C96400929F62C83402945D37F50470155B189F845D68F6EF0BCDB5264697
:203A6000BA5355DDD0C433F6ACF87BB004A4A006F244BDF78F61CAE3C40F16395DBBF14F2C
:203A80005F23A9919CA6B9DE84BE3C2F3ECBA87AF812B8D67B05AADF02C5AB5C4CE5901F6A
:203AA000F071C62DF12E8C1F92245FC86B5AB618BDE1F04003138B17C91D96BDC1BB697E56
:203AC000144393F9F6E514817D31CDC3B3D934A9EAB94C7F4F14D555C221BFA4E5C6E534E7
:203AE00073A3F83CD452B9CCEEED6C683DD189F526A2B4DA8890EF5F95D80F58E08D6C0825
:203B0000B698DD40B2FEE4C78C6125FE32CA1DC41AA51098D60D43FDE94A6C23D99867C30B
:203B2000852A2A4BB96FFB3B0094E1CFB94A58DE6DC94802601538F96680BF4BF8703C2D9F
:203B40008762C7A6102F68F0F18E8621FBDBA20BC81745604F2F361AB581F119679C550ED7
:203B600065479D99E1C691AE0858FD3D20046312D395EDFACAE4A5277E55E8D54BA4182EBC
:203B8000C7E2926B51BAE03DEDF92F6B4F4E03BC354D2917FABAEEE968058EC7CF11EF5548
:203BA00053398F668A95BB64477903F3B03FEAD19747E200073B77281C98CA37186A414A83
:203BC000B4577DD0B4DE8CECBEE1601C6C618019A08AFEFE18EFA9AB4216836C513776D666
:203BE000904142F2F61EBA9EFB38302FAB3C2E5BF91E6757555DEC3C8188A3AFA001F6C1F0
:203C00009001C81479DCAD40A6865A7494565A61490B0353E70DA9A181F511482D4E28D329
:203C20005B9DF57E65A0CD9A67D4C63350396EF13959BC3CF68746A3EB65B57F21A976D30A
:203C40009A20B377E1F38276E4295CB4066DD0D471117858A9542D0A67E0779BA497478B94
:203C6000F48FE948155B349AC88D043EDF78EAD2983B21F129FBC49E9C6F3FE6DDA204C1C9
:203C800012F47F3A2A624BCFB908A61B03E422B256DD9E4D9E0475273319F5A6F551133EA8
:203CA0009B565C9348902FDD5FA32A919939E23E5501D7B42FF8A76CD3E78124142CDDCA30
:203CC00038BE6A9B966C488C646578E9CAFD913C3AAEB470045DC13625DFCBA860BCCA2C68
:203CE0009133909C3D7EFFA46D57786BBDBA9675B0ED1DC846BE2D4DD10CBC7A0488432E3D
:203D00004DBDB6DC654EBAEC257F135E9BF75BB15DC5FA031DA052797E733AE12619AE96C5
:203D20001464C4A43465E22D31E72F0C8B3D47B7E93E336AB08D9882D41E2E27EFF5742DFB
:203D40009031A33CD54AE02F3C97B5BBB613C251FD60B045280C672F7D14819286A6FEBBD1
:203D6000672B39EC6E851ABAEC958EB44301344541345ADCACA627491E5D196B13B4B30857
:203D8000415B6FFC289FFA96E9EBA03F5B8F055C5CC1177665E140986202E0F9C0A5FADB88
:203DA000C7C72EB32A1FE78ADCA1D5A326469E5EF70FD05C7B481BE4EE0ABD86B3033DFE5D
:203DC000A0795C5B9D8D49606DBD142ACBAD6513B9276ED715601EF56D7D97581455E337DF
:203DE0007579E23AA87287DE4349441A734DC3434B10D72D5BB3B293856358B80C24544F0D
:203E0000EECDA99874540BCD074C4FBC45AC21B554D2F5A676C84085DEC5E7EEC3F7F70EE6
:203E2000B27F98BF28BE3CF460CF1C586A54E5327D76AE8C8E272E9421AA2C426056363B68
:203E40006A9796F6ED35821DF7D9933609CD79826E03EC25CA59E588F61B0FFC0BC978A090
:203E6000BD1B8D84EB43450E73729C9D4B9D436DCE8196BB53E5CE29041F7863EED9260365
:203E8000541564B2496FED907EA21FD7584EADBB45F994945153503EF4BE4FC02E0DA62DE3
:203EA000D68C03C83041E26BBD72042A57681D337D72CEF8EB2CD2916D007C5BF6EE61E60D
:203EC000EC89520EC7428D67DAE933DF7071FD9E1BF42B3149F6BEE818EEE77C6C03BFF5E3
:203EE0003E1338CB37F9544C7D10953DCDF3B4C4CA879686943C7B0C9D8F796BB8D429245A
:203F00007332A049A7EFA0E14DED108E9375AA6D3034F43EF48371C5A3EC186F03E9053982
:203F200034EE6FCE40AADAEFF38B8D18ED804761F5022EA2905508DAD20BADD275CBBCFD54
:203F400028508EA329B4683E16EFF525019BF367C2FA2CFA9139A815D4F621DA3501B738CD
:203F6000F85FE5108B95B4965F232EFBF74E16493F22D68E1EB8B93C4EB55AD06C135DB2F1
:203F80004B245C5C8ED324BF762E22E2F82118CD138414A56059A318EB4E42FC418A1532C3
:203FA000CAA5DCD159F822800218B7242C9D61BCE628CF887FA4CE7150CBC0A5DDEC49823C
:203FC0001DEC4BB5158C15A3ACE9D708BA4959DD6214ED80A221A30F2833BB1467C460685D
:203FE000EB019351E91565EE1BAA69D5CAAD69FA2D5258D3F15988B9198F1D920897C2AD29
:20400000DCEA9AEDFE1D792AF76355D48652F7D9EFEAF6C995D3E639CBE6CD65E8EFD619A2
:2040200099B14AD17C2BBB1FEA1A834D14BF6D4351E2B1ACB6172655E840B3D52E530673C1
:20404000CA5E89448AC892949AD9DB879C7C3100FA4470C27BAEAED615A6B72C034CBA858C
:2040600017F7418F507A6652AFA744CC4712ADD894181B550D1FE883FC1EC1B08E61581502
:20408000268659FBF7CCA022D28DA9623C084793C46499AB94F23A2645B3B9ABF81A49EC1E
:2040A000A212B9CEA743A6CAAB91EF92A4E669F83432D40C37B00E85986A876368FFF5D2E9
:2040C00031A449508769E112E1BEFFA4A7357AD18C89B3C21EE0CB6A9B4D13210799C48E5B
:2040E0007B43F1CBC0C5B9C41D19C1E06C7CE2E473721E14720AD99BF963452CFC6F1FEA77
:2041000029F7998579DF97A606AC1D8E1C4308FA92F3FD495BB6A0E058B406CE70096CAC41
:20412000E3C829C7DB40E182457EFCF5DE1356DA911738AA006D880361493C4D8BF0149DB0
:2041400050BF89D90E6F011E8197445EDB72334E17E3B87F8AB6F9CABB29D1F274AB8085CB
:2041600019E3A10339F45D426300DF113BEB071CCC616310201A5BFF0E5CAB0554C2172C90
:20418000E63D598D85585FB892C0B35625033B0D5A9822A4EB20166804EBB4CE52BE4059FC
:2041A0005ED39ABE19226D47B7DFAA75C14435E96690DE84135092CE43DDD294972665D616
:2041C00029AF4AE01EDAF1B67A66ABB538355E789B527DF9BF3237F8733AEFA14B82ED69D8
:2041E000F0D95339BB0952CE825C9D60B25E1E819EE5E949174F6EB03D0BF23B945B40DB44
:204200005B579B121936F85778C96ABC5648DECE1A5108BC442E9DBC4957C3AB9D37C6F35B
:2042200011330CB25FE94B1903B5F9124D7A0425B59FC49C6E572EE53E264A398CA1E77B1B
:20424000BB758D63B6AAB3DBCC2932A9BF7CFA4F17D6032FBC5387F3C4806F2C8A1E0B3989
:204260000023056B460298677B2CFDCBD3D72614E9FEAFBF57A912AE856E1ACEBE389AF79A
:2042800089475E1336786283B7C742BEB112F23BD320AF9267E135DE26F733655176FC7B5A
:2042A000FDE87FA3AF9579F82801E9CB82B5C58E7C42EBF013845A4A5224A23A6A60998DC5
:2042C000050F5063D8DF458D77E2DA3A6E4906D38D6F4B238319E8BBAFFC4F95327FD9F7D8
:2042E00049C3B99ADAE02F0C4C72FE539C551FD3ADACB772E02847F9E58722BDD15A258093
:20430000700CA292DC209D3B4EBA3B5E35617756850317245239DECC9DCD04FC6E7AE3EFF9
:2043200023F2F3910726F8E426C17AA260F57624BD7B538200D517FC7FD7DB9831657D0D0B
:20434000097E94E0827AA9CD7C8FA468469A8404FC1C53D41383595032AC91DA43A559A2C7
:20436000CBB76DC776A416BFF72D9FF80ED709BFEAEF0062B2CC0D915F540C0ACCC2E1762B
:2043800010A6678D0B2CA9813FA2559AE1356D1D30FB407306379987ADD83670F3427B503C
:2043A0008151687C689BC9DDFDF6AC96E73B18E67649FC50374C66FAC53FF554E1AF91F9F4
:2043C000C5C259DAB679DD99D9328E33477173E263DF1D426C93DCB24E9133FDBE908A3A56
:2043E000850123F01C4C4F7E7A5DE2BA2A5FE4D9A0C7898FCD956376F1D6D7B4B16ECED964
:204400006914AC06C39E8654897F9073B78ED492D5092A7F83D964105617C9C1E2D0C59E19
:204420001805DE64D3F6EAE3ADA17FA61785ACD6A9ABE65CB6E74546245CF16C7A3ED75379
:204440003BDCA05173DDE3F28FC9999B71CCD26DC4B7A76C8D4870E103AB37FDA1406CBE86
:20446000799FD917CBDAD94BD602C59AEEECB01FCF3454F931834BA99D0E83BB7E5FECA938
:204480007B5873FC047534B42B51EBEAB66CACB4722BD549CA204065978CBDEF3A22BFDA98
:2044A000E90E554946365CF636C0F4D4F0D430F354A312A47FA8B6DF9C2DCDE1FC124D19A0
:2044C0006ACA6745B8A6BAD99E56C6A0C5ADA3A51EA4F25478A215DD52FA9BD9EDB5FE3053
:2044E000A693913A834CB4240C1B4A965C7D6D92773760A0DE96C42861FA0F1F35963BE5B0
:204500004671BB6ECEB0B3A1271868FDDECFF682086241CFD90C2D88723612FAFB3A6A02B7
:20452000F26CCD2AC25B20169854091F7228A53D792F7E2A908DB7C42DB48AB4672BF54D68
:20454000518DAFB687D4614C06D713424112E48A71A6FFF92CA0CAA6397E6193A3F0428FC3
:204560000CDB4A5A44A3E00B1AAA70AF72141B3398CEAC84D4CECEF43F9C7DE0D411BB8FC6
:20458000CA5E845E2251031A7CD406AE2EB7B0FE97AF6D12B19E2B77E614C8E22516C61778
:2045A000341F460948653443D35DBF869D810CB416512BECEB984AF7D7F028E3BC88CDEDD0
:2045C000F22579A5DE67DA4CC74E8181E6FC971DBCBDCC5BA944913CB9388729C1EF37DAD2
:2045E000AB7903780EE05CFE02AE36E532B0B90032FA3AA5132B690D35F2CCFD5DD16CA67F
:204600000721CECBFE5724212985C5FBA824DB2620105B1252D43B33F328DFA7B7B8D419D6
:20462000B027C0E5D654997DE7DC160B71E063582C0819EC8EC76D779AE1A86FF92BD7FBD4
:204640004B92C310BF5F23D9E1BA115DB46CBB5C01E95B79EE8D699FD2260E9D48B3DD1381
:20466000836BBE92E1012AFFC2279E389A5149FA45BB08039BAD957345FEFC78CFD74E2AD4
:20468000FDB998B463C116B5302BA5E64B1677FCA1860AD0BDAF5BBD99715749B31F9208D4
:2046A00064843BBE6D2850C4D3CF0EADEE43AC28BC5348287B1C2243768708581F1311757E
:2046C0005ED58EF829BD3EF4551AC1D6AB604F483F29AA55FD7B51CE8549F7ED393C3339D0
:2046E00093B379A9BD08490C5B15A6A8ABF6CA22D111189E6C5452266DBE0C502921611BD0
:20470000AD26E41B5191D9D690C6A66D168C847F1B127A4AF0308C13D7EE30C8184A01E573
:204720005136B7940EE157189937A76B14ABE526C434B8A2B095675D6BE2499F2E407D5DC5
:2047400029ECDA5D1B7F299B217092ECCBDA55E1757FBBEED50E4BCBD0A1401B928A3B4CC0
:20476000DD4F36BEA1F3B927CE77503666A13C76D6FC69768620A027AF33FE856DB0A57963
:204780001567B1FEC8C66E844856C8910B8802AE8EB2AB81EC55CE37AFA16A25E63B21AEB3
:2047A000783D3467B77FAF793815E147E3180F5146AA6A582E343DC479F26B4226B219B1AC
:2047C000AED8A83F97A6E6CF46BA859F15D8CC27A5EA8C4476455695B42EEB25549DF44B4F
:2047E0006041F3CF8FC37A4E194F9BE0C9519FF7547CFA8BE9117F74095ED11799851A449C
:20480000367EFF5FC85FD3BE5ADB0A532909F18BFA679D75B11F21272089055E1DF0F36493
:20482000D799B2376A0159E7B067BC405A8A2BA940B45C4CF6F7A577A0B76E420769E77333
:20484000EC99F69E9C327491C4FA98EF875CB31ACE6A1E56DF22712C32F0F60D7F755E387E
:204860001C87B2DE86798C833E9C86A7D605F3A64B91CDDD9527EF0E7D3D8405AF9EC07C71
:20488000106ACE3D515E0986C5556EB16F0F511460325027408E86E42AA50174BD6B750710
:2048A0006F4A310425695362012E38557B02372EB4548F7C06E09D78E03153A0D164E5A15C
:2048C000E230C57A2923D2DF9B2ECDDB22640CBAF0FF722612A49E9048E863D2141278124D
